:020000040800F2
:10000000285B002059030008F1630008F15C000838
:10001000ED6300081D1800081D77000800000000AF
:100020000000000000000000000000005967000808
:10003000A11A00080000000061640008B167000810
:1000400073030008730300087303000873030008B8
:1000500073030008730300087303000873030008A8
:10006000A51A00087303000873030008730300084F
:100070007303000873030008730300087303000888
:10008000D9180008730300087303000873030008FD
:100090007303000873030008730300087303000868
:1000A0007303000873030008730300087303000858
:1000B00089680008730300087303000873030008CD
:1000C00073030008730300087303000865640008E5
:1000D0007303000873030008730300087303000828
:1000E0007303000873030008730300087303000818
:1000F000730300087303000873030008E91800087D
:1001000073030008730300087303000873030008F7
:1001100073030008457100087303000873030008A7
:10012000730300087303000873030008F91800083C
:1001300073030008000000000000000073030008C3
:1001400073030008730300087303000873030008B7
:1001500073030008730300087303000873030008A7
:100160007303000873030008730300087303000897
:100170007303000873030008730300080000000005
:1001800000000000730300080000000000000000F1
:100190007303000800000000000000007303000863
:1001A00000000000000000000000000073030008D1
:1001B0007303000873030008730300087303000847
:1001C0007303000800F002F800F0B6F80AA090E807
:1001D000000C82448344AAF10107DA4501D100F002
:1001E000ABF8AFF2090EBAE80F0013F0010F18BF19
:1001F000FB1A43F00103184724D8000044D800003C
:100200000A444FF0000C10F8013B13F0070408BF3C
:1002100010F8014B1D1108BF10F8015B641E05D0DA
:1002200010F8016B641E01F8016BF9D113F0080F8F
:100230001EBF10F8014BAD1C0C1B09D16D1E58BF21
:1002400001F801CBFAD505E014F8016B01F8016B58
:100250006D1EF9D59142D6D37047000000230024CB
:1002600000250026103A28BF78C1FBD8520728BFC6
:1002700030C148BF0B6070476E2900F0978270292B
:1002800000F0D98366290BF0EE8165290BF0EB8134
:1002900067290BF0E88161290BF0E78103681B0AED
:1002A00028BF41F08001692900F04482642900F0F0
:1002B0004182752900F03E826F2900F0678378291A
:1002C00000F0A583E92900F00183E42900F0FE8213
:1002D000F52900F0FB82EF2900F06483F82900F093
:1002E000A4830368DB0928BF41F08001632901F082
:1002F000C780732901F0CC80E32901F0D780F3296E
:1003000001F0DC80002070471FB50BF09AF99DE8E2
:10031000030000F045F901F02FF90400002000214E
:100320000AF048FC401C6060002000210AF02CFC10
:10033000E0601FBD10B510BD01F0F0F81146FFF7E9
:10034000E3FF09F0EDF901F0CDF903B4FFF7F2FF97
:1003500003BC01F0FDF90000094880470948004747
:10036000FEE7FEE7FEE7FEE7FEE7FEE7FEE7FEE765
:10037000FEE7FEE704480549054A064B70470000C2
:1003800075680008C501000828550020285B00207A
:10039000285700202857002070B5064600F0E4F8E2
:1003A000056806F10B0020F00704B4429CBF002052
:1003B00070BD2B466A68BAB11068A04210D304F130
:1003C000080188423CBF5068586007D35168101933
:1003D00041601168091B016058601460101D70BDF8
:1003E00013465268002AE7D12146284600F0C4F897
:1003F0000028DED170BD53EA020C00F069802DE9BF
:10040000F04B4FF00006002B1FBFB3FA83F503FA41
:1004100005F424FA05F65E4012BF1643B2FA82F5DF
:1004200002FA05F4C5F120051EBF22FA05FC44EAD4
:100430000C04203556EA044C4FEA144418BF641CDF
:100440004FF000084FF00009904271EB030C39D3D4
:10045000002919BFB1FA81F701FA07F6B0FA80F75F
:1004600000FA07F6C7F120071EBF20FA07FC46EA8C
:100470000C062037B6FBF4FCA7EB0507103F07F08E
:100480001F0BCBF120062CFA06F60CFA0BFB44BF2F
:10049000B3460026202FA4BF5E464FF0000B5BEA58
:1004A000060C08BF4FF0010B19EB0B0948EB0608CF
:1004B000ABFB027C06FB02CC0BFB03CCC01B71EB3D
:1004C0000C01C1E70B46024641464846BDE8F08BA9
:1004D00013B5084318BF4FF0FF300146AFF300805B
:1004E000BDE81C40704700000FB41CB5084B06AABD
:1004F0007B4469460090059800F071F9044600209D
:10050000694600F07FF920461CBC5DF814FB000032
:10051000110300004FF0000200B5134694469646C2
:10052000203922BFA0E80C50A0E80C50B1F1200106
:10053000BFF4F7AF090728BFA0E80C5048BF0CC0B4
:100540005DF804EB890028BF40F8042B08BF704712
:1005500048BF20F8022B11F0804F18BF00F8012B84
:10056000704770477047704700487047600200202E
:10057000704770477047704738B504460A460020F8
:100580006946AFF30080002808BF38BD02460099D5
:10059000204600F027FB012038BD012000F0B6BF47
:1005A000F8B5AFF30080054600200C46102000BFD0
:1005B0000646A819A0420DD9324669460020AFF37D
:1005C0000080070008BF00F0A1FF0098A04218BFFC
:1005D0000546C419FFF7C8FF05600746F01D20F067
:1005E00007004619284600F00AF8B44208BFF8BDD3
:1005F000A21B31463868BDE8F84000F0F3BA00218C
:100600000160C0E9011070471020704770B50446C2
:10061000051FFFF7A9FF0068002C14BF446870BDD8
:10062000002C18BFAC423CBF20466468F8D3016878
:100630000A18AA4218BF456003D12A68054611442A
:10064000016028684119A1421CBF6C6070BD6168DF
:10065000696021680844286070BD10B500F0BEFADA
:10066000006810BD10B5044600F0B8FA046010BD73
:1006700070B5044685690068C10601D5302600E0E2
:100680002026C00707D070BDD4E90121304690472D
:10069000206A401C20626D1EF6D570BD70B5044600
:1006A00085690078C00707D170BDD4E901212020F9
:1006B0009047206A401C20626D1EF6D570BD096807
:1006C0004A0501D540B27047C905FCD500B2704754
:1006D00009684A0501D5C0B27047C905FCD580B28A
:1006E000704770B50C460546012A05D0287880066B
:1006F00000D5EA69002302E0012305E05B1C934278
:1007000002D2E05C0028F9D1A869E618C01AA861F5
:10071000286A184428622846FFF7AAFF04E0D5E9B2
:10072000012114F8010B9047B442F8D32846FFF793
:10073000B5FF70BD2DE9F04106460024106875290B
:10074000314616A510D0FFF7BAFF002802DA404262
:1007500013A507E031688A0701D512A502E0490711
:1007600004D511A5012401E0FFF7B2FF00210A2200
:1007700006F1240709E0B0FBF2FCB0FBF2F302FB48
:100780001C00303078541846491C0028F3D1234609
:100790002A463046BDE8F04100F083BA0000000070
:1007A0002D0000002B0000002000000011680268EE
:1007B000006A530501D508700AE0D30501D5088009
:1007C00006E0130603D5C217C1E9000200E0086085
:1007D0000120704701694A1C02610878704700B522
:1007E0008FB0CDE901310021059105497944CDE96A
:1007F00003101146684600F029F90FB000BD000053
:10080000E5FFFFFF0A6802F8010B0A60704700006D
:100810002DE9FF5F15468A460446DFF8AC80F844B0
:100820000027D8E900103E46CDE9001010E03AF864
:1008300016106A4602A800F045FE411C07D0217838
:10084000890603D5E269391891420DD80744761C10
:100850002078800602D5E069B84205DDAE42E6DBCD
:100860003AF816000028E2D1A069C01BA06120461A
:10087000FFF7FEFED8E90010CDE90010002017E0D8
:100880003AF818106A4602A800F01CFEB0F1FF3FCB
:1008900081460BD000250DF1080B05E0D4E90121BC
:1008A0001BF8050090476D1C4D45F7D308F101007A
:1008B000B0428046E4DB206A384420622046FFF7DD
:1008C000EDFEBDE8FF9F00004EAE00002DE9F041B7
:1008D0008046D21D22F007020025D2E90002F52948
:1008E00015A614D0011E72F1000106DA0023D0EB28
:1008F000030063EB020211A608E0D8F800108B0792
:1009000001D50FA602E0490701D50EA60125114623
:10091000002408F1240704E000F07EF930323A5553
:10092000641C50EA0102F7D12B463246214640466C
:10093000BDE8F04100F0B5B9000000002D00000056
:100940002B0000002000000030B4002100F124043E
:1009500008E002F00705D208303542EA4372DB08AE
:100960006554491C52EA0305F3D10468002310A220
:10097000250708D504F020040C4304D0C4690123E2
:100980000CA2641EC46130BC00F08BB910B50446E3
:1009900021461068FFF79CFE02462046BDE8104045
:1009A0000023D1E7D21D22F00701D1E90023CBE7D4
:1009B0000000000030000000F0B40D460188090579
:1009C00002D5214C7C4402E01F4C7C440E340021B3
:1009D00000F1240608E002F00F071209E75D42EA81
:1009E00003721B097754491C52EA0307F3D10278BA
:1009F0000023120704D5702D06D009B1022311344B
:100A00002246F0BC00F04DB901231034F8E770B570
:100A100004460D4621461068FFF75AFE0246294655
:100A20002046BDE870400023C6E7D21D22F0070330
:100A3000D3E90023C0E70368126843F02003036092
:100A40000823C3610023B7E7B0AC00002DE9F05FD5
:100A5000894604464FF0000ADFF874B1FB44C0F841
:100A600020A02046E1688847002874D0252806D0B9
:100A7000D4E901219047206A401C2062F1E700265A
:100A80005F462046E16888472028054607DB312D70
:100A900005D2781910F8200C08B10643F1E7B00729
:100AA00001D526F00406C4F81CA00027C4F818A03D
:100AB0002A2D09D028460AF053F838B304EB8708EA
:100AC000303DC8F8185019E059F8041B204604EBD3
:100AD00087029161E1688847012F054618D1E069D6
:100AE000002820DA26F020061DE0D8F8180000EBD8
:100AF000800005EB40003038C8F818002046E16857
:100B0000884705460AF02CF80028EED1012F0AD0BC
:100B10002E2D08D12046E16888477F1C0546022F0C
:100B200046F02006C4DBA069002803DA404246F004
:100B30000106A061F00701D026F010066C2D0BD045
:100B4000682D09D04C2D39D06A2D35D0742D35D073
:100B50007A2D33D016E038E0E1682F4620468847EA
:100B6000B842054609D16C2F26D04FF48060E16869
:100B7000064320468847054604E06C2F1AD04FF400
:100B8000807006430DB3A5F14100192802D8203525
:100B900046F400664A462946204626604E46FFF740
:100BA0006BFB80B101280BD0F61D26F0070000F189
:100BB000080956E74020E4E78020D8E70020D6E780
:100BC00006F104094DE7284652E7206ABDE8F09F88
:100BD00040AC0000004870475802002000487047B1
:100BE00058020020034640688C46002818BF8842FF
:100BF0003CBF03464068F8D318681844884207D0C1
:100C00000CF1030020F00700001D411A521A0146A2
:100C1000081D0A60FFF7FABC30B5B0F10A0271F1A5
:100C200000034FEA900E4EEA817EB0EB0E0061EBBE
:100C300091014FEA101E4EEA017E10EB0E0041EBCF
:100C400011114FEA102E4EEA016E10EB0E0041EB2F
:100C500011214FEA104E4EEA014E10EB0E0041EB0F
:100C60001141401841F100014FEAD00040EA4170C3
:100C70004FEAD1014FEA810444EA907410EB8005F9
:100C800044EB01046D1944EB0404521BA3414FF0E3
:100C9000000348BF0A3200D530BD401C41F10001BD
:100CA00030BD2DE9F0470D4699469246044600F1C5
:100CB00024080168880604D5E06921F0100121604C
:100CC00000E00120A84201DD471B00E00027A169E8
:100CD0007A1902EB0900081AA0612078C00602D434
:100CE0002046FFF7C5FC002608E0D4E901211AF8E8
:100CF00006009047206A401C761C20624E45F4DBBB
:100D00002078C0060AD52046FFF7B2FC06E0D4E9F9
:100D1000012130209047206A401C2062381EA7F134
:100D20000107F4DC07E0D4E9012118F80500904739
:100D3000206A401C2062281EA5F10105F3DC204634
:100D4000FFF7ACFC2078000602D50220BDE8F08752
:100D50000120FBE72DE9FF4F0C461E464FF0FF3701
:100D60008BB0D2E90001DDF860800A908A46C1F3B9
:100D70000A5505B93D46002108464FF00000BAF17A
:100D8000000F00F4400005DA00EB80004FF4400152
:100D900001EA50004FEA9059B9F1010F00DDB94660
:100DA0000A9850EA4A000ED044F61050A5F2FF35DA
:100DB00045432F14B8F1000F1ED07542291E1EDDC9
:100DC000C9F100021CE0B8F1010F4FF0000001D0A2
:100DD000302103E0F24305E02154401CB042FBDB2C
:100DE00030460022002121540B99C1F80880C1E946
:100DF00000200FB0BDE8F08FBD1B6D1CDEE74A463A
:100E000000DA694206A800F0FBFB06AB93E8070096
:100E100003AB83E8070050460A9908F048FE8DE8C6
:100E20000700A0F500501F3800900398002D0ADD40
:100E300042F21F014A460844002303A90390684672
:100E400009F0B2F809E0A0F500504A461F38002327
:100E500003A90390684609F0BCF88DE80700000478
:100E6000000C03D04FF0FF30410800E01046B8F10D
:100E7000000F03D00022009215461EE0751E05D417
:100E8000FFF7CAFE303262556D1EF9D5B346012216
:100E9000084302D000227F1C04E02078302801D1D2
:100EA00000227F1E002A099784D01DE0112D07DA49
:100EB000FFF7B2FE303262556D1C50EA0102F5D1E7
:100EC000084302D00098C8B10EE00021681E05E07A
:100ED000235C625C63542254401E491C8142F7DB50
:100EE000AB46A81B401E0990002004F80B000B988D
:100EF000099AC0F80880C0E9002B7AE711264FF064
:100F0000000857E72DE9F04F88460446D21D22F02D
:100F1000070191B0D1E90001CDE90A0109F090F98A
:100F200002460B98C00F01D02D2007E020688107F2
:100F300001D52B2002E0202101EAC000032A0990FC
:100F400001D0072A05DB03464146204600F018FB86
:100F50000BE12078800601D5E06900E00620B8F1B9
:100F6000650F814606D0B8F1660F18D0B8F1670F4B
:100F700070D131E00020B9F1110F009001DB112395
:100F800001E009F101030AAA01A90CA8FFF7E2FE9A
:100F9000DDE90C70002609F10105834647E00120D8
:100FA0004B4600904FF000470AAA01A90CA8FFF792
:100FB000D1FEDDE90DB00C995D46002610B909F1AE
:100FC00001000D18B9EB050003D4C0F1FF3609F19B
:100FD0000105A5EB09002BE0B9F1010F01DA4FF093
:100FE00001090020B9F1110F0090484601DD1123DD
:100FF00000E003460AAA01A90CA8FFF7ABFEDDE951
:101000000C704D4600268346207800070AD4AB4575
:1010100000DA5D4601A8012D04DD411911F8011C1B
:10102000302907D04F4502DA17F1040F04DA012006
:1010300082460FE06D1EEEE7002F02DCED1B3E4402
:1010400003E0781CA84200DD7D1CB81B00F1010AFA
:101050004FF000472078000703D4AA4501DB4FF08A
:10106000FF3A0021B7F1004F0DF143088DF843100E
:1010700024D002202B23002F01DA7F422D230A21C6
:10108000021EA0F1010000DC5FB197FBF1FC97FBB1
:10109000F1F201FB1C7C17460CF1300C08F801CD75
:1010A000EEE7A8F1010003702188090501D545216B
:1010B00000E06521A0F1010800F8011C09980FA9C2
:1010C000A1EB0807FF1D00B10120411901EBEA70F7
:1010D000A1693844081A401EA0612078C00602D4D5
:1010E0002046FFF7C5FA099828B1D4E901219047B5
:1010F000206A401C20622078C00622D52046FFF7D7
:10110000B7FA1EE0002E04DBB34502DD01A8805DC6
:1011100000E03020D4E901219047206A401C206281
:10112000761CAAF101005FEA000A0AD100F024FA55
:10113000C0680168405CD4E901219047206A401CE6
:101140002062281EA5F10105DCDC07E0D4E90121BD
:1011500018F8010B9047206A401C2062381EA7F146
:101160000107F3DC2046FFF799FA032011B041E6AE
:101170002DE9F04F04460D46D21D22F0070089B03C
:10118000D0E900974846394609F05AF80246F80F68
:1011900001D02D2307E02068810701D52B2302E031
:1011A000202101EAC0038DF820300BB1012000E0BE
:1011B0000020032A824601D0072A04DB2946204664
:1011C00000F0DEF93FE12078800601D40D2500E033
:1011D000E569C7F30A560D2D49DA00214FEA175B7E
:1011E00008464FF00000002F00F4400007DA00EB43
:1011F00080004FF4400100EBD07001EA60008115DF
:10120000012901DD4FF0FF3100224FEA850CBCF1CE
:10121000180F06D31346ACF118004FF08052C240AD
:1012200003E04FF4801323FA0CF30CF10C0CBCF127
:10123000200F04D3ACF1200C09FA0CF001E007FAFE
:101240000CF000294FF0004801DD18B90FE00ED175
:1012500040450CD319EB02095F4121B9404502D149
:101260009F4329EA0209BBEB175F00D0761C208858
:10127000000502D57B48784402E07A487844193862
:1012800008AA302302F80A30037C0AF10101002E7B
:101290000AF1020A53546A4602DC4FF0300101E0C1
:1012A0004FF031014FF001088DF8001002D0A6F286
:1012B000FF3603E059EA470100D06B4E002D02DCF7
:1012C0002178090704D54FF002082E218DF801106E
:1012D000C44600210BE0C7F303433F01C35C491C34
:1012E0006D1E02F80830052908F1010801DA002D09
:1012F000F1DC00210CE000EB1973491C1B786D1E1A
:10130000082902F808304FEA091908F1010801DA42
:10131000002DF0DC21688B0602D516E0A8F101084B
:10132000E04505DD02EB080313F8013C302BF5D056
:10133000B8F1000F09DD02EB080313F8013C2E2B76
:1013400003D1090701D4A8F10108002D05DD3E21D4
:1013500002F808106D1E08F10108407C002E02F80A
:10136000080008F1010804DA2D20764202F808008E
:1013700002E02B2002F808000A214FF47A7086421E
:1013800008F101080BDB96FBF0F3303302F808306C
:1013900096FBF0F308F1010800FB136601E0642EF0
:1013A0000CDB642096FBF0F3303302F8083096FB38
:1013B000F0F308F1010800FB136601E00A2E06DBDA
:1013C00096FBF1F0303002F8080008F1010896FBB6
:1013D000F1F001FB1060303002F80800A16908F15B
:1013E000010808EB050202EB0A00081AA061207848
:1013F000C00602D42046FFF73BF9216A08AE01EB94
:101400000A00206204E0D4E9012116F8010B90479C
:10141000BAF1010AF7D22078C00602D52046FFF7BC
:1014200027F96E4609E016F8010B3E280FD0D4E9E3
:1014300001219047206A401C2062B8F10108F2D2D5
:101440002046FFF72BF909B00320BDE8F08F206A92
:101450002844206203E0D4E90121302090476D1E2A
:10146000EBD3F8E779A5000002FCFFFF10B5436954
:1014700013B1AFF3008001E0FFF733F9012010BD95
:10148000127800F124010A7000224A700122EDE76F
:1014900011684FF0FF32E9E710B5436913B1AFF3BC
:1014A000008001E0FFF7B4F9012010BD128800F1BF
:1014B000240182840022C2840122EDE711684FF0EA
:1014C000FF32E9E72DE9F04116460C46054600F0EB
:1014D0004BF8036893F80101012807D0FF2C12D8BC
:1014E000185D80B101202C70BDE8F081D3F80701B0
:1014F0003246214603F20713C7182846BC46BDE80A
:10150000F041002360474FF0FF30EDE710B500F0E9
:10151000F7F8BDE8104000F0EEB870477546FFF7E9
:1015200059FBAE4605006946534620F00700854644
:1015300018B020B5FEF71EFFBDE820404FF00006B2
:101540004FF000074FF000084FF0000BAC46ACE83E
:10155000C009ACE8C009ACE8C009ACE8C00921F09A
:1015600007018D467047000010B500F005F8001D1A
:1015700010BD00BF4196000000487047780200206F
:101580002DE9F0411F46044603260168072A01F4AD
:10159000006004DB08B116A505E016A503E008B15C
:1015A00015A500E015A521F010002060A069C01E5F
:1015B000A0610FB1401EA0612046FFF759F84FB15E
:1015C000D4E9012138469047206A401C2062C01CA3
:1015D000206206E0206AFAE7D4E9012115F8010B40
:1015E0009047761EF8D22046FFF758F8BDE8F08104
:1015F0004E414E006E616E00494E4600696E6600B7
:101600002DE9F047814616468AB0354878440DC822
:101610008DE80D0032487844801C03AC0DC884E886
:101620000D0041F69B300844372190FBF1F290FB0E
:10163000F1F5A5F1800501FB12041B3C02D56442C3
:10164000012000E00020DFF898A080460027FA443F
:10165000AAF1BE0A0EE0E0070AD03246684607EB60
:10166000470101230AEB810108F0B3FC8DE8070074
:1016700064107F1C002CEED1194F7F44AE3F19E05F
:10168000E80715D007EB04100DF1180A90E80E00DA
:101690008AE80E00C068F04201D1981908903246DD
:1016A000012306A903A808F094FC03AB83E8070014
:1016B0006D10641C002DE3D14FF0010332466946E2
:1016C000B8F1000F03A802D008F06EFC01E008F0AA
:1016D00080FCC9E90001C9F808200AB0BDE8F0871C
:1016E00074A2000010B50446AFF300802046BDE8A8
:1016F0001040FEF72ABE002801D000F029B870473C
:1017000010B5012805D0002103A000F027F8012022
:1017100010BD09A1F8E7000053494752544D454D0B
:101720003A204F7574206F662068656170206D6582
:101730006D6F7279000000003A2048656170206D7D
:10174000656D6F727920636F727275707465640075
:1017500001491820ABBEFEE72600020070B5054621
:101760000C460A2000E06D1C00F050F835B12878D6
:101770000028F8D102E0641C00F048F814B1207889
:101780000028F8D1BDE870400A2000F03FB8000002
:1017900030B44FF0013C50F8042B51F8043BCCFA24
:1017A00052F4D51A20D1FCB950F8042B51F8043B5F
:1017B000CCFA52F4D51A17D1B4B950F8042B51F819
:1017C000043BCCFA52F4D51A0ED16CB950F8042B64
:1017D00051F8043BCCFA52F4D51A05D1002CDAD0DA
:1017E00030BC4FF00000704729BAB1FA81F111F016
:1017F0001801D1F120008440F2D1CA40CB4012F050
:10180000FF0213F0FF0330BCD01A704708B56946D9
:101810008DF800000320ABBE08BD0000FFE7FEE727
:1018200080B582B001900198806B0090009800F024
:10183000A5F900990120087102B080BD80B582B081
:1018400001900198806B0090009800F039F90099A0
:101850000120087102B080BD80B582B0019001986E
:10186000806B00900099086940F0040008610098BE
:1018700000F0BAF900990120087102B080BD0000A3
:1018800080B582B001900198806B00900099086942
:1018900040F004000861009800F01AF90099012056
:1018A000087102B080BD000080B582B0019001983F
:1018B000806B0090009800F093F902B080BD0000AA
:1018C00080B582B001900198806B0090009800F084
:1018D000FBF802B080BD000080B540F24830C2F293
:1018E000000000F095FB80BD80B540F20840C2F2D8
:1018F000000000F08DFB80BD80B540F2A830C2F240
:10190000000000F085FB80BD82B001900198007856
:1019100010384AF6AB21CAF6AA21A0FB0110000933
:10192000009000994BF6B400C0F60000405C0199AD
:10193000C8650098042807D3FFE7019908680422C6
:1019400062F30900886506E00199086840F2FF32F9
:1019500090438865FFE70198806D02B070470000F2
:1019600086B0059000208DF813000598806A0390DA
:101970000598806910BBFFE70398029003281BD8E5
:101980000299DFE801F0020D0218059890F82F0087
:10199000C00720B1FFE701208DF81300FFE70CE03E
:1019A0000598C06AB0F1C07F04D1FFE701208DF82F
:1019B0001300FFE701E000E0FFE745E005988069DC
:1019C000B0F5005F25D1FFE70398019003281ED8EA
:1019D0000199DFE801F00206021101208DF81300E1
:1019E00016E0059890F82F00C00720B1FFE701200E
:1019F0008DF81300FFE70BE00598C06AB0F1C07FD7
:101A000004D1FFE701208DF81300FFE700E0FFE7B6
:101A100019E003980090032804D3FFE700980328F7
:101A200004D00EE001208DF813000BE0059890F82B
:101A30002F00C00720B1FFE701208DF81300FFE75A
:101A400000E0FFE7FFE7FFE79DF8130006B07047EF
:101A500084B0039002910192009303980168086892
:101A600020F4802008600098039909684860039872
:101A70008068402809D1FFE70198039909688860C8
:101A8000029803990968C86008E0029803990968F8
:101A90008860019803990968C860FFE704B070473F
:101AA0007047000080B5042000F0EAFD80BD000012
:101AB00081B0EFF3108072B60090FFE7FEE7000000
:101AC00081B0009001B0704781B0009001B07047C4
:101AD00081B0009001B0704786B0049003910292EB
:101AE000FFE704984079012804D1FFE702208DF830
:101AF00017003EE0049901204871FFE7FFE70499D1
:101B0000022008710498006800680190029800F0B3
:101B1000100140F6FE7000FA01F10198884301902F
:101B2000039908684968084300900098029901F0F9
:101B3000100100FA01F101980843019001980499FD
:101B400009680860029800F01001C02000FA01F254
:101B5000049801680868904308600499012008719E
:101B6000FFE7049900204871FFE700208DF8170077
:101B7000FFE79DF8170006B07047000080B582B0FF
:101B8000019040F24400C2F20000006840F6C461D7
:101B9000C2F2000188420AD1FFE740F24401C2F2DA
:101BA000000141F66460C2F20000086009E040F202
:101BB0004401C2F2000140F6C460C2F200000860B5
:101BC000FFE7019840F24401C2F200010A686B4647
:101BD000002119604FF47A7300F0A2F802B080BDC2
:101BE00081B0009001B0704781B0009001B07047A3
:101BF00080B582B00090009820B9FFE701208DF8F1
:101C0000070016E00098007938B9FFE70099002036
:101C10004871009800F012F8FFE70099022008715F
:101C2000009900200861009A012111718DF80700C8
:101C3000FFE79DF8070002B080BD000080B58AB0C4
:101C4000099000200890079006900590049009984C
:101C5000006847F20041C4F2000188425ED1FFE70C
:101C6000FFE70020039043F64000C4F20200016841
:101C700041F000510160006800F0005003900398AB
:101C8000FFE7FFE70020029043F63000C4F20200B5
:101C9000016841F001010160006800F0010002905C
:101CA0000298FFE710200490032005900020009088
:101CB00006900020C4F2020004A900F0FDFC009987
:101CC00040F24830C2F20000019046F28802C4F2AD
:101CD000020202604FF06062426040228260C16096
:101CE0004FF4806202614FF4805242614FF48042AF
:101CF0008261C1610162416200F01AFB18B1FFE725
:101D0000FFF7D6FEFFE7FFE7099840F24831C2F23D
:101D10000001816009988863FFE7FFE70AB080BD92
:101D200080B58AB0DDF830C008900791069205931F
:101D300000208DF813000390FFE7089840790128F0
:101D400004D1FFE702208DF82700BDE008990120AB
:101D50004871FFE7FFE70899022008710798C0BBA8
:101D6000FFE70898816841F62100C0F60000C863CB
:101D70000898816841F6A900C0F600000864089838
:101D8000816841F65900C0F60000C86408980168EF
:101D9000086840F4805008600C98029040B1FFE75A
:101DA0000298042809D0FFE7029808280AD00EE01C
:101DB00008980068083003900AE0089800680C3022
:101DC000039005E0089800681030039000E0FFE7FA
:101DD00037E00898C16841F63D00C0F60000C863CE
:101DE0000898C16841F6C100C0F600000864089870
:101DF000C16841F68100C0F60000C8640898016817
:101E0000086840F0805008600C98019040B1FFE7EE
:101E10000198042809D0FFE7019808280AD00EE0AD
:101E200008980068143003900AE008980068183099
:101E3000039005E0089800681C30039000E0FFE77D
:101E4000FFE7079880B9FFE708980168086840F441
:101E500000500860089880680699039A059B00F076
:101E60001FFB8DF813000FE008980168086840F028
:101E7000005008600898C0680699039A059B00F016
:101E80000FFB8DF81300FFE7FFE70899002048716A
:101E9000FFE79DF8130060B9FFE7079800F0100115
:101EA000012000FA01F208980168086810430860F0
:101EB00005E00899086940F004000861FFE79DF813
:101EC00013008DF82700FFE79DF827000AB080BDBA
:101ED00080B584B002900298806D019000F0EAFD18
:101EE0000090029890F8350002280DD0FFE7029983
:101EF00080204865FFE70299002081F83400FFE761
:101F000001208DF80F0055E002980168086820F064
:101F10001600086002980168486920F08000486156
:101F20000298006C20B9FFE70298806C38B1FFE797
:101F300002980168086820F008000860FFE702982E
:101F40000168086820F001000860FFE70298006857
:101F50000068C007C8B1FFE700F0ACFD0099401A67
:101F6000062811D3FFE70299202048650299032033
:101F700081F83500FFE70299002081F83400FFE77F
:101F800003208DF80F0015E0E0E70298C16D3F20B7
:101F90008840019988600299012081F83500FFE7A7
:101FA0000299002081F83400FFE7FFE700208DF858
:101FB0000F00FFE79DF80F0004B080BD82B00090D5
:101FC000009890F83500022807D0FFE7009980209C
:101FD000486501208DF807000EE00099052081F882
:101FE000350000980168086820F001000860FFE7EC
:101FF00000208DF80700FFE79DF8070002B070474A
:1020000081B00090009890F8350001B07047000052
:1020100080B586B005900020039040F24000C2F2E7
:102020000000006848F2B511C1F64E31A0FB011066
:10203000800A02900598806D0190019800680490D4
:1020400004980599C96DC840000700281AD5FFE714
:102050000598006800684007002812D5FFE705983A
:102060000168086820F0040008600598C16D082028
:102070008840019988600599486D40F001004865E5
:10208000FFE7FFE704980599C96DC840C007A0B1F4
:10209000FFE7059800684069000600280CD5FFE7B7
:1020A0000598C16D01208840019988600599486DA7
:1020B00040F002004865FFE7FFE704980599C96D05
:1020C000C8404007002814D5FFE70598006800685D
:1020D000800700280CD5FFE70598C16D04208840D3
:1020E000019988600599486D40F004004865FFE754
:1020F000FFE704980599C96DC840C006002847D578
:10210000FFE7059800680068000700283FD5FFE753
:102110000598C16D10208840019988600598006875
:102120000068400300281AD5FFE70598006800689A
:102130000003002809D4FFE70598006C20B1FFE7F1
:102140000598016C8847FFE708E00598806C20B18E
:10215000FFE70598816C8847FFE7FFE716E00598E1
:1021600000680068C005002807D4FFE705980168EB
:10217000086820F008000860FFE70598006C20B1AF
:10218000FFE70598016C8847FFE7FFE7FFE7FFE7F8
:1021900004980599C96DC8408006002840F18D80DB
:1021A000FFE7059800680068C006002840F18480B9
:1021B000FFE70598C16D2020884001998860059847
:1021C00090F83500052834D1FFE7059801680868C4
:1021D00020F01600086005980168486920F080002A
:1021E00048610598006C20B9FFE70598806C38B10C
:1021F000FFE705980168086820F008000860FFE71D
:102200000598C16D3F20884001998860059901209B
:1022100081F83500FFE70599002081F83400FFE7D9
:102220000598006D20B1FFE70598016D8847FFE72D
:102230007BE0059800680068400300281AD5FFE796
:102240000598006800680003002809D4FFE7059896
:10225000406C20B1FFE70598416C8847FFE708E034
:102260000598C06B20B1FFE70598C16B8847FFE771
:10227000FFE720E0059800680068C005002811D439
:10228000FFE705980168086820F0100008600599CC
:10229000012081F83500FFE70599002081F834001E
:1022A000FFE7FFE70598C06B20B1FFE70598C16B1A
:1022B0008847FFE7FFE7FFE7FFE70598406DA0B31A
:1022C000FFE70598406DC00730B3FFE7059905208B
:1022D00081F8350005980168086820F00100086061
:1022E000FFE70398013003900299884201D9FFE784
:1022F00007E0FFE7059800680068C0070028F0D1F4
:10230000FFE70599012081F83500FFE705990020D6
:1023100081F83400FFE7FFE70598C06C20B1FFE7C4
:102320000598C16C8847FFE7FFE706B080BD000055
:1023300080B586B004900020039000F0BBFB0290B3
:10234000049820B9FFE701208DF81700A3E0049856
:10235000406A08B1FFE7FFE70499022081F83500E1
:10236000FFE70499002081F83400FFE70498016832
:10237000086820F001000860FFE704980068006822
:10238000C00790B1FFE700F095FB0299401A0628BC
:102390000AD3FFE70499202048650499032081F8B7
:1023A00035008DF8170076E0E7E7049800680068CC
:1023B0000390039848F23F01CFF2100108400390C8
:1023C000049900914868D1F808C0CB680A6940EACE
:1023D0000C00184310434A6910438A691043CA69C4
:1023E0001043096A01430398084303900498406A24
:1023F000042808D1FFE70499C86A096B01430398D0
:1024000008430390FFE7039804990968086004985B
:10241000006840690390039820F007000390049837
:10242000416A0398084303900498406A04281AD12B
:10243000FFE70498816A0398084303900498C06AF0
:1024400080B1FFE70498FFF78BFA50B1FFE70499DA
:10245000402048650499012081F835008DF8170067
:1024600019E0FFE7FFE703980499096848610498B9
:10247000FFF74AFA01900498C16D3F208840019906
:102480008860049900204865049A012182F835107B
:102490008DF81700FFE79DF8170006B080BD00001B
:1024A00080B588B0069005910492039300208DF8C2
:1024B0000B000698806D0190FFE7069890F83400B5
:1024C000012804D1FFE702208DF81F0045E006999E
:1024D000012081F83400FFE7FFE7069890F8350007
:1024E00001282BD1FFE70699022081F835000699D3
:1024F0000020486506980599049A039BFFF7A8FAFF
:102500000698C16D3F20884001998860069801684F
:10251000086840F0160008600698006C38B1FFE7C4
:1025200006980168086840F008000860FFE7069810
:102530000168086840F00100086009E0FFE70699BB
:10254000002081F83400FFE702208DF80B00FFE740
:102550009DF80B008DF81F00FFE79DF81F0008B0E5
:1025600080BD000080B584B0039000F0A3FA029013
:10257000039801900198013048B1FFE740F24C20E8
:10258000C2F200000178019808440190FFE7FFE7DC
:1025900000F090FA0299401A0199884201D2FFE7AF
:1025A000F6E704B080BD000080B582B0ADF806004B
:1025B000BDF80600042825D1FFE740F60000C4F26C
:1025C0000200042100F046FA012808D1FFE740F29A
:1025D0009850C2F20000042102F0C2FE11E040F661
:1025E0000000C4F20200042100F034FA40B9FFE711
:1025F00040F29850C2F20000042102F0CBFDFFE748
:10260000FFE7FFE7BDF80600B0F5006F35D1FFE743
:102610000020C4F202004FF4006100F01BFA012810
:1026200012D1FFE740F2B820C2F20000006840F289
:10263000BD21C2F20001087040F26C60C2F20000DD
:10264000012203F0C5FA17E00020009005F054FCC9
:10265000009840F21031C2F2000181ED000A40F210
:10266000BD21C2F20001087040F26C60C2F20000AD
:10267000012203F0ADFAFFE7FFE702B080BD0000E2
:1026800080B582B0ADF8060043F61440C4F20100F4
:102690000068BDF8061008420CD0FFE7BDF8060040
:1026A00043F61441C4F201010860BDF80600FFF7CB
:1026B0007BFFFFE702B080BD8DB00C900B91002036
:1026C0000990089007900A90FFE70A980F2800F2F7
:1026D000BE81FFE70A990120884009900B980068A5
:1026E00009990840089008980999884240F0AA8101
:1026F000FFE70B98406800F00300012807D0FFE7D0
:102700000B98406800F0030002282FD1FFE70C98D7
:10271000806807900A984100032000FA01F10798A9
:10272000884307900B98C0680A99490000FA01F1A4
:1027300007980843079007980C9988600C984068A0
:1027400007900A99012000FA01F107988843079041
:102750000B984068C0F300100A9900FA01F107983D
:102760000843079007980C994860FFE70B9840686A
:1027700000F00300032818D0FFE70C98C06807900A
:102780000A984100032000FA01F107988843079056
:102790000B9880680A99490000FA01F107980843EC
:1027A000079007980C99C860FFE70B98406800F005
:1027B0000300022826D1FFE70C980A996FF0030264
:1027C00002EA51010844006A07900A9800F00700E5
:1027D00081000F2000FA01F10798884307900B98B9
:1027E00000690A9901F00701890000FA01F10798D0
:1027F0000843079007980C990A9B02EA5302114478
:102800000862FFE70C98006807900A9841000320CF
:1028100000FA01F10798884307900B98406800F090
:1028200003000A99490000FA01F10798084307904C
:1028300007980C9908600B9880798007002800F0B1
:102840000081FFE7FFE70020069043F64400C4F252
:102850000200016841F480410160006800F480409A
:1028600006900698FFE70A9820F0030043F6080157
:10287000C4F20101405807900A9800F0030081005B
:102880000F2000FA01F10798884307900C98002167
:10289000C4F20201884203D1FFE70020059050E016
:1028A0000C9840F20041C4F20201884203D1FFE7D4
:1028B0000120049042E00C9840F60001C4F20201AD
:1028C000884203D1FFE70220039034E00C9840F6E1
:1028D0000041C4F20201884203D1FFE703200290C5
:1028E00026E00C9841F20001C4F20201884203D1B3
:1028F000FFE70420019018E00C9841F20041C4F277
:102900000201884203D1FFE7052000900AE00C99FC
:1029100041F60002C4F202020720914208BF0620DD
:102920000090FFE700980190FFE701980290FFE711
:1029300002980390FFE703980490FFE7049805903E
:10294000FFE70598C0B20A9901F00301890000FA77
:1029500001F107980843079007980A9921F00301AD
:1029600043F60802C4F20102885043F60840C4F25C
:1029700001000068079008990798884307900B9812
:102980008079C006002805D5FFE708990798084315
:102990000790FFE7079843F60841C4F20101086079
:1029A00043F60C40C4F201000068079008990798AC
:1029B000884307900B9880798006002805D5FFE7AB
:1029C0000899079808430790FFE7079843F60C41DA
:1029D000C4F20101086043F60440C4F2010000683B
:1029E000079008990798884307900B98807980078B
:1029F000002805D5FFE70899079808430790FFE7E7
:102A0000079843F60441C4F20101086043F6004010
:102A1000C4F201000068079008990798884307905E
:102A20000B988079C00728B1FFE7089907980843F9
:102A30000790FFE7079843F60041C4F201010860E0
:102A4000FFE7FFE7FFE70A9801300A903DE60DB087
:102A50007047000082B00190ADF802100198006943
:102A6000BDF80210084204D0FFE701208DF80100F4
:102A700003E000208DF80100FFE79DF8010002B09F
:102A80007047000082B00190ADF802108DF801206F
:102A90009DF8010028B1FFE7BDF8020001998861A7
:102AA00005E0BDF80200000401998861FFE702B06B
:102AB0007047000044F64850C2F2000000687047BA
:102AC00040F24C20C2F20000027844F64851C2F2B3
:102AD00000010868104408607047000080B582B0AB
:102AE00043F60041C4F20201086840F40070086037
:102AF000086840F480600860086840F480700860EE
:102B0000032000F08FF80020019000F005F800F09D
:102B10003BF8019802B080BD80B582B0009040F2D1
:102B20004000C2F20000006840F24C21C2F20001F5
:102B30000A784FF47A71B1FBF2F1B0FBF1F001F0D9
:102B400067FA20B1FFE701208DF8070018E0009830
:102B50000F280DD8FFE700994FF0FF30002200F05A
:102B600047F8009840F25021C2F20001086003E0EB
:102B700001208DF8070003E000208DF80700FFE733
:102B80009DF8070002B080BD80B582B0FFE700204D
:102B9000019043F64400C4F20200016841F4804110
:102BA0000160006800F4804001900198FFE7FFE7B2
:102BB0000020009043F64000C4F20200016841F09A
:102BC00080510160006800F0805000900098FFE79D
:102BD000072000F027F802B080BD000080B582B069
:102BE0008DF807009DF9070004F09AFD02B080BD42
:102BF00080B586B08DF817000491039200200290F2
:102C000004F0A6FD02909DF9170001900298049926
:102C1000039A03F0EFFB0146019804F0A1FD06B012
:102C200080BD000080B582B00190019804F0BAFD2B
:102C300002B080BD80B584B002900191029820B9A5
:102C4000FFE701208DF80F0021E1019843F60041D4
:102C5000C4F20201096801F00F01884212D9FFE7AE
:102C6000019943F60040C4F202000170006800F0D0
:102C70000F000199884204D0FFE701208DF80F0072
:102C800005E1FFE702980078800700282AD5FFE7D2
:102C9000029800784007002809D5FFE743F60801AD
:102CA000C4F20201086840F4E0500860FFE70298AF
:102CB00000780007002809D5FFE743F60801C4F2B1
:102CC0000201086840F460400860FFE743F608012D
:102CD000C4F20201086820F0F000029A92681043E2
:102CE0000860FFE702980078C00700286ED0FFE771
:102CF00002984068012811D1FFE743F60000C4F2B2
:102D00000200006800F400310020B0EB514F04D104
:102D1000FFE701208DF80F00B9E02CE00298406831
:102D2000022805D0FFE702984068032811D1FFE789
:102D300043F60000C4F20200006800F000710020B9
:102D4000B0EB516F04D1FFE701208DF80F009EE03A
:102D500010E043F60000C4F20200006800F0020137
:102D60000020B0EB510F04D1FFE701208DF80F00D8
:102D70008DE0FFE7FFE743F60801C4F202010868AF
:102D800020F00300029A526810430860FFF792FE99
:102D90000090FFE743F60800C4F20200006800F06C
:102DA0000C0002994968B0EB810F0ED0FFE7FFF7E6
:102DB00081FE0099401A41F28931884204D3FFE72D
:102DC00003208DF80F0062E0E4E7FFE7019843F687
:102DD0000041C4F20201096801F00F01884212D2D9
:102DE000FFE7019943F60040C4F202000170006859
:102DF00000F00F000199884204D0FFE701208DF810
:102E00000F0044E0FFE702980078400700280CD547
:102E1000FFE743F60801C4F20201086820F4E0501D
:102E2000029AD26810430860FFE702980078000712
:102E300000280DD5FFE743F60801C4F20201086837
:102E400020F46040029A126940EAC2000860FFE77D
:102E500000F04CF843F60801C4F202010968C9B257
:102E60000A094BF69C01C0F60001895CC84040F29B
:102E70004001C2F20001086040F25020C2F200009E
:102E80000068FFF749FE00208DF80F00FFE79DF86E
:102E90000F0004B080BD000040F24000C2F200000C
:102EA0000068704780B5FFF7F7FF43F60801C4F2EA
:102EB00002010968C1F382224BF6AC01C0F60001A1
:102EC000895CC84080BD000080B5FFF7E5FF43F690
:102ED0000801C4F20201096889B24A0B4BF6AC0141
:102EE000C0F60001895CC84080BD000080B586B096
:102EF00000200590049003900290019043F6080092
:102F0000C4F20200006800F00C00014600910C2899
:102F100000F29B800099DFE801F0079898980D98DF
:102F2000989813989898570042F20040C0F2F40025
:102F3000019090E041F20020C0F27A0001908AE016
:102F400043F60400C4F20200016801F03F0105915C
:102F500000684002002813D5FFE743F60400C4F2DE
:102F600002000068C0F3881041F20021C0F27A012B
:102F7000A0FB0101059A0023FDF73DFA049012E041
:102F800043F60400C4F202000068C0F3881042F265
:102F90000041C0F2F401A0FB0101059A0023FDF7F6
:102FA0002AFA0490FFE743F60400C4F20200006826
:102FB00000F44031022000EBD130039004980399D3
:102FC000B0FBF1F0019046E043F60400C4F20200C9
:102FD000016801F03F01059100684002002813D507
:102FE000FFE743F60400C4F202000068C0F3881053
:102FF00041F20021C0F27A01A0FB0101059A0023F1
:10300000FDF7F9F9049012E043F60400C4F202005F
:103010000068C0F3881042F20041C0F2F401A0FB46
:103020000101059A0023FDF7E6F90490FFE743F656
:103030000400C4F202000068C0F302700290049819
:103040000299B0FBF1F0019005E042F20040C0F2BD
:10305000F4000190FFE7019806B080BD80B586B00E
:103060000490049820B9FFE701208DF8170084E34D
:1030700004980078C007002800F0BA80FFE743F604
:103080000800C4F20200006800F00C00042828D0F8
:10309000FFE743F60800C4F20200006800F00C00ED
:1030A00008280BD1FFE743F60400C4F202000068D1
:1030B00000F48000B0F5800F13D0FFE743F608005E
:1030C000C4F20200006800F00C000C281ED1FFE7DB
:1030D00043F60400C4F2020000684002002815D53F
:1030E000FFE743F60000C4F20200006800F400317C
:1030F0000020B0EB514F08D0FFE70498406820B99A
:10310000FFE701208DF8170037E370E0FFE7049830
:103110004068B0F5803F09D1FFE743F60001C4F2F3
:103120000201086840F48030086020E0049840689C
:10313000B0F5A02F0DD1FFE743F60001C4F2020164
:10314000086840F480200860086840F48030086017
:103150000CE043F60001C4F20201086820F480305C
:103160000860086820F480200860FFE7FFE7FFE7B9
:1031700004984068E8B1FFE7FFF79CFC0390FFE785
:1031800043F60000C4F20200006800F400310020A1
:10319000B0EB514F0CD1FFE7FFF78CFC0399401ABD
:1031A000652804D3FFE703208DF81700E5E2E7E781
:1031B0001CE0FFF77FFC0390FFE743F60000C4F23A
:1031C0000200006800F400310020B0EB514F0CD039
:1031D000FFE7FFF76FFC0399401A652804D3FFE768
:1031E00003208DF81700C8E2E7E7FFE7FFE7FFE7F6
:1031F000049800788007002840F1A980FFE743F693
:103200000800C4F20200006810F00C0F26D0FFE79F
:1032100043F60800C4F20200006800F00C00082821
:1032200009D1FFE743F60400C4F20200006840023F
:10323000002813D5FFE743F60800C4F20200006837
:1032400000F00C000C282CD1FFE743F60400C4F278
:10325000020000684002002823D4FFE743F6000084
:10326000C4F20200006800F002010020B0EB510F30
:1032700009D0FFE70498C068012804D0FFE70120C7
:103280008DF8170079E243F60001C4F202010868E4
:1032900020F0F800049A126940EAC2000860FFE7D3
:1032A00054E00498C06870B3FFE70021C4F24721DE
:1032B00001200860FFF7FEFB0390FFE743F60000E4
:1032C000C4F20200006800F002010020B0EB510FD0
:1032D0000CD1FFE7FFF7EEFB0399401A032804D354
:1032E000FFE703208DF8170047E2E7E743F6000108
:1032F000C4F20201086820F0F800049A126940EA5A
:10330000C200086021E00021C4F2472100200860CB
:10331000FFF7D0FB0390FFE743F60000C4F2020082
:10332000006800F002010020B0EB510F0CD0FFE765
:10333000FFF7C0FB0399401A032804D3FFE70320DB
:103340008DF8170019E2E7E7FFE7FFE7FFE70498CA
:103350000078000700284BD5FFE70498406918B3B0
:10336000FFE740F68061C4F2472101200860FFF7C3
:10337000A1FB0390FFE743F67400C4F2020000686B
:1033800000F002010020B0EB510F0CD1FFE7FFF776
:1033900091FB0399401A032804D3FFE703208DF81B
:1033A0001700EAE1E7E722E040F68061C4F2472136
:1033B00000200860FFF77EFB0390FFE743F67400F0
:1033C000C4F20200006800F002010020B0EB510FCF
:1033D0000CD0FFE7FFF76EFB0399401A032804D3D4
:1033E000FFE703208DF81700C7E1E7E7FFE7FFE7F6
:1033F000049800784007002840F1CE80FFE70020C5
:103400008DF8070043F64000C4F202000068C000D7
:10341000002815D4FFE7FFE70020009043F64000A6
:10342000C4F20200016841F080510160006800F0C0
:10343000805000900098FFE701208DF80700FFE71B
:1034400047F20000C4F200000068C005002822D442
:10345000FFE747F20001C4F20001086840F4807001
:103460000860FFF727FB0390FFE747F20000C4F274
:1034700000000068C00500280CD4FFE7FFF71AFB26
:103480000399401A032804D3FFE703208DF817009F
:1034900073E1EAE7FFE7FFE704988068012809D1B4
:1034A000FFE743F67001C4F20201086840F0010032
:1034B00008601FE00498806805280DD1FFE743F6F7
:1034C0007001C4F20201086840F004000860086856
:1034D00040F0010008600CE043F67001C4F2020104
:1034E000086820F001000860086820F00400086007
:1034F000FFE7FFE7FFE704988068F8B1FFE7FFF711
:10350000D9FA0390FFE743F67000C4F202000068A6
:1035100000F002010020B0EB510F0ED1FFE7FFF7E2
:10352000C9FA0399401A41F28931884204D3FFE76E
:1035300003208DF8170020E1E5E71EE0FFF7BAFA57
:103540000390FFE743F67000C4F20200006800F049
:1035500002010020B0EB510F0ED0FFE7FFF7AAFAEF
:103560000399401A41F28931884204D3FFE70320CE
:103570008DF8170001E1E5E7FFE79DF80700012856
:1035800009D1FFE743F64001C4F20201086820F0C8
:1035900080500860FFE7FFE704988069002800F08A
:1035A000E880FFE743F60800C4F20200006800F07C
:1035B0000C00082800F08880FFE704988069022842
:1035C0005FD1FFE76021C4F2472100200860FFF7C8
:1035D00071FA0390FFE743F60000C4F202000068AE
:1035E00000F000710020B0EB516F0CD0FFE7FFF747
:1035F00061FA0399401A032804D3FFE703208DF8EA
:103600001700BAE0E7E70499C869D1F820C04B6A0F
:103610008A6A40EA0C0040EA8310D2034FF6FF7337
:103620009A43A2F580321043CA6A40EA0260096BED
:1036300040EA017043F60401C4F20201086060210F
:10364000C4F2472101200860FFF734FA0390FFE736
:1036500043F60000C4F20200006800F00071002090
:10366000B0EB516F0CD1FFE7FFF724FA0399401A32
:10367000032804D3FFE703208DF817007DE0E7E778
:1036800021E06021C4F2472100200860FFF712FA10
:103690000390FFE743F60000C4F20200006800F068
:1036A00000710020B0EB516F0CD0FFE7FFF702FA7A
:1036B0000399401A032804D3FFE703208DF817006D
:1036C0005BE0E7E7FFE753E004988069012804D155
:1036D000FFE701208DF817004FE043F60400C4F225
:1036E0000200006802900498806901283AD0FFE740
:1036F000029800F480000499C969884232D1FFE73A
:10370000029800F03F000499096A88422AD1FFE735
:10371000029847F6C07108400499496AB0EB811FCE
:1037200020D1FFE7029800F440300499896AC90368
:103730004FF6FF729143A1F58031884212D1FFE725
:10374000029800F070600499C96AB0EB016F09D16A
:10375000FFE7029800F0E0400499096BB0EB017FAD
:1037600004D0FFE701208DF8170006E0FFE7FFE730
:10377000FFE700208DF81700FFE79DF8170006B05F
:1037800080BD000081B0009001B0704780B588B066
:10379000079007980068406806900798006880685E
:1037A00005909DF8140000F040010020B0EB911F3F
:1037B00011D1FFE70598C00768B1FFE79DF8180031
:1037C00000F040010020B0EB911F04D0FFE7079804
:1037D000016C8847F0E09DF8140000F00201002021
:1037E000B0EB510F0BD0FFE79DF818100020B0EBA5
:1037F000D11F04D0FFE70798416C8847DCE09DF8B3
:10380000140000F020010020B0EB511F10D1FFE7A1
:103810009DF8140000F040010020B0EB911F07D18B
:10382000FFE79DF81500C007002800F0C580FFE7FE
:103830009DF8180000F020010020B0EB511F00F0AF
:10384000BB80FFE79DF8140000F040010020B0EBC2
:10385000911F28D0FFE7079890F85100032813D054
:10386000FFE70799486D40F004004865FFE7002036
:10387000049007980068C068049007980068806802
:1038800004900498FFE70DE0FFE7002003900798FD
:103890000068C068039007980068806803900398E8
:1038A000FFE789E0FFE79DF8140000F02001002009
:1038B000B0EB511F15D0FFE70799486D40F00100AC
:1038C0004865FFE700200290079800688068029032
:1038D00007980168086820F0400008600298FFE738
:1038E000FFE79DF81500C00778B1FFE70799486D1D
:1038F00040F008004865FFE7002001900798006845
:10390000806801900198FFE7FFE70798406D002865
:1039100051D0FFE707980168486820F0E000486050
:103920000799012081F85100069800F00200022852
:1039300005D0FFE79DF81800C007B8B3FFE7079868
:103940000168486820F0030048600798C06CA0B187
:10395000FFE70798C16C46F27540C0F600000865A5
:103960000798C06CFEF72AFB30B1FFE70799486D56
:1039700040F040004865FFE7FFE70798806CA0B182
:10398000FFE70798816C46F27540C0F600000865B5
:103990000798806CFEF712FB30B1FFE70799486D7E
:1039A00040F040004865FFE7FFE703E00798FFF7B6
:1039B000E9FEFFE7FFE7FFE708B080BD80B584B010
:1039C0000290029820B9FFE701208DF80F0071E006
:1039D0000298406A60B9FFE702984068B0F5827FBC
:1039E00001D1FFE703E002990020C861FFE705E08D
:1039F00002990020086102994861FFE702990020BE
:103A00008862029890F8510040B9FFE702990020BF
:103A100081F85000029800F051F8FFE70299022067
:103A200081F8510002980168086820F040000860A1
:103A3000029A019211685068D2F808C0D36800F465
:103A400082700CF4044C604403F40063184413695E
:103A500003F002031844536903F001031844936907
:103A600003F400731844D36903F038031844136A4D
:103A700003F080031843926A02F400521043086076
:103A8000029A508B00F004001168526A02F0100292
:103A90001044486002980168C86920F40060C86159
:103AA000029900204865029A012182F851108DF890
:103AB0000F00FFE79DF80F0004B080BD80B58CB00B
:103AC0000B9000200A9009900890079006900B98A0
:103AD000006843F20001C4F20101884267D1FFE7A8
:103AE000FFE70020059043F64400C4F2020001689D
:103AF00041F480510160006800F480500590059801
:103B0000FFE7FFE70020049043F63000C4F2020014
:103B1000016841F001010160006800F001000490BB
:103B20000498FFE7E0200690022007900020029012
:103B300008900320099005200A900020C4F202009A
:103B400006A9FEF7B9FD029940F2A830C2F20000C2
:103B5000039046F25842C4F2020202604FF0C06283
:103B6000426040228260C1604FF480620261416124
:103B70008161C16101624162FEF7DAFB18B1FFE7C2
:103B8000FDF796FFFFE7FFE70B9840F2A831C2F27E
:103B9000000181640B988863FFE7232001900022D5
:103BA0001146FFF725F80198FFF718F8FFE70CB06A
:103BB00080BD000080B588B006900591ADF8122058
:103BC000039300208DF80700FFE7069890F8500057
:103BD000012804D1FFE702208DF81F0028E1069993
:103BE000012081F85000FFE7FFE7FEF763FF029036
:103BF000BDF81200ADF80400069890F851000128B5
:103C000004D0FFE702208DF8070002E1059820B1FB
:103C1000FFE7BDF8120020B9FFE701208DF807008B
:103C2000F7E00699032081F85100069900204865C5
:103C30000599069A1163BDF81210069A9186BDF88F
:103C40001210069AD1860699886306998887069984
:103C5000C887069948640699086406988068B0F594
:103C6000004F0DD1FFE706980168086820F040007A
:103C7000086006980168086840F480400860FFE723
:103C800006980068006800F04000402807D0FFE771
:103C900006980168086840F040000860FFE7069851
:103CA000C068B0F5006F47D1FFE70698406828B1BB
:103CB000FFE7BDF8040001280ED1FFE70698016870
:103CC000006B0088C8600699086B0230086306998B
:103CD000C88E0138C886FFE7FFE70698C08E50B34C
:103CE000FFE7069800688068800700280ED5FFE788
:103CF00006980168006B0088C8600699086B02305E
:103D000008630699C88E0138C88613E0FEF7D2FE14
:103D10000299401A0399884204D3FFE703980130BF
:103D200018B9FFE7039820B9FFE703208DF80700D3
:103D30006FE0FFE7D1E746E00698406828B1FFE76B
:103D4000BDF8040001280ED1FFE706980168006B5A
:103D5000007808730699086B013008630699C88ECD
:103D60000138C886FFE7FFE70698C08E50B3FFE72B
:103D7000069800688068800700280ED5FFE706983F
:103D80000168006B007808730699086B01300863BE
:103D90000699C88E0138C88613E0FEF78BFE02999B
:103DA000401A0399884204D3FFE70398013018B9F9
:103DB000FFE7039820B9FFE703208DF8070028E00C
:103DC000FFE7D1E7FFE706980399029A02F0DCFBD0
:103DD00020B1FFE7069920204865FFE70698806834
:103DE00070B9FFE7FFE70020009006980068C06800
:103DF000009006980068806800900098FFE7FFE751
:103E00000698406D20B1FFE701208DF80700FFE71D
:103E1000FFE70699012081F85100FFE7069900208D
:103E200081F85000FFE79DF807008DF81F00FFE7BD
:103E30009DF81F0008B080BD80B584B0029001914C
:103E4000ADF8022000208DF80100FFE7029890F8FD
:103E50005000012804D1FFE702208DF80F009FE0F9
:103E60000299012081F85000FFE7FFE7029890F8DF
:103E70005100012804D0FFE702208DF8010084E002
:103E8000019820B1FFE7BDF8020020B9FFE701204B
:103E90008DF8010079E00299032081F85100029920
:103EA000002048650199029A1163BDF80210029A38
:103EB0009186BDF80210029AD18602998863029910
:103EC000486402990864029988870299C887029811
:103ED0008068B0F5004F0DD1FFE7029801680868CF
:103EE00020F04000086002980168086840F48040B3
:103EF0000860FFE70298816C46F2C940C0F60000F6
:103F000008640298816C46F2E140C0F60000C86384
:103F10000298816C46F29540C0F60000C864029891
:103F2000816C00200865029B1A68196B986C0C3232
:103F3000DB8EFEF7B5FA60B1FFE70299486D40F0FD
:103F40001000486501208DF80100029981F85100A8
:103F50001BE002980068006800F04000402807D08D
:103F6000FFE702980168086840F040000860FFE73A
:103F700002980168486840F0200048600298016893
:103F8000486840F002004860FFE7FFE70299002020
:103F900081F85000FFE79DF801008DF80F00FFE762
:103FA0009DF80F0004B080BD81B0009001B0704753
:103FB00081B0009001B0704740F21831C2F20001A8
:103FC00008680130086044F64450C2F200000168FD
:103FD0000131016090ED000AB8EEC00A40F23C20C9
:103FE000C2F2000090ED001AB4EE410AF1EE10FAB0
:103FF0000DDBFFE740F24021C2F200010120086022
:1040000044F64451C2F2000100200860FFE7704707
:1040100080B582B00190019802F0A0FB02B080BD93
:1040200080B5FFF7C9FF80BD81B0009001B0704737
:1040300081B0009001B0704785B003900291FFE716
:10404000039890F83C00012804D1FFE702208DF886
:1040500013007EE00399012081F83C00FFE7FFE7B1
:104060000399022081F83D000398006840680190A0
:104070000398006880680090019820F0700001901B
:104080000298016801980843019001980399096812
:104090004860039800680021C4F2010188423CD0C6
:1040A000FFE703980068B0F1804F36D0FFE7039830
:1040B000006840F20041C4F2000188422DD0FFE7C1
:1040C0000398006840F60001C4F20001884224D041
:1040D000FFE70398006840F60041C4F200018842FF
:1040E0001BD0FFE70398006840F20041C4F20101D1
:1040F000884212D0FFE70398006844F20001C4F23E
:104100000101884209D0FFE70398006841F60001E9
:10411000C4F2000188420ED1FFE7009820F0800031
:104120000090029841680098084300900098039915
:1041300009688860FFE70399012081F83D00FFE7E7
:104140000399002081F83C00FFE700208DF8130060
:10415000FFE79DF8130005B07047000080B582B0FE
:104160000090009820B9FFE701208DF807003FE09C
:10417000009890F83D0040B9FFE70099002081F8D1
:104180003C00009800F038F8FFE70099022081F821
:104190003D00009951F8040B02F07EFB00990120CC
:1041A00081F84600FFE70099012081F83E00009960
:1041B00081F83F00009981F84000009981F84100A2
:1041C000FFE7FFE70099012081F84200009981F89C
:1041D0004300009981F84400009981F84500FFE709
:1041E0000099012081F83D0000208DF80700FFE7CD
:1041F0009DF8070002B080BD80B58EB00D90002004
:104200000C900B900A90099008900D98006800217E
:10421000C4F20101884212D1FFE7FFE700200790B6
:1042200043F64400C4F20200016841F0010101605C
:10423000006800F0010007900798FFE797E00D98ED
:104240000068B0F1804F3DD1FFE7FFE70020069006
:1042500043F64000C4F20200016841F00101016030
:10426000006800F0010006900698FFE7FFE70020D5
:10427000059043F63000C4F20200016841F00201EB
:104280000160006800F0020005900598FFE7042037
:10429000089002200990002000900A900B900120C5
:1042A0000C9040F20040C4F2020008A9FEF704FAA4
:1042B000009A1C2001901146FEF79AFC0198FEF727
:1042C0008DFC53E00D98006840F60001C4F2000137
:1042D000884212D1FFE7FFE70020049043F6400038
:1042E000C4F20200016841F004010160006800F0BE
:1042F000040004900498FFE737E00D98006840F64A
:104300000041C4F20001884212D1FFE7FFE700201C
:10431000039043F64000C4F20200016841F0080136
:104320000160006800F0080003900398FFE71BE0BD
:104330000D98006841F60001C4F20001884212D1D4
:10434000FFE7FFE70020029043F64000C4F20200BE
:10435000016841F040010160006800F040000290F7
:104360000298FFE7FFE7FFE7FFE7FFE7FFE70EB091
:1043700080BD000083B00190019890F83D000128B5
:1043800004D0FFE701208DF80B0064E001990220C2
:1043900081F83D00019800680021C4F201018842C3
:1043A0003CD0FFE701980068B0F1804F36D0FFE7BE
:1043B0000198006840F20041C4F2000188422DD00B
:1043C000FFE70198006840F60001C4F2000188424E
:1043D00024D0FFE70198006840F60041C4F20001D4
:1043E00088421BD0FFE70198006840F20041C4F208
:1043F0000101884212D0FFE70198006844F20001F1
:10440000C4F20101884209D0FFE70198006841F633
:104410000001C4F20001884212D1FFE70198006850
:10442000806800F0070000900098062807D0FFE79A
:1044300001980168086840F001000860FFE706E0A5
:1044400001980168086840F001000860FFE700205B
:104450008DF80B00FFE79DF80B0003B070470000DC
:1044600083B00190019890F83D00012804D0FFE747
:1044700001208DF80B006AE00199022081F83D00CF
:1044800001980168C86840F00100C86001980068A0
:104490000021C4F2010188423CD0FFE70198006886
:1044A000B0F1804F36D0FFE70198006840F200413C
:1044B000C4F2000188422DD0FFE70198006840F661
:1044C0000001C4F20001884224D0FFE7019800688F
:1044D00040F60041C4F2000188421BD0FFE701987A
:1044E000006840F20041C4F20101884212D0FFE7A7
:1044F0000198006844F20001C4F20101884209D029
:10450000FFE70198006841F60001C4F2000188420B
:1045100012D1FFE701980068806800F00700009062
:104520000098062807D0FFE701980168086840F066
:1045300001000860FFE706E001980168086840F0A4
:1045400001000860FFE700208DF80B00FFE79DF8F1
:104550000B0003B07047000080B586B00490039153
:1045600000208DF80B00FFE7049890F83C0001282C
:1045700004D1FFE702208DF81700ABE00499012079
:1045800081F83C00FFE7FFE70499022081F83D0035
:104590000498006880680190019820F077000190ED
:1045A000019820F47F40019001980499096888607F
:1045B000039800680090002872D0FFE70098102848
:1045C0006ED0FFE7009820286AD0FFE700983028D7
:1045D00066D0FFE70098402855D0FFE700985028A4
:1045E00037D0FFE70098602840D0FFE70098702898
:1045F0000BD0FFE70098B0F5805F05D0FFE700988B
:10460000B0F5005F16D052E055E004980068039BB7
:104610005A689968DB6802F029FA04980068806893
:104620000190019840F07700019001980499096881
:10463000886040E004980068039B5A689968DB68CA
:1046400002F014FA04980168886840F48040886099
:1046500031E004980068039A5168D26802F0F2FBD6
:1046600004980068502102F01BFA24E004980068C6
:10467000039A5168D26802F099FC0498006860219E
:1046800002F00EFA17E004980068039A5168D268A5
:1046900002F0D8FB04980068402102F001FA0AE019
:1046A000049800680399096802F0FAF903E0012010
:1046B0008DF80B00FFE70499012081F83D00FFE72A
:1046C0000499002081F83C00FFE79DF80B008DF86D
:1046D0001700FFE79DF8170006B080BD000000003E
:1046E00080B582B001900198007F082872D1FFE761
:1046F00040F20C30C2F200000068A0B9FFE7402091
:10470000C4F2000090ED000AB8EE400A44F64C50A6
:10471000C2F2000080ED000A40F20C31C2F200014A
:104720000120086055E04020C4F2000090ED000A2E
:10473000B8EE400A44F65050C2F2000080ED000A84
:1047400090ED000A44F64C50C2F2000090ED001AC1
:1047500030EE410A10EE100A06F002FF41EC100B99
:1047600051EC100B9FED1C0B52EC103BD20F62F37F
:10477000DF7141EC100B51EC100B9FED190B53EC5A
:10478000102B06F013FB41EC100B51EC100B06F054
:1047900033FA014640F20830C2F20000016040F2F4
:1047A0000C32C2F200020021116090ED000A03F009
:1047B000B1FB014640F2B820C2F20000016000687F
:1047C00003F09AFB40F21030C2F2000080ED000AC4
:1047D000FFE7FFE702B080BD00000000000000001E
:1047E000295C8FC2F5684D4080B586B00490039176
:1047F000029200208DF80700FFE7049890F83C0033
:10480000012804D1FFE702208DF8170080E0049909
:10481000012081F83C00FFE7FFE70298B0B9FFE70D
:1048200004980068039B19685A68DB6802F032FB41
:1048300004980168886920F00C00886103988268F8
:104840000498016888691043886156E0029804283A
:1048500017D1FFE704980068039B19685A68DB6862
:1048600002F0CEFB04980168886920F440608861FA
:104870000398826804980168886940EA0220886188
:104880003AE00298082816D1FFE704980068039BD5
:1048900019685A68DB6802F0E9FB04980168C86986
:1048A00020F00C00C8610398826804980168C86908
:1048B0001043C8611FE002980C2817D1FFE7049845
:1048C0000068039B19685A68DB6802F005FC0498CD
:1048D0000168C86920F44060C86103988268049840
:1048E0000168C86940EA0220C86103E001208DF830
:1048F0000700FFE7FFE7FFE7FFE7FFE70499002076
:1049000081F83C00FFE79DF807008DF81700FFE7EE
:104910009DF8170006B080BD80B582B00090009869
:1049200020B9FFE701208DF807003FE0009890F8DC
:104930003D0040B9FFE70099002081F83C00009855
:1049400000F038F8FFE70099022081F83D00009957
:1049500051F8040B01F0A0FF0099012081F84600F6
:10496000FFE70099012081F83E00009981F83F009F
:10497000009981F84000009981F84100FFE7FFE7C6
:104980000099012081F84200009981F843000099C4
:1049900081F84400009981F84500FFE70099012063
:1049A00081F83D0000208DF80700FFE79DF8070023
:1049B00002B080BD81B0009001B0704780B592B068
:1049C00010900F9100208DF83B000F9828B9FFE759
:1049D000109890F83E000B901CE00F98042805D129
:1049E000FFE7109890F83F000A9010E00F98082811
:1049F00005D1FFE7109890F84000099004E0109866
:104A000090F841000990FFE709980A90FFE70A989B
:104A10000B90FFE70B988DF833000F9828B9FFE74C
:104A2000109890F8420008901CE00F98042805D1D7
:104A3000FFE7109890F84300079010E00F980828BF
:104A400005D1FFE7109890F84400069004E0109814
:104A500090F845000690FFE706980790FFE7079853
:104A60000890FFE708988DF832009DF83300012880
:104A700005D1FFE79DF83200012804D0FFE70120AF
:104A80008DF84700E9E00F9828B9FFE71099022058
:104A900081F83E001EE00F98042806D1FFE7109928
:104AA000022081F83F00059012E00F98082806D1F7
:104AB000FFE71099022081F84000049005E010996A
:104AC000022081F841000490FFE704980590FFE779
:104AD0000598FFE70F9828B9FFE71099022081F8A1
:104AE00042001EE00F98042806D1FFE7109902202B
:104AF00081F84300039012E00F98082806D1FFE7E1
:104B00001099022081F84400029005E010990220DB
:104B100081F845000290FFE702980390FFE70398B1
:104B2000FFE70F9801900C2825D80199DFE801F0E4
:104B3000072323230E232323152323231C0010984C
:104B40000168C86840F00200C86018E01098016869
:104B5000C86840F00400C86011E010980168C86897
:104B600040F00800C8600AE010980168C86840F08A
:104B70001000C86003E001208DF83B00FFE79DF8BE
:104B80003B00002864D1FFE7109800680F990122CC
:104B900001F050FF109800680021C4F20101884222
:104BA0003CD0FFE710980068B0F1804F36D0FFE7A7
:104BB0001098006840F20041C4F2000188422DD0F4
:104BC000FFE71098006840F60001C4F20001884237
:104BD00024D0FFE71098006840F60041C4F20001BD
:104BE00088421BD0FFE71098006840F20041C4F2F1
:104BF0000101884212D0FFE71098006844F20001DA
:104C0000C4F20101884209D0FFE71098006841F61C
:104C10000001C4F20001884212D1FFE71098006839
:104C2000806800F007000D900D98062807D0FFE778
:104C300010980168086840F001000860FFE706E08E
:104C400010980168086840F001000860FFE7FFE77E
:104C50009DF83B008DF84700FFE79DF8470012B034
:104C600080BD000080B582B00190019800680069A5
:104C700000F002010020B0EB510F28D0FFE70198AF
:104C80000068C06800F002010020B0EB510F1DD099
:104C9000FFE7019801686FF00200086101990120A7
:104CA0000877019800688069800720B1FFE70198C4
:104CB000FFF716FD06E0019800F070F9019800F08A
:104CC00065FAFFE7019900200877FFE7FFE7019801
:104CD0000068006900F004010020B0EB910F29D0BA
:104CE000FFE701980068C06800F004010020B0EB05
:104CF000910F1ED0FFE7019801686FF00400086172
:104D000001990220087701980068806910F4407FBB
:104D100004D0FFE70198FFF7E3FC06E0019800F0FC
:104D20003DF9019800F032FAFFE701990020087779
:104D3000FFE7FFE701980068006900F00801002024
:104D4000B0EBD10F28D0FFE701980068C06800F0F1
:104D500008010020B0EBD10F1DD0FFE701980168DA
:104D60006FF0080008610199042008770198006835
:104D7000C069800720B1FFE70198FFF7B1FC06E0AA
:104D8000019800F00BF9019800F000FAFFE7019993
:104D900000200877FFE7FFE701980068006900F04E
:104DA00010010020B0EB111F29D0FFE70198006827
:104DB000C06800F010010020B0EB111F1ED0FFE70B
:104DC000019801686FF010000861019908200877C8
:104DD00001980068C06910F4407F04D0FFE7019893
:104DE000FFF77EFC06E0019800F0D8F8019800F08B
:104DF000CDF9FFE7019900200877FFE7FFE7019869
:104E000000680069C00780B1FFE701980068C068CA
:104E1000C00748B1FFE7019801686FF00100086121
:104E2000019800F021FBFFE7FFE7019800680069A7
:104E3000C1B20020B0EBD11F13D0FFE7019800688A
:104E4000C068C1B20020B0EBD11F09D0FFE70198C4
:104E500001686FF0800008610198FFF7E5F8FFE74F
:104E6000FFE701980068006900F040010020B0EB06
:104E7000911F14D0FFE701980068C06800F040015E
:104E80000020B0EB911F09D0FFE7019801686FF097
:104E900040000861019800F0EBFAFFE7FFE7019896
:104EA0000068006900F020010020B0EB511F14D011
:104EB000FFE701980068C06800F020010020B0EB17
:104EC000511F09D0FFE7019801686FF020000861C9
:104ED0000198FFF7ADF8FFE7FFE702B080BD0000E3
:104EE00080B588B00790002006900590049003904C
:104EF000029007980068B0F1804F22D1FFE7FFE7EA
:104F00000020019043F63000C4F20200016841F035
:104F100001010160006800F0010001900198FFE7C5
:104F20004FF400400290022003900020049005906E
:104F3000012006900020C4F2020002A9FDF7BCFB8C
:104F40002AE00798006840F60001C4F20001884298
:104F500021D1FFE7FFE70020009043F63000C4F2C4
:104F60000200016841F002010160006800F00200E7
:104F700000900098FFE7802002900220039000211B
:104F800004910591069040F20040C4F2020002A98B
:104F9000FDF792FBFFE7FFE708B080BD81B000900E
:104FA00001B0704780B586B0049003910292002052
:104FB0008DF80700FFE7049890F83C00012804D121
:104FC000FFE702208DF8170089E00499012081F89D
:104FD0003C00FFE7FFE7029800900C2800F2708089
:104FE0000099DFE801F0076D6D6D206D6D6D3A6D14
:104FF0006D6D530004980068039901F067FD0498F3
:105000000168886940F0080088610498016888692F
:1050100020F0040088610398026904980168886997
:105020001043886150E004980068039901F0C4FDC2
:1050300004980168886940F40060886104980168F8
:10504000886920F480608861039802690498016887
:10505000886940EA0220886136E004980068039974
:1050600001F024FE04980168C86940F00800C86196
:1050700004980168C86920F00400C86103980269B7
:1050800004980168C8691043C8611DE0049800686D
:10509000039901F085FE04980168C86940F4006036
:1050A000C86104980168C86920F48060C8610398E9
:1050B000026904980168C86940EA0220C86103E0F7
:1050C00001208DF80700FFE7FFE70499002081F831
:1050D0003C00FFE79DF807008DF81700FFE79DF8FB
:1050E000170006B080BD000080B582B00090009827
:1050F00020B9FFE701208DF807003FE0009890F805
:105100003D0040B9FFE70099002081F83C0000987D
:1051100000F038F8FFE70099022081F83D0000997F
:1051200051F8040B01F0B8FB0099012081F846000A
:10513000FFE70099012081F83E00009981F83F00C7
:10514000009981F84000009981F84100FFE7FFE7EE
:105150000099012081F84200009981F843000099EC
:1051600081F84400009981F84500FFE7009901208B
:1051700081F83D0000208DF80700FFE79DF807004B
:1051800002B080BD81B0009001B0704781B0009046
:1051900001B0704780B58CB00A900991099828B980
:1051A000FFE70A9890F83E0007901CE00998042851
:1051B00005D1FFE70A9890F83F00069010E00998A3
:1051C000082805D1FFE70A9890F84000059004E010
:1051D0000A9890F841000590FFE705980690FFE7D0
:1051E00006980790FFE70798012804D0FFE7012001
:1051F0008DF82F00AFE0099828B9FFE70A9902203F
:1052000081F83E001EE00998042806D1FFE70A99BC
:10521000022081F83F00049012E00998082806D186
:10522000FFE70A99022081F84000039005E00A99FF
:10523000022081F841000390FFE703980490FFE704
:105240000498FFE70A98006809990122019201F089
:10525000F1FB01980A9909680022C4F20102914207
:1052600002900CD0FFE70A9800684FF60041CBF699
:10527000FE710844B0FA80F040090290FFE70298FE
:10528000C00738B1FFE70A980168486C40F4004055
:105290004864FFE70A9800680021C4F201018842CF
:1052A0003CD0FFE70A980068B0F1804F36D0FFE7A6
:1052B0000A98006840F20041C4F2000188422DD0F3
:1052C000FFE70A98006840F60001C4F20001884236
:1052D00024D0FFE70A98006840F60041C4F20001BC
:1052E00088421BD0FFE70A98006840F20041C4F2F0
:1052F0000101884212D0FFE70A98006844F20001D9
:10530000C4F20101884209D0FFE70A98006841F61B
:105310000001C4F20001884212D1FFE70A98006838
:10532000806800F0070008900898062807D0FFE77B
:105330000A980168086840F001000860FFE706E08D
:105340000A980168086840F001000860FFE7002043
:105350008DF82F00FFE79DF82F000CB080BD0000F6
:1053600080B586B0059004910598006804990022E4
:1053700001F060FB0598016801200022C4F20102DF
:10538000914203900CD0FFE7059800684FF600416A
:10539000CBF6FE710844B0FA80F040090390FFE7B5
:1053A0000398C007D8B1FFE7FFE705980068006AD7
:1053B00041F21111084210D1FFE705980068006A18
:1053C00040F24441084207D1FFE705980168486C64
:1053D00020F400404864FFE7FFE7FFE7FFE7FFE74F
:1053E00005980068006A41F21111084210D1FFE7E8
:1053F00005980068006A40F24441084207D1FFE77F
:1054000005980168086820F001000860FFE7FFE7E1
:10541000FFE7049828B9FFE70599012081F83E00CD
:105420001EE00498042806D1FFE70599012081F8C1
:105430003F00029012E00498082806D1FFE7059982
:10544000012081F84000019005E00599012081F8D4
:1054500041000190FFE701980290FFE70298FFE703
:10546000002006B080BD000081B0009001B0704700
:1054700081B0009001B0704782B00190ADF8021089
:1054800002B0704781B0009001B0704780B592B013
:105490001190119800680068109011980068C06819
:1054A0000F901198006840690E9000200D900C90AC
:1054B000109800F00F000D900D9888B9FFE79DF847
:1054C0004000800600280AD5FFE79DF83C008006D2
:1054D000002804D5FFE7119801F04EFFE3E1FFE754
:1054E0000D98002800F0C280FFE79DF83800C00743
:1054F00038B9FFE7BDF83C0010F4907F00F0B680AB
:10550000FFE79DF84000C00758B1FFE79DF83D0058
:10551000C00730B1FFE71199086C40F00100086442
:10552000FFE79DF84000400700280BD5FFE79DF8F6
:105530003800C00730B1FFE71199086C40F0020055
:105540000864FFE79DF84000800700280BD5FFE7BF
:105550009DF83800C00730B1FFE71199086C40F0A2
:1055600004000864FFE79DF840000007002811D5FB
:10557000FFE79DF83C008006002805D4FFE79DF872
:105580003800C00730B1FFE71199086C40F00800FF
:105590000864FFE71198006C002866D0FFE79DF8CB
:1055A0004000800600280AD5FFE79DF83C008006F1
:1055B000002804D5FFE7119801F0DEFEFFE71198FF
:1055C00000684069C0F380100C901198006C0007CF
:1055D000002804D4FFE70C9800283ED0FFE711987C
:1055E00001F050FE119800684069400600282FD550
:1055F000FFE7FFE7FFE71198006850E8050F20F08C
:1056000040000B90FFE70B991198026842E80510E3
:105610000028F0D1FFE7FFE71198806B98B1FFE712
:105620001198816B47F25510C0F60000086511987B
:10563000806BFCF7C3FC28B1FFE71198806B016D0C
:105640008847FFE703E01198FFF71CFFFFE703E03F
:105650001198FFF717FFFFE706E01198FFF712FF19
:10566000119900200864FFE7FFE71CE11198006B27
:10567000012840F0F880FFE79DF84000C0060028B0
:1056800040F1F180FFE79DF83C00C006002840F1A2
:10569000EA80FFE7FFE700200A90119800680068A1
:1056A0000A901198006840680A900A98FFE71198DC
:1056B00000684069400600287ED5FFE71198806B9E
:1056C00000684068ADF82600BDF82600002872D0BA
:1056D000FFE7BDF826001199898D88426BDAFFE754
:1056E000BDF826001199C8851198806BC069B0F586
:1056F000807F58D0FFE7FFE7FFE71198006850E888
:10570000030F20F480700890FFE708991198026851
:1057100042E803100028F0D1FFE7FFE7FFE7FFE7CB
:105720001198006850E8050F20F001000790FFE78E
:1057300007991198026842E805100028F0D1FFE7A8
:10574000FFE7FFE7FFE71198006850E8050F20F03A
:1057500040000690FFE706991198026842E805109C
:105760000028F0D1FFE7FFE71199202081F83E00E3
:10577000119900200863FFE7FFE71198006850E8DF
:10578000030F20F010000590FFE7059911980268BB
:1057900042E803100028F0D1FFE7FFE71198806B83
:1057A000FCF796FBFFE71198818DC28D891A89B2AB
:1057B000FFF762FEFFE776E01199888DC98D401AE8
:1057C000ADF812001198C08D00284BD0FFE7BDF84E
:1057D0001200002846D0FFE7FFE7FFE711980068B6
:1057E00050E8030F20F490700390FFE7039911989D
:1057F000026842E803100028F0D1FFE7FFE7FFE767
:10580000FFE71198006850E8050F20F001000290B2
:10581000FFE702991198026842E805100028F0D1CC
:10582000FFE7FFE71199202081F83E001199002041
:105830000863FFE7FFE71198006850E8030F20F0C6
:1058400010000190FFE701991198026842E80310E7
:105850000028F0D1FFE7FFE71198BDF81210FFF71D
:105860000BFEFFE71FE09DF84000000600280AD568
:10587000FFE79DF83C000006002804D5FFE71198DB
:1058800001F002FF0FE09DF84000400600280AD515
:10589000FFE79DF83C004006002804D5FFE711987B
:1058A00001F03AFDFFE712B080BD000080B582B084
:1058B0000090009820B9FFE701208DF807003EE036
:1058C0000098806908B1FFE700E0FFE7009890F8D2
:1058D0003D0040B9FFE70099002081F83C000098A6
:1058E00000F032F8FFE70099242081F83D0000988D
:1058F0000168C86820F40050C860009801F0EEFD0F
:1059000000980168086920F49040086100980168D7
:10591000486920F02A00486100980168C86840F48E
:105920000050C860009900200864009A202182F885
:105930003D10009A82F83E108DF80700FFE79DF8B1
:10594000070002B080BD000080B592B01190002029
:1059500010900F900E900D900C901198006845F2E9
:105960000001C4F20001884240F09480FFE7FFE7A5
:1059700000200B9043F64000C4F20200016841F49D
:1059800080110160006800F480100B900B98FFE715
:10599000FFE700200A9043F63000C4F202000168DD
:1059A00041F004010160006800F004000A900A98C8
:1059B000FFE7FFE70020099043F63000C4F2020041
:1059C000016841F008010160006800F008000990DA
:1059D0000998FFE74FF480500C90022001900D9041
:1059E000002005900E90032002900F900820039055
:1059F000109040F60000C4F202000CA90491FCF7DC
:105A00005BFEDDF804C0029A03980499059B4FF0F1
:105A1000040ECDF830E0CDF834C00E930F92109004
:105A200040F60040C4F20200FCF746FE059940F241
:105A30000840C2F20000069046F2B802C4F2020228
:105A400002604FF00062426040228260C1604FF409
:105A50008062026141618161C16101624162FCF762
:105A600067FC18B1FFE7FCF723F8FFE7FFE71198A1
:105A700040F20841C2F20001416311988863FFE7D8
:105A80003520009000221146FDF7B2F80098FDF78E
:105A9000A5F83CE01198006844F20041C4F200010E
:105AA000884233D1FFE7FFE70020089043F640002B
:105AB000C4F20200016841F400310160006800F4A2
:105AC000003008900898FFE7FFE70020079043F6B2
:105AD0003000C4F20200016841F001010160006879
