:020000040800F2
:10000000281D0020590300085D4C0008994700088E
:10001000594C000805180008315B0008000000007A
:10002000000000000000000000000000C54F0008B4
:10003000C119000800000000CD4C00081D50000848
:1000400073030008730300087303000873030008B8
:1000500073030008730300087303000873030008A8
:10006000C519000873030008730300087303000830
:100070007303000873030008730300087303000888
:100080007303000873030008730300087303000878
:100090007303000873030008730300087303000868
:1000A0007303000873030008730300087303000858
:1000B0007303000873030008730300087303000848
:1000C000730300087303000873030008D14C000891
:1000D0007303000873030008730300087303000828
:1000E0007303000873030008730300087303000818
:1000F000730300087303000873030008091800085D
:1001000073030008730300087303000873030008F7
:1001100073030008730300087303000873030008E7
:10012000730300087303000873030008191800081C
:1001300073030008000000000000000073030008C3
:1001400073030008730300087303000873030008B7
:1001500073030008730300087303000873030008A7
:100160007303000873030008730300087303000897
:100170007303000873030008730300080000000005
:1001800000000000730300080000000000000000F1
:100190007303000800000000000000007303000863
:1001A00000000000000000000000000073030008D1
:1001B0007303000873030008730300087303000847
:1001C0007303000800F002F800F0B6F80AA090E807
:1001D000000C82448344AAF10107DA4501D100F002
:1001E000ABF8AFF2090EBAE80F0013F0010F18BF19
:1001F000FB1A43F001031847909E0000B09E0000D8
:100200000A444FF0000C10F8013B13F0070408BF3C
:1002100010F8014B1D1108BF10F8015B641E05D0DA
:1002200010F8016B641E01F8016BF9D113F0080F8F
:100230001EBF10F8014BAD1C0C1B09D16D1E58BF21
:1002400001F801CBFAD505E014F8016B01F8016B58
:100250006D1EF9D59142D6D37047000000230024CB
:1002600000250026103A28BF78C1FBD8520728BFC6
:1002700030C148BF0B6070476E2900F08D82702935
:1002800000F0CF83662907F00686652907F003860C
:10029000672907F00086612907F0FF8503681B0ABC
:1002A00028BF41F08001692900F03A82642900F0FA
:1002B0003782752900F034826F2900F05D83782938
:1002C00000F09B83E92900F0F782E42900F0F48232
:1002D000F52900F0F182EF2900F05A83F82900F0A7
:1002E0009A830368DB0928BF41F08001632901F08C
:1002F000B980732901F0BE80E32901F0C980F32998
:1003000001F0CE80002070471FB507F0B7FD9DE8D3
:10031000030000F045F901F021F90400002000215C
:1003200007F096FD401C60600020002107F07AFD78
:10033000E0601FBD10B510BD01F0E2F81146FFF7F7
:10034000E3FF07F05DF801F0BFF903B4FFF7F2FF38
:1003500003BC01F0EFF90000094880470948004755
:10036000FEE7FEE7FEE7FEE7FEE7FEE7FEE7FEE765
:10037000FEE7FEE704480549054A064B70470000C2
:10038000E1500008C501000828170020281D0020A2
:10039000281900202819002070B5064600F0E4F85E
:1003A000056806F10B0020F00704B4429CBF002052
:1003B00070BD2B466A68BAB11068A04210D304F130
:1003C000080188423CBF5068586007D35168101933
:1003D00041601168091B016058601460101D70BDF8
:1003E00013465268002AE7D12146284600F0C4F897
:1003F0000028DED170BD53EA020C00F069802DE9BF
:10040000F04B4FF00006002B1FBFB3FA83F503FA41
:1004100005F424FA05F65E4012BF1643B2FA82F5DF
:1004200002FA05F4C5F120051EBF22FA05FC44EAD4
:100430000C04203556EA044C4FEA144418BF641CDF
:100440004FF000084FF00009904271EB030C39D3D4
:10045000002919BFB1FA81F701FA07F6B0FA80F75F
:1004600000FA07F6C7F120071EBF20FA07FC46EA8C
:100470000C062037B6FBF4FCA7EB0507103F07F08E
:100480001F0BCBF120062CFA06F60CFA0BFB44BF2F
:10049000B3460026202FA4BF5E464FF0000B5BEA58
:1004A000060C08BF4FF0010B19EB0B0948EB0608CF
:1004B000ABFB027C06FB02CC0BFB03CCC01B71EB3D
:1004C0000C01C1E70B46024641464846BDE8F08BA9
:1004D00013B5084318BF4FF0FF300146AFF300805B
:1004E000BDE81C40704700000FB41CB5084B06AABD
:1004F0007B4469460090059800F067F904460020A7
:10050000694600F075F920461CBC5DF814FB00003C
:10051000FD0200004FF0000200B5134694469646D7
:10052000203922BFA0E80C50A0E80C50B1F1200106
:10053000BFF4F7AF090728BFA0E80C5048BF0CC0B4
:100540005DF804EB890028BF40F8042B08BF704712
:1005500048BF20F8022B11F0804F18BF00F8012B84
:10056000704770477047704700487047100400207C
:10057000704770477047704738B504460A460020F8
:100580006946AFF30080002808BF38BD02460099D5
:10059000204600F019FB012038BD012000F0A8BF63
:1005A000F8B5AFF30080054600200C46102000BFD0
:1005B0000646A819A0420DD9324669460020AFF37D
:1005C0000080070008BF00F093FF0098A04218BF0A
:1005D0000546C419FFF7C8FF05600746F01D20F067
:1005E00007004619284600F00AF8B44208BFF8BDD3
:1005F000A21B31463868BDE8F84000F0E5BA00219A
:100600000160C0E9011070471020704770B50446C2
:10061000051FFFF7A9FF0068002C14BF446870BDD8
:10062000002C18BFAC423CBF20466468F8D3016878
:100630000A18AA4218BF456003D12A68054611442A
:10064000016028684119A1421CBF6C6070BD6168DF
:10065000696021680844286070BD70B504468569EA
:100660000068C10601D5302600E02026C00707D06B
:1006700070BDD4E9012130469047206A401C2062B9
:100680006D1EF6D570BD70B5044685690078C0074B
:1006900007D170BDD4E9012120209047206A401C79
:1006A00020626D1EF6D570BD09684A0501D540B2BD
:1006B0007047C905FCD500B2704709684A0501D5E5
:1006C000C0B27047C905FCD580B2704770B50C4602
:1006D0000546012A05D02878800600D5EA6900235E
:1006E00002E0012305E05B1C934202D2E05C00289B
:1006F000F9D1A869E618C01AA861286A18442862C6
:100700002846FFF7AAFF04E0D5E9012114F8010B00
:100710009047B442F8D32846FFF7B5FF70BD0000FC
:100720002DE9F0410646002410687529314616A5CA
:1007300010D0FFF7B9FF002802DA404213A507E006
:1007400031688A0701D512A502E0490704D511A531
:10075000012401E0FFF7B1FF00210A2206F124077E
:1007600009E0B0FBF2FCB0FBF2F302FB1C003030FE
:1007700078541846491C0028F3D123462A463046AF
:10078000BDE8F04100F07FBA000000002D0000003D
:100790002B0000002000000011680268006A530569
:1007A00001D508700AE0D30501D5088006E01306DC
:1007B00003D5C217C1E9000200E0086001207047BC
:1007C00001694A1C02610878704700B58FB0CDE915
:1007D00001310021059105497944CDE90310114605
:1007E000684600F029F90FB000BD0000E5FFFFFFEB
:1007F0000A6802F8010B0A60704700002DE9FF5FEC
:1008000015468A460446DFF8AC80F8440027D8E94C
:1008100000103E46CDE9001010E03AF816106A4686
:1008200002A800F041FE411C07D02178890603D5BB
:10083000E269391891420DD80744761C2078800669
:1008400002D5E069B84205DDAE42E6DB3AF81600B3
:100850000028E2D1A069C01BA0612046FFF7FDFE81
:10086000D8E90010CDE90010002017E03AF8181080
:100870006A4602A800F018FEB0F1FF3F81460BD097
:1008800000250DF1080B05E0D4E901211BF8050056
:1008900090476D1C4D45F7D308F10100B0428046EA
:1008A000E4DB206A384420622046FFF7ECFEBDE816
:1008B000FF9F0000927600002DE9F0418046D21D96
:1008C00022F007020025D2E90002F52915A614D06E
:1008D000011E72F1000106DA0023D0EB030063EB86
:1008E000020211A608E0D8F800108B0701D50FA668
:1008F00002E0490701D50EA601251146002408F1A2
:10090000240704E000F07AF930323A55641C50EACA
:100910000102F7D12B46324621464046BDE8F04160
:1009200000F0B1B9000000002D0000002B00000015
:100930002000000030B4002100F1240408E002F09F
:100940000705D208303542EA4372DB086554491C7A
:1009500052EA0305F3D10468002310A2250708D545
:1009600004F020040C4304D0C46901230CA2641ECB
:10097000C46130BC00F087B910B504462146106848
:10098000FFF79BFE02462046BDE810400023D1E75A
:10099000D21D22F00701D1E90023CBE700000000BF
:1009A00030000000F0B40D460188090502D5214C45
:1009B0007C4402E01F4C7C440E34002100F12406EC
:1009C00008E002F00F071209E75D42EA03721B0913
:1009D0007754491C52EA0307F3D102780023120727
:1009E00004D5702D06D009B1022311342246F0BC83
:1009F00000F049B901231034F8E770B504460D46FC
:100A000021461068FFF759FE024629462046BDE8F8
:100A100070400023C6E7D21D22F00703D3E900236C
:100A2000C0E70368126843F0200303600823C36132
:100A30000023B7E7F47400002DE9F05F894604460F
:100A40004FF0000ADFF874B1FB44C0F820A0204644
:100A5000E1688847002874D0252806D0D4E9012110
:100A60009047206A401C2062F1E700265F4620463E
:100A7000E16888472028054607DB312D05D2781923
:100A800010F8200C08B10643F1E7B00701D526F0B5
:100A90000406C4F81CA00027C4F818A02A2D09D009
:100AA000284607F0B7F938B304EB8708303DC8F89B
:100AB000185019E059F8041B204604EB8702916195
:100AC000E1688847012F054618D1E069002820DA3F
:100AD00026F020061DE0D8F8180000EB800005EB9A
:100AE00040003038C8F818002046E16888470546BD
:100AF00007F090F90028EED1012F0AD02E2D08D151
:100B00002046E16888477F1C0546022F46F02006F4
:100B1000C4DBA069002803DA404246F00106A06168
:100B2000F00701D026F010066C2D0BD0682D09D0EF
:100B30004C2D39D06A2D35D0742D35D07A2D33D047
:100B400016E038E0E1682F4620468847B84205465F
:100B500009D16C2F26D04FF48060E168064320460F
:100B60008847054604E06C2F1AD04FF48070064386
:100B70000DB3A5F14100192802D8203546F40066CE
:100B80004A462946204626604E46FFF775FB80B14F
:100B900001280BD0F61D26F0070000F1080956E7E2
:100BA0004020E4E78020D8E70020D6E706F10409DA
:100BB0004DE7284652E7206ABDE8F09F84740000A4
:100BC0000048704708040020034640688C4600280F
:100BD00018BF88423CBF03464068F8D318681844E1
:100BE000884207D00CF1030020F00700001D411AD5
:100BF000521A0146081D0A60FFF708BD30B5B0F172
:100C00000A0271F100034FEA900E4EEA817EB0EBCA
:100C10000E0061EB91014FEA101E4EEA017E10EBCF
:100C20000E0041EB11114FEA102E4EEA016E10EB4F
:100C30000E0041EB11214FEA104E4EEA014E10EB2F
:100C40000E0041EB1141401841F100014FEAD00084
:100C500040EA41704FEAD1014FEA810444EA9074BE
:100C600010EB800544EB01046D1944EB0404521BA6
:100C7000A3414FF0000348BF0A3200D530BD401CED
:100C800041F1000130BD2DE9F0470D4699469246ED
:100C9000044600F124080168880604D5E06921F0C3
:100CA0001001216000E00120A84201DD471B00E0A7
:100CB0000027A1697A1902EB0900081AA0612078BF
:100CC000C00602D42046FFF7C8FC002608E0D4E99D
:100CD00001211AF806009047206A401C761C206209
:100CE0004E45F4DB2078C0060AD52046FFF7B5FC58
:100CF00006E0D4E9012130209047206A401C2062A0
:100D0000381EA7F10107F4DC07E0D4E9012118F847
:100D100005009047206A401C2062281EA5F10105AD
:100D2000F3DC2046FFF7AFFC2078000602D5022056
:100D3000BDE8F0870120FBE72DE9FF4F0C461E467A
:100D40004FF0FF378BB0D2E90001DDF860800A90E8
:100D50008A46C1F30A5505B93D46002108464FF0C1
:100D60000000BAF1000F00F4400005DA00EB80004B
:100D70004FF4400101EA50004FEA9059B9F1010FD8
:100D800000DDB9460A9850EA4A000ED044F61050E9
:100D9000A5F2FF3545432F14B8F1000F1ED0754260
:100DA000291E1EDDC9F100021CE0B8F1010F4FF051
:100DB000000001D0302103E0F24305E02154401C43
:100DC000B042FBDB30460022002121540B99C1F8D0
:100DD0000880C1E900200FB0BDE8F08FBD1B6D1C7D
:100DE000DEE74A4600DA694206A800F0FBFB06ABE4
:100DF00093E8070003AB83E8070050460A9906F022
:100E000028FC8DE80700A0F500501F3800900398DB
:100E1000002D0ADD42F21F014A460844002303A9BF
:100E20000390684606F092FE09E0A0F500504A469D
:100E30001F38002303A90390684606F09CFE8DE846
:100E400007000004000C03D04FF0FF30410800E021
:100E50001046B8F1000F03D00022009215461EE0A4
:100E6000751E05D4FFF7CAFE303262556D1EF9D5E6
:100E7000B3460122084302D000227F1C04E0207800
:100E8000302801D100227F1E002A099784D01DE05E
:100E9000112D07DAFFF7B2FE303262556D1C50EAB1
:100EA0000102F5D1084302D00098C8B10EE000213C
:100EB000681E05E0235C625C63542254401E491C9A
:100EC0008142F7DBAB46A81B401E0990002004F8C6
:100ED0000B000B98099AC0F80880C0E9002B7AE74C
:100EE00011264FF0000857E72DE9F04F88460446D9
:100EF000D21D22F0070191B0D1E90001CDE90A012C
:100F000006F070FF02460B98C00F01D02D2007E0BD
:100F10002068810701D52B2002E0202101EAC000D2
:100F2000032A099001D0072A05DB034641462046E3
:100F300000F018FB0BE12078800601D5E06900E0A5
:100F40000620B8F1650F814606D0B8F1660F18D0BB
:100F5000B8F1670F70D131E00020B9F1110F0090A6
:100F600001DB112301E009F101030AAA01A90CA880
:100F7000FFF7E2FEDDE90C70002609F1010583466A
:100F800047E001204B4600904FF000470AAA01A914
:100F90000CA8FFF7D1FEDDE90DB00C995D460026E7
:100FA00010B909F101000D18B9EB050003D4C0F127
:100FB000FF3609F10105A5EB09002BE0B9F1010F9E
:100FC00001DA4FF001090020B9F1110F00904846F5
:100FD00001DD112300E003460AAA01A90CA8FFF7CE
:100FE000ABFEDDE90C704D460026834620780007F5
:100FF0000AD4AB4500DA5D4601A8012D04DD411994
:1010000011F8011C302907D04F4502DA17F1040FFF
:1010100004DA012082460FE06D1EEEE7002F02DCAD
:10102000ED1B3E4403E0781CA84200DD7D1CB81B8C
:1010300000F1010A4FF000472078000703D4AA45C9
:1010400001DB4FF0FF3A0021B7F1004F0DF14308EB
:101050008DF8431024D002202B23002F01DA7F4289
:101060002D230A21021EA0F1010000DC5FB197FBD5
:10107000F1FC97FBF1F201FB1C7C17460CF1300CE4
:1010800008F801CDEEE7A8F10100037021880905F9
:1010900001D5452100E06521A0F1010800F8011CFF
:1010A00009980FA9A1EB0807FF1D00B10120411904
:1010B00001EBEA70A1693844081A401EA06120784B
:1010C000C00602D42046FFF7C8FA099828B1D4E92F
:1010D00001219047206A401C20622078C00622D55A
:1010E0002046FFF7BAFA1EE0002E04DBB34502DD0E
:1010F00001A8805D00E03020D4E901219047206AFA
:10110000401C2062761CAAF101005FEA000A0AD1A5
:1011100000F024FAC0680168405CD4E901219047DE
:10112000206A401C2062281EA5F10105DCDC07E0D6
:10113000D4E9012118F8010B9047206A401C206275
:10114000381EA7F10107F3DC2046FFF79CFA0320C5
:1011500011B041E62DE9F04F04460D46D21D22F0B4
:10116000070089B0D0E900974846394606F03AFEB4
:101170000246F80F01D02D2307E02068810701D532
:101180002B2302E0202101EAC0038DF820300BB1AF
:10119000012000E00020032A824601D0072A04DB58
:1011A0002946204600F0DEF93FE12078800601D490
:1011B0000D2500E0E569C7F30A560D2D49DA002137
:1011C0004FEA175B08464FF00000002F00F4400084
:1011D00007DA00EB80004FF4400100EBD07001EA29
:1011E00060008115012901DD4FF0FF3100224FEA37
:1011F000850CBCF1180F06D31346ACF118004FF064
:101200008052C24003E04FF4801323FA0CF30CF138
:101210000C0CBCF1200F04D3ACF1200C09FA0CF03B
:1012200001E007FA0CF000294FF0004801DD18B981
:101230000FE00ED140450CD319EB02095F4121B9F3
:10124000404502D19F4329EA0209BBEB175F00D05A
:10125000761C2088000502D57B48784402E07A4855
:101260007844193808AA302302F80A30037C0AF1BE
:101270000101002E0AF1020A53546A4602DC4FF0C3
:10128000300101E04FF031014FF001088DF80010FE
:1012900002D0A6F2FF3603E059EA470100D06B4EB8
:1012A000002D02DC2178090704D54FF002082E2119
:1012B0008DF80110C44600210BE0C7F303433F0142
:1012C000C35C491C6D1E02F80830052908F10108AD
:1012D00001DA002DF1DC00210CE000EB1973491C50
:1012E0001B786D1E082902F808304FEA091908F129
:1012F000010801DA002DF0DC21688B0602D516E02A
:10130000A8F10108E04505DD02EB080313F8013CF4
:10131000302BF5D0B8F1000F09DD02EB080313F80C
:10132000013C2E2B03D1090701D4A8F10108002D9F
:1013300005DD3E2102F808106D1E08F10108407C11
:10134000002E02F8080008F1010804DA2D20764288
:1013500002F8080002E02B2002F808000A214FF4EE
:101360007A70864208F101080BDB96FBF0F330330C
:1013700002F8083096FBF0F308F1010800FB136651
:1013800001E0642E0CDB642096FBF0F3303302F8AE
:10139000083096FBF0F308F1010800FB136601E04A
:1013A0000A2E06DB96FBF1F0303002F8080008F157
:1013B000010896FBF1F001FB1060303002F80800E4
:1013C000A16908F1010808EB050202EB0A00081AFE
:1013D000A0612078C00602D42046FFF73EF9216ABA
:1013E00008AE01EB0A00206204E0D4E9012116F8FE
:1013F000010B9047BAF1010AF7D22078C00602D556
:101400002046FFF72AF96E4609E016F8010B3E2840
:101410000FD0D4E901219047206A401C2062B8F126
:101420000108F2D22046FFF72EF909B00320BDE8EB
:10143000F08F206A2844206203E0D4E901213020A3
:1014400090476D1EEBD3F8E7966C000002FCFFFF9F
:1014500010B5436913B1AFF3008001E0FFF736F92F
:10146000012010BD127800F124010A7000224A7098
:101470000122EDE711684FF0FF32E9E710B543694B
:1014800013B1AFF3008001E0FFF7B8F9012010BD00
:10149000128800F1240182840022C2840122EDE737
:1014A00011684FF0FF32E9E72DE9F04116460C468E
:1014B000054600F04BF8036893F80101012807D0B6
:1014C000FF2C12D8185D80B101202C70BDE8F0818E
:1014D000D3F807013246214603F20713C7182846FE
:1014E000BC46BDE8F041002360474FF0FF30EDE718
:1014F00010B500F0F7F8BDE8104000F0EEB8704706
:101500007546FFF75DFBAE4605006946534620F081
:101510000700854618B020B5FEF72CFFBDE8204037
:101520004FF000064FF000074FF000084FF0000B9F
:10153000AC46ACE8C009ACE8C009ACE8C009ACE80E
:10154000C00921F007018D467047000010B500F07A
:1015500005F8001D10BD00BFF96800000048704785
:10156000280400202DE9F0411F46044603260168A7
:10157000072A01F4006004DB08B116A505E016A5F2
:1015800003E008B115A500E015A521F010002060CA
:10159000A069C01EA0610FB1401EA0612046FFF7E8
:1015A0005CF84FB1D4E9012138469047206A401CCD
:1015B0002062C01C206206E0206AFAE7D4E901211B
:1015C00015F8010B9047761EF8D22046FFF75BF81E
:1015D000BDE8F0814E414E006E616E00494E4600FE
:1015E000696E66002DE9F047814616468AB0354897
:1015F00078440DC88DE80D0032487844801C03AC57
:101600000DC884E80D0041F69B300844372190FB5B
:10161000F1F290FBF1F5A5F1800501FB12041B3CF2
:1016200002D56442012000E00020DFF898A0804647
:101630000027FA44AAF1BE0A0EE0E0070AD03246BB
:10164000684607EB470101230AEB810106F093FA94
:101650008DE8070064107F1C002CEED1194F7F44E9
:10166000AE3F19E0E80715D007EB04100DF1180A9A
:1016700090E80E008AE80E00C068F04201D1981987
:1016800008903246012306A903A806F074FA03ABBA
:1016900083E807006D10641C002DE3D14FF00103B7
:1016A00032466946B8F1000F03A802D006F04EFAA0
:1016B00001E006F060FAC9E90001C9F808200AB0A3
:1016C000BDE8F0879069000010B50446AFF30080D4
:1016D0002046BDE81040FEF738BE002801D000F0DB
:1016E00029B8704710B5012805D0002103A000F0EB
:1016F00027F8012010BD09A1F8E70000534947521F
:10170000544D454D3A204F7574206F6620686561D1
:1017100070206D656D6F7279000000003A20486599
:101720006170206D656D6F727920636F7272757074
:101730007465640001491820ABBEFEE72600020074
:1017400070B505460C460A2000E06D1C00F052F80A
:1017500035B128780028F8D102E0641C00F04AF87E
:1017600014B120780028F8D1BDE870400A2000F0BC
:1017700041B800000000000030B44FF0013C50F8C8
:10178000042B51F8043BCCFA52F4D51A20D1FCB901
:1017900050F8042B51F8043BCCFA52F4D51A17D167
:1017A000B4B950F8042B51F8043BCCFA52F4D51AD2
:1017B0000ED16CB950F8042B51F8043BCCFA52F41A
:1017C000D51A05D1002CDAD030BC4FF0000070479C
:1017D00029BAB1FA81F111F01801D1F12000844049
:1017E000F2D1CA40CB4012F0FF0213F0FF0330BC2D
:1017F000D01A704708B569468DF800000320ABBECB
:1018000008BD0000FFE7FEE780B540F22C50C2F2B1
:10181000000000F00FF980BD80B540F2CC40C2F26C
:10182000000000F007F980BD82B0019001980078B7
:1018300010384AF6AB21CAF6AA21A0FB0110000914
:101840000090009947F6B470C0F60000405C019922
:10185000C8650098042807D3FFE7019908680422A7
:1018600062F30900886506E00199086840F2FF32DA
:1018700090438865FFE70198806D02B070470000D3
:1018800086B0059000208DF813000598806A0390BB
:101890000598806910BBFFE70398029003281BD8C6
:1018A0000299DFE801F0020D0218059890F82F0068
:1018B000C00720B1FFE701208DF81300FFE70CE01F
:1018C0000598C06AB0F1C07F04D1FFE701208DF810
:1018D0001300FFE701E000E0FFE745E005988069BD
:1018E000B0F5005F25D1FFE70398019003281ED8CB
:1018F0000199DFE801F00206021101208DF81300C2
:1019000016E0059890F82F00C00720B1FFE70120EE
:101910008DF81300FFE70BE00598C06AB0F1C07FB7
:1019200004D1FFE701208DF81300FFE700E0FFE797
:1019300019E003980090032804D3FFE700980328D8
:1019400004D00EE001208DF813000BE0059890F80C
:101950002F00C00720B1FFE701208DF81300FFE73B
:1019600000E0FFE7FFE7FFE79DF8130006B07047D0
:1019700084B0039002910192009303980168086873
:1019800020F4802008600098039909684860039853
:101990008068402809D1FFE70198039909688860A9
:1019A000029803990968C86008E0029803990968D9
:1019B0008860019803990968C860FFE704B0704720
:1019C0007047000080B5042000F034FB80BD0000AB
:1019D00081B0EFF3108072B60090FFE7FEE70000E1
:1019E00082B00090009890F83500022807D0FFE7F9
:1019F00000998020486501208DF807000EE00099CD
:101A0000052081F8350000980168086820F0010081
:101A10000860FFE700208DF80700FFE79DF807004A
:101A200002B0704781B00090009890F8350001B086
:101A30007047000080B586B005900020039040F20A
:101A40000400C2F20000006848F2B511C1F64E3140
:101A5000A0FB0110800A02900598806D019001980A
:101A60000068049004980599C96DC84000070028D3
:101A70001AD5FFE70598006800684007002812D5CE
:101A8000FFE705980168086820F0040008600598E1
:101A9000C16D08208840019988600599486D40F023
:101AA00001004865FFE7FFE704980599C96DC84044
:101AB000C007A0B1FFE7059800684069000600284C
:101AC0000CD5FFE70598C16D012088400199886019
:101AD0000599486D40F002004865FFE7FFE704986C
:101AE0000599C96DC8404007002814D5FFE705983F
:101AF00000680068800700280CD5FFE70598C16DD5
:101B000004208840019988600599486D40F00400E0
:101B10004865FFE7FFE704980599C96DC840C0060E
:101B2000002847D5FFE705980068006800070028EF
:101B30003FD5FFE70598C16D102088400199886066
:101B4000059800680068400300281AD5FFE705984B
:101B5000006800680003002809D4FFE70598006CBE
:101B600020B1FFE70598016C8847FFE708E005987A
:101B7000806C20B1FFE70598816C8847FFE7FFE79D
:101B800016E0059800680068C005002807D4FFE744
:101B900005980168086820F008000860FFE70598CC
:101BA000006C20B1FFE70598016C8847FFE7FFE76D
:101BB000FFE7FFE704980599C96DC8408006002833
:101BC00040F18D80FFE7059800680068C006002896
:101BD00040F18480FFE70598C16D2020884001997D
:101BE0008860059890F83500052834D1FFE70598FE
:101BF0000168086820F016000860059801684869C7
:101C000020F0800048610598006C20B9FFE7059836
:101C1000806C38B1FFE705980168086820F008007B
:101C20000860FFE70598C16D3F20884001998860F2
:101C30000599012081F83500FFE70599002081F81A
:101C40003400FFE70598006D20B1FFE70598016DAE
:101C50008847FFE77BE0059800680068400300289C
:101C60001AD5FFE70598006800680003002809D42A
:101C7000FFE70598406C20B1FFE70598416C884765
:101C8000FFE708E00598C06B20B1FFE70598C16B3E
:101C90008847FFE7FFE720E0059800680068C00577
:101CA000002811D4FFE705980168086820F01000AB
:101CB00008600599012081F83500FFE705990020AB
:101CC00081F83400FFE7FFE70598C06B20B1FFE71C
:101CD0000598C16B8847FFE7FFE7FFE7FFE7059837
:101CE000406DA0B3FFE70598406DC00730B3FFE734
:101CF0000599052081F8350005980168086820F0ED
:101D000001000860FFE703980130039002998842C0
:101D100001D9FFE707E0FFE7059800680068C00702
:101D20000028F0D1FFE70599012081F83500FFE791
:101D30000599002081F83400FFE7FFE70598C06CA3
:101D400020B1FFE70598C16C8847FFE7FFE706B0C1
:101D500080BD000080B586B004900020039000F0A4
:101D60006BFB0290049820B9FFE701208DF8170063
:101D7000A3E00498406A08B1FFE7FFE70499022056
:101D800081F83500FFE70499002081F83400FFE76F
:101D900004980168086820F001000860FFE70498D3
:101DA00000680068C00790B1FFE700F045FB0299AA
:101DB000401A06280AD3FFE70499202048650499B1
:101DC000032081F835008DF8170076E0E7E70498E6
:101DD000006800680390039848F23F01CFF21001B9
:101DE00008400390049900914868D1F808C0CB6876
:101DF0000A6940EA0C00184310434A6910438A6993
:101E00001043CA691043096A0143039808430390C9
:101E10000498406A042808D1FFE70499C86A096B4E
:101E20000143039808430390FFE703980499096866
:101E300008600498006840690390039820F0070048
:101E400003900498416A0398084303900498406AF9
:101E500004281AD1FFE70498816A03980843039085
:101E60000498C06A80B1FFE70498FFF709FD50B1FC
:101E7000FFE70499402048650499012081F8350066
:101E80008DF8170019E0FFE7FFE703980499096848
:101E900048610498FFF7C8FC01900498C16D3F2089
:101EA000884001998860049900204865049A0121BE
:101EB00082F835108DF81700FFE79DF8170006B07F
:101EC00080BD000080B588B0069005910492039310
:101ED00000208DF80B000698806D0190FFE70698B2
:101EE00090F83400012804D1FFE702208DF81F008C
:101EF00045E00699012081F83400FFE7FFE70698E6
:101F000090F8350001282BD1FFE70699022081F8CF
:101F1000350006990020486506980599049A039BA8
:101F2000FFF726FD0698C16D3F2088400199886023
:101F300006980168086840F0160008600698006C72
:101F400038B1FFE706980168086840F008000860AB
:101F5000FFE706980168086840F00100086009E0A2
:101F6000FFE70699002081F83400FFE702208DF892
:101F70000B00FFE79DF80B008DF81F00FFE79DF8B1
:101F80001F0008B080BD000080B584B0039000F051
:101F900053FA0290039801900198013048B1FFE78D
:101FA00040F2FC30C2F20000017801980844019030
:101FB000FFE7FFE700F040FA0299401A01998842D2
:101FC00001D2FFE7F6E704B080BD000080B582B023
:101FD000ADF8060040F20000C2F2000000680128DF
:101FE0000FD1FFE740F27460C2F2000000210091BF
:101FF00002F0DEF8009840F20001C2F20001086031
:1020000015E040F20000C2F20000006870B9FFE77E
:1020100040F27460C2F20000002101F0E3FF40F2E0
:102020000001C2F2000101200860FFE7FFE702B0F3
:1020300080BD000080B582B0ADF8060043F61440C4
:10204000C4F201000068BDF8061008420CD0FFE79A
:10205000BDF8060043F61441C4F201010860BDF862
:102060000600FFF7B3FFFFE702B080BD8DB00C9014
:102070000B9100200990089007900A90FFE70A98BA
:102080000F2800F2BE81FFE70A99012088400990DD
:102090000B980068099908400890089809998842A7
:1020A00040F0AA81FFE70B98406800F00300012888
:1020B00007D0FFE70B98406800F0030002282FD1FB
:1020C000FFE70C98806807900A984100032000FA07
:1020D00001F10798884307900B98C0680A99490056
:1020E00000FA01F107980843079007980C99886057
:1020F0000C98406807900A99012000FA01F10798AE
:10210000884307900B984068C0F300100A9900FAC2
:1021100001F107980843079007980C994860FFE77A
:102120000B98406800F00300032818D0FFE70C98D4
:10213000C06807900A984100032000FA01F107984F
:10214000884307900B9880680A99490000FA01F1CA
:1021500007980843079007980C99C860FFE70B9809
:10216000406800F00300022826D1FFE70C980A9986
:102170006FF0030202EA51010844006A07900A98CE
:1021800000F0070081000F2000FA01F10798884352
:1021900007900B9800690A9901F00701890000FA7D
:1021A00001F107980843079007980C990A9B02EAE7
:1021B000530211440862FFE70C98006807900A98E0
:1021C0004100032000FA01F10798884307900B981B
:1021D000406800F003000A99490000FA01F10798ED
:1021E0000843079007980C9908600B98807980073E
:1021F000002800F00081FFE7FFE70020069043F68B
:102200004400C4F20200016841F4804101600068AA
:1022100000F4804006900698FFE70A9820F003003B
:1022200043F60801C4F20101405807900A9800F0F3
:10223000030081000F2000FA01F1079888430790FE
:102240000C980021C4F20201884203D1FFE700206C
:10225000059050E00C9840F20041C4F2020188421F
:1022600003D1FFE70120049042E00C9840F6000102
:10227000C4F20201884203D1FFE70220039034E058
:102280000C9840F60041C4F20201884203D1FFE7F6
:102290000320029026E00C9841F20001C4F20201F2
:1022A000884203D1FFE70420019018E00C9841F226
:1022B0000041C4F20201884203D1FFE705200090EB
:1022C0000AE00C9941F60002C4F202020720914292
:1022D00008BF06200090FFE700980190FFE70198F3
:1022E0000290FFE702980390FFE703980490FFE74E
:1022F00004980590FFE70598C0B20A9901F0030120
:10230000890000FA01F107980843079007980A9995
:1023100021F0030143F60802C4F20102885043F69B
:102320000840C4F2010000680790089907988843A4
:1023300007900B988079C006002805D5FFE708991B
:10234000079808430790FFE7079843F60841C4F24F
:102350000101086043F60C40C4F2010000680790D8
:1023600008990798884307900B9880798006002881
:1023700005D5FFE70899079808430790FFE70798F6
:1023800043F60C41C4F20101086043F60440C4F274
:1023900001000068079008990798884307900B98F8
:1023A00080798007002805D5FFE70899079808433A
:1023B0000790FFE7079843F60441C4F20101086063
:1023C00043F60040C4F2010000680790089907989E
:1023D000884307900B988079C00728B1FFE70899D8
:1023E000079808430790FFE7079843F60041C4F2B7
:1023F00001010860FFE7FFE7FFE70A9801300A9054
:102400003DE60DB07047000082B00190ADF80210BB
:102410008DF801209DF8010028B1FFE7BDF802000A
:102420000199886105E0BDF8020000040199886106
:10243000FFE702B07047000040F65070C2F20000A3
:102440000068704740F2FC30C2F20000027840F6AB
:102450005071C2F200010868104408607047000023
:1024600080B582B043F60041C4F20201086840F42E
:1024700000700860086840F480600860086840F4F4
:1024800080700860032000F08FF80020019000F0B9
:1024900005F800F03BF8019802B080BD80B582B02D
:1024A000009040F20400C2F20000006840F2FC31EB
:1024B000C2F200010A784FF47A71B1FBF2F1B0FB7D
:1024C000F1F001F067FA20B1FFE701208DF8070075
:1024D00018E000980F280DD8FFE700994FF0FF3063
:1024E000002200F047F8009840F20041C2F20001DB
:1024F000086003E001208DF8070003E000208DF85C
:102500000700FFE79DF8070002B080BD80B582B0EC
:10251000FFE70020019043F64400C4F20200016886
:1025200041F480410160006800F48040019001980E
:10253000FFE7FFE70020009043F64000C4F20200EE
:10254000016841F080510160006800F08050009007
:102550000098FFE7072000F027F802B080BD0000D8
:1025600080B582B08DF807009DF9070003F0E2FA0C
:1025700002B080BD80B586B08DF81700049103923B
:102580000020029003F0EEFA02909DF917000190EE
:1025900002980499039A02F063FB0146019803F044
:1025A000E9FA06B080BD000080B582B001900198C4
:1025B00003F002FB02B080BD80B584B002900191AF
:1025C000029820B9FFE701208DF80F0021E1019862
:1025D00043F60041C4F20201096801F00F0188428C
:1025E00012D9FFE7019943F60040C4F202000170DE
:1025F000006800F00F000199884204D0FFE7012035
:102600008DF80F0005E1FFE70298007880070028A9
:102610002AD5FFE7029800784007002809D5FFE790
:1026200043F60801C4F20201086840F4E050086073
:10263000FFE7029800780007002809D5FFE743F676
:102640000801C4F20201086840F460400860FFE736
:1026500043F60801C4F20201086820F0F000029A73
:10266000926810430860FFE702980078C0070028CE
:102670006ED0FFE702984068012811D1FFE743F6CA
:102680000000C4F20200006800F400310020B0EB4A
:10269000514F04D1FFE701208DF80F00B9E02CE085
:1026A00002984068022805D0FFE702984068032896
:1026B00011D1FFE743F60000C4F20200006800F009
:1026C00000710020B0EB516F04D1FFE701208DF8BD
:1026D0000F009EE010E043F60000C4F20200006824
:1026E00000F002010020B0EB510F04D1FFE7012000
:1026F0008DF80F008DE0FFE7FFE743F60801C4F215
:102700000201086820F00300029A52681043086032
:10271000FFF792FE0090FFE743F60800C4F20200C4
:10272000006800F00C0002994968B0EB810F0ED0F0
:10273000FFE7FFF781FE0099401A41F28931884294
:1027400004D3FFE703208DF80F0062E0E4E7FFE722
:10275000019843F60041C4F20201096801F00F013B
:10276000884212D2FFE7019943F60040C4F202000A
:102770000170006800F00F000199884204D0FFE763
:1027800001208DF80F0044E0FFE702980078400731
:1027900000280CD5FFE743F60801C4F202010868DF
:1027A00020F4E050029AD26810430860FFE70298D4
:1027B0000078000700280DD5FFE743F60801C4F2B2
:1027C0000201086820F46040029A126940EAC200DF
:1027D0000860FFE700F04CF843F60801C4F202017C
:1027E0000968C9B20A0947F69C71C0F60001895C04
:1027F000C84040F20401C2F20001086040F200400B
:10280000C2F200000068FFF749FE00208DF80F00BB
:10281000FFE79DF80F0004B080BD000040F2040007
:10282000C2F200000068704780B5FFF7F7FF43F67B
:102830000801C4F202010968C1F3822247F6AC71B3
:10284000C0F60001895CC84080BD000080B5FFF77C
:10285000E5FF43F60801C4F20201096889B24A0B98
:1028600047F6AC71C0F60001895CC84080BD00002D
:1028700080B586B0002005900490039002900190EE
:1028800043F60800C4F20200006800F00C000146A4
:1028900000910C2800F29B800099DFE801F0079876
:1028A00098980D98989813989898570042F200407D
:1028B000C0F2F400019090E041F20020C0F27A00F2
:1028C00001908AE043F60400C4F20200016801F0BE
:1028D0003F01059100684002002813D5FFE743F649
:1028E0000400C4F202000068C0F3881041F2002125
:1028F000C0F27A01A0FB0101059A0023FDF77BFDE0
:10290000049012E043F60400C4F202000068C0F331
:10291000881042F20041C0F2F401A0FB0101059AC7
:102920000023FDF768FD0490FFE743F60400C4F2BE
:102930000200006800F44031022000EBD130039027
:1029400004980399B0FBF1F0019046E043F60400CF
:10295000C4F20200016801F03F01059100684002E5
:10296000002813D5FFE743F60400C4F20200006814
:10297000C0F3881041F20021C0F27A01A0FB0101EE
:10298000059A0023FDF737FD049012E043F604009A
:10299000C4F202000068C0F3881042F20041C0F2A5
:1029A000F401A0FB0101059A0023FDF724FD04902A
:1029B000FFE743F60400C4F202000068C0F30270AF
:1029C000029004980299B0FBF1F0019005E042F208
:1029D0000040C0F2F4000190FFE7019806B080BD0E
:1029E00080B586B00490049820B9FFE701208DF8E7
:1029F000170084E304980078C007002800F0BA802C
:102A0000FFE743F60800C4F20200006800F00C0083
:102A1000042828D0FFE743F60800C4F2020000684B
:102A200000F00C0008280BD1FFE743F60400C4F2C5
:102A30000200006800F48000B0F5800F13D0FFE7BB
:102A400043F60800C4F20200006800F00C000C28F5
:102A50001ED1FFE743F60400C4F202000068400202
:102A6000002815D5FFE743F60000C4F20200006815
:102A700000F400310020B0EB514F08D0FFE704987C
:102A8000406820B9FFE701208DF8170037E370E0B8
:102A9000FFE704984068B0F5803F09D1FFE743F6AF
:102AA0000001C4F20201086840F48030086020E0B0
:102AB00004984068B0F5A02F0DD1FFE743F6000160
:102AC000C4F20201086840F480200860086840F4FD
:102AD000803008600CE043F60001C4F2020108688F
:102AE00020F480300860086820F480200860FFE748
:102AF000FFE7FFE704984068E8B1FFE7FFF79CFCB9
:102B00000390FFE743F60000C4F20200006800F4FF
:102B100000310020B0EB514F0CD1FFE7FFF78CFCE8
:102B20000399401A652804D3FFE703208DF81700A6
:102B3000E5E2E7E71CE0FFF77FFC0390FFE743F6E1
:102B40000000C4F20200006800F400310020B0EB85
:102B5000514F0CD0FFE7FFF76FFC0399401A65282F
:102B600004D3FFE703208DF81700C8E2E7E7FFE78B
:102B7000FFE7FFE7049800788007002840F1A9806C
:102B8000FFE743F60800C4F20200006810F00C0FE3
:102B900026D0FFE743F60800C4F20200006800F008
:102BA0000C00082809D1FFE743F60400C4F2020034
:102BB00000684002002813D5FFE743F60800C4F27E
:102BC0000200006800F00C000C282CD1FFE743F64F
:102BD0000400C4F2020000684002002823D4FFE78A
:102BE00043F60000C4F20200006800F00201002079
:102BF000B0EB510F09D0FFE70498C068012804D05A
:102C0000FFE701208DF8170079E243F60001C4F2D6
:102C10000201086820F0F800049A126940EAC20034
:102C20000860FFE754E00498C06870B3FFE7002134
:102C3000C4F2472101200860FFF7FEFB0390FFE785
:102C400043F60000C4F20200006800F00201002018
:102C5000B0EB510F0CD1FFE7FFF7EEFB0399401AE1
:102C6000032804D3FFE703208DF8170047E2E7E7C6
:102C700043F60001C4F20201086820F0F800049A4B
:102C8000126940EAC200086021E00021C4F2472135
:102C900000200860FFF7D0FB0390FFE743F6000039
:102CA000C4F20200006800F002010020B0EB510FF6
:102CB0000CD0FFE7FFF7C0FB0399401A032804D3A9
:102CC000FFE703208DF8170019E2E7E7FFE7FFE7CA
:102CD000FFE704980078000700284BD5FFE7049829
:102CE000406918B3FFE740F68061C4F24721012034
:102CF0000860FFF7A1FB0390FFE743F67400C4F2FE
:102D00000200006800F002010020B0EB510F0CD16E
:102D1000FFE7FFF791FB0399401A032804D3FFE76D
:102D200003208DF81700EAE1E7E722E040F6806132
:102D3000C4F2472100200860FFF77EFB0390FFE705
:102D400043F67400C4F20200006800F002010020A3
:102D5000B0EB510F0CD0FFE7FFF76EFB0399401A61
:102D6000032804D3FFE703208DF81700C7E1E7E746
:102D7000FFE7FFE7049800784007002840F1CE8085
:102D8000FFE700208DF8070043F64000C4F2020080
:102D90000068C000002815D4FFE7FFE7002000907E
:102DA00043F64000C4F20200016841F08051016026
:102DB000006800F0805000900098FFE701208DF837
:102DC0000700FFE747F20000C4F200000068C005FA
:102DD000002822D4FFE747F20001C4F2000108688E
:102DE00040F480700860FFF727FB0390FFE747F28D
:102DF0000000C4F200000068C00500280CD4FFE702
:102E0000FFF71AFB0399401A032804D3FFE70320B6
:102E10008DF8170073E1EAE7FFE7FFE704988068A1
:102E2000012809D1FFE743F67001C4F202010868E6
:102E300040F0010008601FE00498806805280DD16B
:102E4000FFE743F67001C4F20201086840F0040095
:102E50000860086840F0010008600CE043F670016B
:102E6000C4F20201086820F001000860086820F040
:102E700004000860FFE7FFE7FFE704988068F8B107
:102E8000FFE7FFF7D9FA0390FFE743F67000C4F2BB
:102E90000200006800F002010020B0EB510F0ED1DB
:102EA000FFE7FFF7C9FA0399401A41F289318842D6
:102EB00004D3FFE703208DF8170020E1E5E71EE0CB
:102EC000FFF7BAFA0390FFE743F67000C4F202007E
:102ED000006800F002010020B0EB510F0ED0FFE7B8
:102EE000FFF7AAFA0399401A41F28931884204D3C4
:102EF000FFE703208DF8170001E1E5E7FFE79DF804
:102F00000700012809D1FFE743F64001C4F202019E
:102F1000086820F080500860FFE7FFE704988069A8
:102F2000002800F0E880FFE743F60800C4F2020042
:102F3000006800F00C00082800F08880FFE7049883
:102F4000806902285FD1FFE76021C4F24721002099
:102F50000860FFF771FA0390FFE743F60000C4F240
:102F60000200006800F000710020B0EB516F0CD03F
:102F7000FFE7FFF761FA0399401A032804D3FFE73C
:102F800003208DF81700BAE0E7E70499C869D1F883
:102F900020C04B6A8A6A40EA0C0040EA8310D203E0
:102FA0004FF6FF739A43A2F580321043CA6A40EA93
:102FB0000260096B40EA017043F60401C4F20201A9
:102FC00008606021C4F2472101200860FFF734FA4D
:102FD0000390FFE743F60000C4F20200006800F02F
:102FE00000710020B0EB516F0CD1FFE7FFF724FA1E
:102FF0000399401A032804D3FFE703208DF8170034
:103000007DE0E7E721E06021C4F24721002008606D
:10301000FFF712FA0390FFE743F60000C4F2020044
:10302000006800F000710020B0EB516F0CD0FFE79A
:10303000FFF702FA0399401A032804D3FFE703209D
:103040008DF817005BE0E7E7FFE753E0049880693D
:10305000012804D1FFE701208DF817004FE043F667
:103060000400C4F2020000680290049880690128FC
:103070003AD0FFE7029800F480000499C9698842B9
:1030800032D1FFE7029800F03F000499096A8842B4
:103090002AD1FFE7029847F6C07108400499496AAF
:1030A000B0EB811F20D1FFE7029800F44030049973
:1030B000896AC9034FF6FF729143A1F580318842B6
:1030C00012D1FFE7029800F070600499C96AB0EB72
:1030D000016F09D1FFE7029800F0E0400499096B05
:1030E000B0EB017F04D0FFE701208DF8170006E068
:1030F000FFE7FFE7FFE700208DF81700FFE79DF8E7
:10310000170006B080BD000081B0009001B070478C
:1031100080B588B0079007980068406806900798C7
:103120000068806805909DF8140000F040010020C0
:10313000B0EB911F11D1FFE70598C00768B1FFE719
:103140009DF8180000F040010020B0EB911F04D062
:10315000FFE70798016C8847F0E09DF8140000F045
:1031600002010020B0EB510F0BD0FFE79DF81810C3
:103170000020B0EBD11F04D0FFE70798416C8847CF
:10318000DCE09DF8140000F020010020B0EB511F9E
:1031900010D1FFE79DF8140000F040010020B0EBD3
:1031A000911F07D1FFE79DF81500C007002800F028
:1031B000C580FFE79DF8180000F020010020B0EB6B
:1031C000511F00F0BB80FFE79DF8140000F04001A4
:1031D0000020B0EB911F28D0FFE7079890F851002E
:1031E000032813D0FFE70799486D40F004004865B5
:1031F000FFE70020049007980068C06804900798D3
:103200000068806804900498FFE70DE0FFE7002065
:10321000039007980068C06803900798006880686A
:1032200003900398FFE789E0FFE79DF8140000F0A2
:1032300020010020B0EB511F15D0FFE70799486D22
:1032400040F001004865FFE7002002900798006801
:103250008068029007980168086820F040000860C4
:103260000298FFE7FFE79DF81500C00778B1FFE778
:103270000799486D40F008004865FFE7002001907D
:1032800007980068806801900198FFE7FFE70798BA
:10329000406D002851D0FFE707980168486820F08A
:1032A000E00048600799012081F85100069800F07D
:1032B0000200022805D0FFE79DF81800C007B8B348
:1032C000FFE707980168486820F003004860079806
:1032D000C06CA0B1FFE70798C16C44F6E140C0F6AE
:1032E000000008650798C06CFEF77AFB30B1FFE775
:1032F0000799486D40F040004865FFE7FFE70798F1
:10330000806CA0B1FFE70798816C44F6E140C0F6FD
:10331000000008650798806CFEF762FB30B1FFE79C
:103320000799486D40F040004865FFE7FFE703E07C
:103330000798FFF7E9FEFFE7FFE7FFE708B080BD6A
:1033400080B584B00290029820B9FFE701208DF883
:103350000F0071E00298406A60B9FFE70298406888
:10336000B0F5827F01D1FFE703E002990020C86138
:10337000FFE705E002990020086102994861FFE734
:10338000029900208862029890F8510040B9FFE746
:103390000299002081F85000029800F051F8FFE7F0
:1033A0000299022081F8510002980168086820F013
:1033B00040000860029A019211685068D2F808C073
:1033C000D36800F482700CF4044C604403F400638E
:1033D0001844136903F002031844536903F001030E
:1033E0001844936903F400731844D36903F0380355
:1033F0001844136A03F080031843926A02F40052DF
:1034000010430860029A508B00F004001168526A61
:1034100002F010021044486002980168C86920F464
:103420000060C861029900204865029A012182F873
:1034300051108DF80F00FFE79DF80F0004B080BD1C
:1034400080B58CB00B9000200A90099008900790EE
:1034500006900B98006843F20001C4F20101884213
:1034600067D1FFE7FFE70020059043F64400C4F270
:103470000200016841F480510160006800F480504E
:1034800005900598FFE7FFE70020049043F6300021
:10349000C4F20200016841F001010160006800F01F
:1034A000010004900498FFE7E020069002200790B6
:1034B0000020029008900320099005200A90002027
:1034C000C4F2020006A9FEF7D1FD029940F2CC40F9
:1034D000C2F20000039046F25842C4F202020260B7
:1034E0004FF0C062426040228260C1604FF480624F
:1034F000026141618161C16101624162FEF72AFCA2
:1035000018B1FFE7FEF764FAFFE7FFE70B9840F218
:10351000CC41C2F2000181640B988863FFE723204D
:10352000019000221146FFF725F80198FFF718F8DF
:10353000FFE70CB080BD000080B588B00690059113
:10354000ADF81220039300208DF80700FFE70698DE
:1035500090F85000012804D1FFE702208DF81F00E9
:1035600028E10699012081F85000FFE7FFE7FEF708
:1035700063FF0290BDF81200ADF80400069890F8C1
:103580005100012804D0FFE702208DF8070002E176
:10359000059820B1FFE7BDF8120020B9FFE7012030
:1035A0008DF80700F7E00699032081F8510006998D
:1035B000002048650599069A1163BDF81210069A15
:1035C0009186BDF81210069AD186069988630699ED
:1035D00088870699C88706994864069908640698FA
:1035E0008068B0F5004F0DD1FFE7069801680868C4
:1035F00020F04000086006980168086840F48040A8
:103600000860FFE706980068006800F04000402866
:1036100007D0FFE706980168086840F0400008609E
:10362000FFE70698C068B0F5006F47D1FFE706983E
:10363000406828B1FFE7BDF8040001280ED1FFE77C
:1036400006980168006B0088C8600699086B023014
:1036500008630699C88E0138C886FFE7FFE7069819
:10366000C08E50B3FFE70698006880688007002886
:103670000ED5FFE706980168006B0088C8600699C0
:10368000086B023008630699C88E0138C88613E0BB
:10369000FEF7D2FE0299401A0399884204D3FFE74D
:1036A0000398013018B9FFE7039820B9FFE703201A
:1036B0008DF807006FE0FFE7D1E746E00698406825
:1036C00028B1FFE7BDF8040001280ED1FFE70698F6
:1036D0000168006B007808730699086B0130086375
:1036E0000699C88E0138C886FFE7FFE70698C08EA6
:1036F00050B3FFE7069800688068800700280ED561
:10370000FFE706980168006B007808730699086B5C
:10371000013008630699C88E0138C88613E0FEF7A9
:103720008BFE0299401A0399884204D3FFE703985D
:10373000013018B9FFE7039820B9FFE703208DF89F
:10374000070028E0FFE7D1E7FFE706980399029A10
:1037500001F050FB20B1FFE7069920204865FFE704
:103760000698806870B9FFE7FFE700200090069890
:103770000068C06800900698006880680090009813
:10378000FFE7FFE70698406D20B1FFE701208DF8C5
:103790000700FFE7FFE70699012081F85100FFE7E6
:1037A0000699002081F85000FFE79DF807008DF88A
:1037B0001F00FFE79DF81F0008B080BD80B584B0F2
:1037C00002900191ADF8022000208DF80100FFE782
:1037D000029890F85000012804D1FFE702208DF8EC
:1037E0000F009FE00299012081F85000FFE7FFE7FA
:1037F000029890F85100012804D0FFE702208DF8CC
:10380000010084E0019820B1FFE7BDF8020020B973
:10381000FFE701208DF8010079E00299032081F88B
:1038200051000299002048650199029A1163BDF880
:103830000210029A9186BDF80210029AD18602996E
:1038400088630299486402990864029988870299FA
:10385000C88702988068B0F5004F0DD1FFE7029845
:103860000168086820F04000086002980168086854
:1038700040F480400860FFE70298816C44F63550C0
:10388000C0F6000008640298816C44F64D50C0F602
:103890000000C8630298816C44F60150C0F6000035
:1038A000C8640298816C00200865029B1A68196B35
:1038B000986C0C32DB8EFEF705FB60B1FFE70299D6
:1038C000486D40F01000486501208DF80100029914
:1038D00081F851001BE002980068006800F0400089
:1038E000402807D0FFE702980168086840F04000D0
:1038F0000860FFE702980168486840F020004860CF
:1039000002980168486840F002004860FFE7FFE75E
:103910000299002081F85000FFE79DF801008DF822
:103920000F00FFE79DF80F0004B080BD81B000904C
:1039300001B0704781B0009001B0704740F2B041D3
:10394000C2F2000108680130086040F64C70C2F213
:10395000000001680131016090ED000AB8EEC00A74
:1039600040F2F030C2F2000090ED001AB4EE410ACD
:10397000F1EE10FA0DDBFFE740F2F431C2F2000184
:103980000120086040F64C71C2F20001002008607E
:10399000FFE7704780B582B00190019801F014FBF9
:1039A00002B080BD80B5FFF7C9FF80BD85B0039030
:1039B0000291FFE7039890F83C00012804D1FFE74B
:1039C00002208DF813007EE00399012081F83C006D
:1039D000FFE7FFE70399022081F83D0003980068A4
:1039E000406801900398006880680090019820F07A
:1039F00070000190029801680198084301900198B5
:103A0000039909684860039800680021C4F2010125
:103A100088423CD0FFE703980068B0F1804F36D071
:103A2000FFE70398006840F20041C4F200018842B9
:103A30002DD0FFE70398006840F60001C4F20001B2
:103A4000884224D0FFE70398006840F60041C4F2A2
:103A5000000188421BD0FFE70398006840F2004154
:103A6000C4F20101884212D0FFE70398006844F2D3
:103A70000001C4F20101884209D0FFE70398006801
:103A800041F60001C4F2000188420ED1FFE7009820
:103A900020F0800000900298416800980843009050
:103AA0000098039909688860FFE70399012081F86D
:103AB0003D00FFE70399002081F83C00FFE700206C
:103AC0008DF81300FFE79DF8130005B07047000064
:103AD00080B582B00090009820B9FFE701208DF8F2
:103AE00007003FE0009890F83D0040B9FFE70099DB
:103AF000002081F83C00009800F038F8FFE70099BA
:103B0000022081F83D00009951F8040B01F0F2FA0F
:103B10000099012081F84600FFE70099012081F813
:103B20003E00009981F83F00009981F8400000991B
:103B300081F84100FFE7FFE70099012081F842008A
:103B4000009981F84300009981F84400009981F8B8
:103B50004500FFE70099012081F83D0000208DF825
:103B60000700FFE79DF8070002B080BD84B0039016
:103B7000039800680021C4F20101884212D1FFE7D6
:103B8000FFE70020029043F64400C4F202000168FF
:103B900041F001010160006800F00100029002980C
:103BA000FFE734E003980068B0F1804F12D1FFE7DF
:103BB000FFE70020019043F64000C4F202000168D4
:103BC00041F001010160006800F0010001900198DE
:103BD000FFE71BE00398006841F60001C4F2000112
:103BE000884212D1FFE7FFE70020009043F6400033
:103BF000C4F20200016841F040010160006800F079
:103C0000400000900098FFE7FFE7FFE7FFE704B000
:103C10007047000080B586B00490039100208DF8B5
:103C20000B00FFE7049890F83C00012804D1FFE75F
:103C300002208DF81700ABE00499012081F83C00C8
:103C4000FFE7FFE70499022081F83D00049800682F
:103C500080680190019820F077000190019820F48D
:103C60007F40019001980499096888600398006872
:103C70000090002872D0FFE7009810286ED0FFE770
:103C8000009820286AD0FFE70098302866D0FFE728
:103C90000098402855D0FFE70098502837D0FFE71C
:103CA0000098602840D0FFE7009870280BD0FFE70D
:103CB0000098B0F5805F05D0FFE70098B0F5005F91
:103CC00016D052E055E004980068039B5A68996842
:103CD000DB6801F0F9FA04980068806801900198A7
:103CE00040F077000190019804990968886040E0ED
:103CF00004980068039B5A689968DB6801F0E4FA4D
:103D000004980168886840F48040886031E0049835
:103D10000068039A5168D26801F0C2FC04980068F8
:103D2000502101F0EBFA24E004980068039A5168EE
:103D3000D26801F0DDFC04980068602101F0DEFA31
:103D400017E004980068039A5168D26801F0A8FC53
:103D500004980068402101F0D1FA0AE00498006854
:103D60000399096801F0CAFA03E001208DF80B00FD
:103D7000FFE70499012081F83D00FFE70499002046
:103D800081F83C00FFE79DF80B008DF81700FFE776
:103D90009DF8170006B080BD80B588B00790002060
:103DA0000690059004900390029007980068B0F187
:103DB000804F20D1FFE7FFE70020019043F630005D
:103DC000C4F20200016841F001010160006800F0E6
:103DD000010001900198FFE7012002900221039168
:103DE00000210491059106900020C4F2020002A96E
:103DF000FEF73CF9FFE708B080BD000080B586B053
:103E000004900391029200208DF80700FFE70498C8
:103E100090F83C00012804D1FFE702208DF817003C
:103E200089E00499012081F83C00FFE7FFE7029850
:103E300000900C2800F270800099DFE801F0076D17
:103E40006D6D206D6D6D3A6D6D6D53000498006859
:103E5000039901F069FA04980168886940F0080044
:103E6000886104980168886920F0040088610398DB
:103E700002690498016888691043886150E00498D9
:103E80000068039901F0C6FA04980168886940F453
:103E90000060886104980168886920F48060886106
:103EA0000398026904980168886940EA02208861E1
:103EB00036E004980068039901F026FB0498016835
:103EC000C86940F00800C86104980168C86920F01A
:103ED0000400C8610398026904980168C869104326
:103EE000C8611DE004980068039901F087FB0498FD
:103EF0000168C86940F40060C86104980168C86935
:103F000020F48060C8610398026904980168C86958
:103F100040EA0220C86103E001208DF80700FFE7B6
:103F2000FFE70499002081F83C00FFE79DF80700B7
:103F30008DF81700FFE79DF8170006B080BD000060
:103F400080B582B00090009820B9FFE701208DF87D
:103F500007003FE0009890F83D0040B9FFE7009966
:103F6000002081F83C00009800F038F8FFE7009945
:103F7000022081F83D00009951F8040B01F0BAF8D5
:103F80000099012081F84600FFE70099012081F89F
:103F90003E00009981F83F00009981F840000099A7
:103FA00081F84100FFE7FFE70099012081F8420016
:103FB000009981F84300009981F84400009981F844
:103FC0004500FFE70099012081F83D0000208DF8B1
:103FD0000700FFE79DF8070002B080BD81B00090A8
:103FE00001B0704780B58CB00A900991099828B942
:103FF000FFE70A9890F83E0007901CE00998042813
:1040000005D1FFE70A9890F83F00069010E0099864
:10401000082805D1FFE70A9890F84000059004E0D1
:104020000A9890F841000590FFE705980690FFE791
:1040300006980790FFE70798012804D0FFE70120C2
:104040008DF82F00AFE0099828B9FFE70A99022000
:1040500081F83E001EE00998042806D1FFE70A997E
:10406000022081F83F00049012E00998082806D148
:10407000FFE70A99022081F84000039005E00A99C1
:10408000022081F841000390FFE703980490FFE7C6
:104090000498FFE70A98006809990122019201F04B
:1040A000F7F801980A9909680022C4F201029142C6
:1040B00002900CD0FFE70A9800684FF60041CBF65B
:1040C000FE710844B0FA80F040090290FFE70298C0
:1040D000C00738B1FFE70A980168486C40F4004017
:1040E0004864FFE70A9800680021C4F20101884291
:1040F0003CD0FFE70A980068B0F1804F36D0FFE768
:104100000A98006840F20041C4F2000188422DD0B4
:10411000FFE70A98006840F60001C4F200018842F7
:1041200024D0FFE70A98006840F60041C4F200017D
:1041300088421BD0FFE70A98006840F20041C4F2B1
:104140000101884212D0FFE70A98006844F200019A
:10415000C4F20101884209D0FFE70A98006841F6DD
:104160000001C4F20001884212D1FFE70A980068FA
:10417000806800F0070008900898062807D0FFE73D
:104180000A980168086840F001000860FFE706E04F
:104190000A980168086840F001000860FFE7002005
:1041A0008DF82F00FFE79DF82F000CB080BD0000B8
:1041B00080B586B0059004910598006804990022A6
:1041C00001F066F80598016801200022C4F201029E
:1041D000914203900CD0FFE7059800684FF600412C
:1041E000CBF6FE710844B0FA80F040090390FFE777
:1041F0000398C007D8B1FFE7FFE705980068006A99
:1042000041F21111084210D1FFE705980068006AD9
:1042100040F24441084207D1FFE705980168486C25
:1042200020F400404864FFE7FFE7FFE7FFE7FFE710
:1042300005980068006A41F21111084210D1FFE7A9
:1042400005980068006A40F24441084207D1FFE740
:1042500005980168086820F001000860FFE7FFE7A3
:10426000FFE7049828B9FFE70599012081F83E008F
:104270001EE00498042806D1FFE70599012081F883
:104280003F00029012E00498082806D1FFE7059944
:10429000012081F84000019005E00599012081F896
:1042A00041000190FFE701980290FFE70298FFE7C5
:1042B000002006B080BD000081B0009001B07047C2
:1042C00080B582B00090009820B9FFE701208DF8FA
:1042D00007003EE00098806908B1FFE700E0FFE7D3
:1042E000009890F83D0040B9FFE70099002081F860
:1042F0003C00009800F032F8FFE70099242081F894
:104300003D0000980168C86820F40050C86000981B
:1043100001F006FB00980168086920F490400861EC
:1043200000980168486920F02A00486100980168F7
:10433000C86840F40050C860009900200864009AE2
:10434000202182F83D10009A82F83E108DF8070077
:10435000FFE79DF8070002B080BD000080B592B075
:104360001190002010900F900E900D900C901198CD
:10437000006845F20001C4F20001884240F08B80E1
:10438000FFE7FFE700200B9043F64000C4F2020075
:10439000016841F480110160006800F480100B9006
:1043A0000B98FFE7FFE700200A9043F63000C4F2C5
:1043B0000200016841F004010160006800F004009F
:1043C0000A900A98FFE7FFE70020099043F63000C3
:1043D000C4F20200016841F008010160006800F0C9
:1043E000080009900998FFE74FF480500C900220D4
:1043F00001900D90002005900E90032002900F90E8
:1044000008200390109040F60000C4F202000CA9AE
:104410000491FDF72BFEDDF804C0029A039804997D
:10442000059B4FF0040ECDF830E0CDF834C00E936C
:104430000F92109040F60040C4F20200FDF716FE05
:10444000059940F22C50C2F20000069046F2B802E4
:10445000C4F2020202604FF00062426040228260B9
:10446000C1604FF48062026141618161C16101629A
:104470004162FDF76FFC18B1FFE7FDF7A9FAFFE70E
:10448000FFE7119840F22C51C2F2000141631198EC
:104490008863FFE73CE01198006844F20041C4F2F1
:1044A0000001884233D1FFE7FFE70020089043F680
:1044B0004000C4F20200016841F40031016000686C
:1044C00000F4003008900898FFE7FFE7002007900D
:1044D00043F63000C4F20200016841F001010160BE
:1044E000006800F0010007900798FFE70C200C908F
:1044F00002200D9000200E9003200F9007201090B6
:104500000020C4F202000CA9FDF7B0FDFFE7FFE7B1
:1045100012B080BD80B58AB008900791ADF81A201E
:10452000059300200290089890F83E00202840F063
:104530009B80FFE7079820B1FFE7BDF81A0020B97C
:10454000FFE701208DF8270092E0FFE7089890F838
:104550003C00012804D1FFE702208DF8270087E006
:104560000899012081F83C00FFE7FFE70899002047
:104570000864089A222182F83E1008990863FDF722
:104580005BFF0290BDF81A0008998885BDF81A00F3
:104590000899C88508988068B0F5805F09D1FFE761
:1045A0000898006928B9FFE7002004900798039055
:1045B00004E00798049000200390FFE7FFE70899C4
:1045C000002081F83C00FFE7FFE70898C08D002835
:1045D00042D0FFE70898029B05996A4611602021A6
:1045E000002201F03BFA20B1FFE703208DF82700FD
:1045F0003EE0049858B9FFE70898006840686FF3F8
:104600005F20039908800398023003901FE0089808
:104610008068B0F5805F08D0FFE70898806850B9DF
:10462000FFE70898006930B9FFE70898006840681C
:104630000499087007E008980068406800F07F005F
:1046400004990870FFE7049801300490FFE7089987
:10465000C88D0138C885B8E70899202081F83E0048
:1046600000208DF8270003E002208DF82700FFE7E7
:104670009DF827000AB080BD80B586B004900391F4
:10468000ADF80A20049890F83D00202874D1FFE787
:10469000039820B1FFE7BDF80A0020B9FFE7012029
:1046A0008DF817006CE0FFE7049890F83C000128B3
:1046B00004D1FFE702208DF8170061E00499012082
:1046C00081F83C00FFE7FFE7039804990862BDF812
:1046D0000A0004998884BDF80A000499C8840499E2
:1046E00000200864049A212182F83D1004994A6B45
:1046F00045F2C171C0F60001D16304994A6B45F6D9
:104700003D01C0F60001116404994A6B45F2457100
:10471000C0F60001D1640499496B086503A80190B3
:1047200004980268406B019909680432BDF80A30A8
:10473000FDF7C8FB049801686FF040000860FFE7D0
:104740000499002081F83C00FFE7FFE7FFE70498A9
:10475000006850E8050F40F080000090FFE70099E6
:104760000498026842E805100028F0D1FFE7FFE74F
:1047700000208DF8170003E002208DF81700FFE7F6
:104780009DF8170006B080BD81B0009001B0704761
:1047900081B0009001B07047FFE7FEE780B586B0BA
:1047A000FFE70020059043F63000C4F202000168E4
:1047B00041F480010160006800F4800005900598D4
:1047C000FFE7FFE70020049043F63000C4F2020048
:1047D000016841F400110160006800F400100490C9
:1047E0000498FFE72F200190002202921146FDF766
:1047F000C1FE0198FDF7B4FE029A3B2003901146DA
:10480000FDF7B8FE0398FDF7ABFE06B080BD0000D3
:1048100080B594B0002013901290119010900F90DA
:10482000FFE700200E9043F63000C4F2020001685A
:1048300041F004010160006800F004000E900E9841
:10484000FFE7FFE700200D9043F63000C4F20200BE
:10485000016841F080010160006800F080000D9067
:104860000D98FFE7FFE700200C9043F63000C4F2FC
:104870000200016841F001010160006800F00100E0
:104880000C900C98FFE7FFE700200B9043F63000F8
:10489000C4F20200016841F002010160006800F00A
:1048A00002000B900B98FFE7FFE700200A9043F609
:1048B0003000C4F20200016841F0080101600068A4
:1048C00000F008000A900A98FFE740F60000C4F2E2
:1048D000020001904FF4F071009100220892FDF760
:1048E00093FD089A40F20040C4F2020003904FF496
:1048F00088610291FDF788FD089A0020C4F2020049
:1049000006904FF480510491FDF77EFD01980899BF
:104910004FF400520F924FF40412109211910FA90C
:104920000791FDF7A3FB01980799089A04230F93B9
:104930004FF4441310931192FDF798FB009B0198DC
:104940000799089A0F9301230593109311921292DD
:10495000FDF78CFB0398059A0799089B49F2020C16
:10496000CDF83CC010931192FDF780FBDDF808C034
:104970000398059B0799089ACDF83CC010931192B3
:104980001292FDF773FB059A06980799089B4FF45E
:10499000006CCDF83CC010931192FDF767FBDDF879
:1049A00010C0059B06980799089ACDF83CC0109353
:1049B00011921292FDF75AFB089A082009901146AD
:1049C000FDF7D8FD0998FDF7CBFD14B080BD0000C0
:1049D00080B582B040F28C50C2F20000009043F2E9
:1049E0000001C4F2010101604FF4827141600021B5
:1049F00001918160C160016141614FF40072826187
:104A0000C1610162416281620A21C162FEF798FCC4
:104A100018B1FFE7FCF7DCFFFFE702B080BD000044
:104A200080B586B000210191059104910391029116
:104A300040F22C60C2F2000041F60002C4F2000213
:104A40000260416081604FF6FF72C2600161816166
:104A5000FFF73EF818B1FFE7FCF7BAFFFFE74FF4A6
:104A60008050029040F22C60C2F2000002A9FFF7D1
:104A7000D1F818B1FFE7FCF7ABFFFFE706B080BD48
:104A800080B588B0002100910791069105910491AD
:104A90000391029140F2E450C2F200000190002222
:104AA000C4F201020260416081604FF6FF72C26091
:104AB000016141618161FFF70BF818B1FFE7FCF775
:104AC00087FFFFE74FF48050049040F2E450C2F2B9
:104AD000000004A9FFF79EF818B1FFE7FCF778FF84
:104AE000FFE700200290039040F2E450C2F2000081
:104AF00002A9FEF75BFF18B1FFE7FCF769FFFFE7CC
:104B000008B080BD80B58EB0002100910D910C9150
:104B10000B910A91099108910791069105910491D1
:104B200003910291019140F27460C2F200004FF0D3
:104B3000804202605322426081601922C26001619A
:104B40008161FEF7C5FF18B1FFE7FCF741FFFFE702
:104B50004FF480500A9040F27460C2F200000AA93B
:104B6000FFF758F818B1FFE7FCF732FFFFE740F214
:104B70007460C2F20000FFF7E3F918B1FFE7FCF739
:104B800027FFFFE700200890099040F27460C2F20E
:104B9000000008A9FEF70AFF18B1FFE7FCF718FFAD
:104BA000FFE7602001900D20029000220392059201
:104BB00040F27460C2F2000001A9FFF71FF918B1BA
:104BC000FFE7FCF705FFFFE740F27460C2F2000068
:104BD000FFF7E2F80EB080BD80B582B040F2007001
:104BE000C2F20000019045F20001C4F20001016030
:104BF0004FF41661416000218160C16001610C22A7
:104C000042618161C161FFF75BFB18B1FFE7FCF70F
:104C1000DFFEFFE702B080BD80B582B040F2BC602D
:104C2000C2F20000019044F20041C4F200010160B0
:104C30004FF4E131416000218160C16001610C22CB
:104C400042618161C161FFF73BFB18B1FFE7FCF7EF
:104C5000BFFEFFE702B080BDFFE7FEE7FFE7FEE72C
:104C600088B0079006910592079800F0070004901D
:104C70000498C0F10700052803D3FFE70420019042
:104C800004E00498C0F107000190FFE70198039049
:104C900004980430062803D8FFE70020009003E0C2
:104CA000049803380090FFE7009802900698039953
:104CB000012202FA01F101390840029B984005994E
:104CC0009A40013A1140084308B07047704700000D
:104CD00080B540F28C50C2F20000FEF719FA80BD98
:104CE00080B582B001900198806B009000990020FF
:104CF000C8870099C8860098FEF706FA02B080BD02
:104D000080B582B001900198806B00900098016896
:104D1000486820F0030048600099486D40F010009A
:104D200048650099012081F851000098FEF7ECF9E0
:104D300002B080BD80B582B001900198806B009078
:104D40000098FEF7F7FD02B080BD000080B584B08A
:104D500003900398806B0290FDF76EFB019003981F
:104D60000068006800F48070B0F5807F3BD0FFE7FA
:104D700002980168486820F02000486002980168A5
:104D8000486820F0020048600298019A642100F00F
:104D900031F830B1FFE70299486D40F020004865D6
:104DA000FFE70298806870B9FFE7FFE700200090F6
:104DB00002980068C06800900298006880680090BF
:104DC0000098FFE7FFE702990020C88602990120BA
:104DD00081F851000298406D20B1FFE70298FEF77C
:104DE00093F904E0FFE70298FEF7A0FDFFE704B0A7
:104DF00080BD000080B586B004900391029240F21D
:104E00000400C2F2000000684AF6AB21CAF6AA21EB
:104E1000A0FB011000094DF68361C4F21B31A0FB19
:104E20000110800C4FF47A71484301900498406857
:104E3000B0F5827F15D1FFE70498039B02996A467B
:104E400011608021002200F027F848B1FFE70499A3
:104E5000486D40F02000486503208DF8170017E0EA
:104E600012E0FFE7019808B9FFE70CE0019801386C
:104E70000190FFE7049800688068C1B20020B0EBA1
:104E8000D11FEFD1FFE7FFE700208DF81700FFE704
:104E90009DF8170006B080BD80B58AB0DDF830C03F
:104EA000089007918DF81B20059305980190FDF758
:104EB000C3FA024601980C99891A08440390FDF739
:104EC000BBFA0290039840F20401C2F200010968A3
:104ED000C1F3CB3148430490FFE70898006880682D
:104EE00007990840401AB0FA80F040099DF81B105D
:104EF00088425ED0FFE705980130002858D0FFE7D0
:104F0000FDF79AFA0299401A0399884204D2FFE702
:104F10000398002842D1FFE708980168486820F00C
:104F2000E000486008984068B0F5827F13D1FFE741
:104F300008988068B0F5004F06D0FFE708988068B1
:104F4000B0F5806F07D1FFE708980168086820F086
:104F500040000860FFE70898806AB0F5005F0FD155
:104F6000FFE7FFE708980168086820F40050086030
:104F700008980168086840F400500860FFE7FFE700
:104F80000899012081F85100FFE70899002081F875
:104F90005000FFE703208DF827000EE0049818B9B1
:104FA000FFE700200390FFE7049801380490FFE733
:104FB00093E700208DF82700FFE79DF827000AB04F
:104FC00080BD00007047000080B582B0009000985E
:104FD0000138B0F1807F03D3FFE70120019019E091
:104FE000009801384EF21401CEF2000108604FF033
:104FF000FF300F2100F0BEFD4EF21801CEF200018D
:10500000002008604EF21002CEF20002072111606B
:105010000190FFE7019802B080BD000080B5FDF768
:1050200011FAFEF7BFFC80BD80B594B007A834210B
:10503000FBF770FA00200690059004900390029010
:10504000FFE70020019043F64000C4F2020001682F
:1050500041F080510160006800F08050019001989B
:10506000FFE7FFE70020009047F20000C4F20000D5
:105070000168012262F38F310160006800F4404052
:1050800000900098FFE70220079001210A9110216B
:105090000B910D9000220E920F914FF4A871109178
:1050A000042111911290139007A8FDF799FC18B1F3
:1050B000FFE7FCF78DFCFFE70F2002900221039130
:1050C000002004904FF480520592069002A8FDF74C
:1050D00073FA18B1FFE7FCF77BFCFFE714B080BD63
:1050E0004EF68851CEF20001086840F47000086066
:1050F0007047000083B00290019102980068009010
:1051000002980021C4F20101884225D0FFE70298ED
:10511000B0F1804F20D0FFE7029840F20041C4F286
:105120000001884218D0FFE7029840F60001C4F25F
:105130000001884210D0FFE7029840F60041C4F217
:105140000001884208D0FFE7029840F20041C4F213
:10515000010188420AD1FFE7009820F0700000901A
:1051600001984168009808430090FFE702980021E9
:10517000C4F20101884255D0FFE70298B0F1804F98
:1051800050D0FFE7029840F20041C4F2000188428B
:1051900048D0FFE7029840F60001C4F200018842BF
:1051A00040D0FFE7029840F60041C4F20001884277
:1051B00038D0FFE7029840F20041C4F20101884272
:1051C00030D0FFE7029844F20001C4F201018842A6
:1051D00028D0FFE7029844F20041C4F2010188425E
:1051E00020D0FFE7029844F60001C4F20101884292
:1051F00018D0FFE7029841F60001C4F2000188428E
:1052000010D0FFE7029841F60041C4F20001884245
:1052100008D0FFE7029842F20001C4F20001884280
:105220000AD1FFE7009820F4407000900198C1680F
:10523000009808430090FFE7009820F08000019953
:1052400049690843009000980299086001988068B5
:105250000299C86201980068029988620298002148
:10526000C4F20101884208D0FFE7029840F20041F1
:10527000C4F20101884205D1FFE701980069029953
:105280000863FFE702990120486103B070470000FE
:1052900084B0039002910192029800F01F01012056
:1052A00088400090009A0399086A90430862019828
:1052B000029901F01F0100FA01F20399086A1043F4
:1052C000086204B07047000085B004900391029218
:1052D0000193049880680090009820F47F4000902B
:1052E00003980299019A41EA022101430098084378
:1052F000009000980499886005B0704783B00290D0
:105300000191029880680090009820F07000009051
:1053100001980099084340F0070000900098029916
:10532000886003B07047000085B004900391049931
:10533000086A20F0010008620498006A019004984D
:1053400040680090049880690290029820F07000F4
:105350000290029820F003000290039801680298DE
:1053600008430290019820F00200019003988168A0
:1053700001980843019004980021C4F20101884279
:1053800008D0FFE7049840F20041C4F201018842CE
:105390000ED1FFE7019820F0080001900398C16842
:1053A000019808430190019820F004000190FFE764
:1053B00004980021C4F20101884208D0FFE7049854
:1053C00040F20041C4F20101884213D1FFE7009886
:1053D00020F480700090009820F4007000900398F2
:1053E0004169009808430090039881690098084338
:1053F0000090FFE70098049948600298049988613A
:10540000039840680499486301980499086205B0BC
:105410007047000085B0049003910499086A20F059
:10542000100008620498006A019004984068009097
:10543000049880690290029820F4E040029002985B
:1054400020F44070029003980168029840EA01201D
:105450000290019820F02000019003988168019843
:1054600040EA0110019004980021C4F20101884231
:1054700008D0FFE7049840F20041C4F201018842DD
:105480000FD1FFE7019820F0800001900398C168D8
:10549000019840EA01100190019820F0400001902D
:1054A000FFE704980021C4F20101884208D0FFE719
:1054B000049840F20041C4F20101884215D1FFE78F
:1054C000009820F480600090009820F40060009024
:1054D00003984169009840EA81000090039881692F
:1054E000009840EA81000090FFE700980499486026
:1054F0000298049988610398406804998863019828
:105500000499086205B0704785B00490039104992E
:10551000086A20F4807008620498006A0190049878
:10552000406800900498C0690290029820F07000D2
:105530000290029820F003000290039801680298FC
:1055400008430290019820F400700190039881684C
:10555000019840EA0120019004980021C4F2010161
:10556000884208D0FFE7049840F20041C4F20101EC
:1055700088420FD1FFE7019820F400600190039862
:10558000C168019840EA01200190019820F48060F0
:105590000190FFE704980021C4F20101884208D07D
:1055A000FFE7049840F20041C4F20101884215D19E
:1055B000FFE7009820F480500090009820F40050FD
:1055C000009003984169009840EA01100090039808
:1055D0008169009840EA01100090FFE70098049963
:1055E000486002980499C861039840680499C863A8
:1055F00001980499086205B07047000085B00490D6
:1056000003910499086A20F4805008620498006AA3
:1056100001900498406800900498C0690290029834
:1056200020F4E0400290029820F440700290039829
:105630000168029840EA01200290019820F400508D
:10564000019003988168019840EA01300190049824
:105650000021C4F20101884208D0FFE7049840F21B
:105660000041C4F2010188420BD1FFE7009820F409
:105670008040009003984169009840EA81100090B2
:10568000FFE700980499486002980499C86103985C
:1056900040680499086401980499086205B070474D
:1056A00085B00490039102920498006A00900499D6
:1056B000086A20F00100086204988069019001984E
:1056C00020F0F00001900299019840EA0110019049
:1056D000009820F00A000090039900980843009079
:1056E00001980499886100980499086205B0704790
:1056F00085B00490039102920499086A20F010008A
:1057000008620498806901900498006A00900198EA
:1057100020F4704001900299019840EA0130019014
:10572000009820F0A00000900399009840EA011032
:10573000009001980499886100980499086205B066
:105740007047000080B584B0039000200290039859
:10575000806B0190019800684069C0B2C009029056
:10576000019890F83D0021280AD1FFE7029838B14E
:10577000FFE701990020C884019800F0B5F8FFE721
:10578000019800684069C0F380100290019890F879
:105790003E0022280AD1FFE7029838B1FFE70199BD
:1057A0000020C885019800F055F8FFE70199086CC2
:1057B00040F0100008640198FEF77EFD04B080BD43
:1057C00080B584B003900398806B029003980068C2
:1057D0000068C00500282AD4FFE702990020C88489
:1057E000FFE7FFE70298006850E8050F20F080000F
:1057F0000190FFE701990298026842E8051000282D
:10580000F0D1FFE7FFE7FFE7FFE70298006850E805
:10581000030F40F040000090FFE7009902980268F3
:1058200042E803100028F0D1FFE7FFE703E0029809
:10583000FEF7AAFFFFE704B080BD000080B582B08C
:1058400001900198806B00900098FEF7A1FF02B0D4
:1058500080BD000084B00390FFE7FFE70398006875
:1058600050E8030F20F490700290FFE7029903982C
:10587000026842E803100028F0D1FFE7FFE7FFE7E6
:10588000FFE70398006850E8050F20F00100019041
:10589000FFE701990398026842E805100028F0D15B
:1058A000FFE7FFE70398006B012814D1FFE7FFE74C
:1058B000FFE70398006850E8030F20F01000009005
:1058C000FFE700990398026842E803100028F0D12E
:1058D000FFE7FFE7FFE70399202081F83E000399E7
:1058E0000020086304B0704782B00190FFE7FFE733
:1058F0000198006850E8030F20F0C0000090FFE717
:1059000000990198026842E803100028F0D1FFE7EF
:10591000FFE70199202081F83D0002B070470000A8
:1059200080B586B0059005980068006920F4405065
:10593000059A1168D26810430861059988680B6957
:105940004A69C969184310430843049005980068E0
:10595000C06849F20C6188430499084305990968B5
:10596000C86005980068406920F44070059A116885
:105970009269104348610598006841F20001C4F241
:105980000101884209D0FFE70598006841F2004113
:10599000C4F20101884204D1FFE7FCF757FF0390EE
:1059A00003E0FCF741FF0390FFE70598C069B0F5FD
:1059B000004F29D1FFE703981921A0FB0101059AA7
:1059C0001368029353685A00DB0FFAF714FD02992B
:1059D000864648F21F53C5F2EB13AEFB0320420983
:1059E00010014FF0640C02FB1CEC322202EBCC02E3
:1059F000A2FB0332F82303EA521300EB4300C2F385
:105A000042121044886026E003981921A0FB01018E
:105A1000059A1368019353689A009B0FFAF7EBFC01
:105A20000199844648F21F52C5F2EB12ACFB0230DA
:105A30004309642003FB10CC322000EB0C10A0FBC8
:105A40000202F02000EA521000EB0310C2F34312EE
:105A500010448860FFE706B080BD000080B588B0C4
:105A6000DDF828C0069005918DF813200393FFE719
:105A700006980068006805990840401AB0FA80F05E
:105A800040099DF81310884249D1FFE70A98013078
:105A9000002843D0FFE70A9840B1FFE7FCF7CCFCB1
:105AA0000399401A0A99884237D9FFE7FFE7FFE7D1
:105AB0000698006850E8030F20F4D0700290FFE7CA
:105AC00002990698026842E803100028F0D1FFE727
:105AD000FFE7FFE7FFE70698006850E8050F20F0B2
