:020000040800F2
:10000000081D0020D90100089D450008C5400008D2
:1000100099450008650900089D530008000000008C
:10002000000000000000000000000000054900087A
:10003000210B0008000000000D4600085D49000883
:10004000F3010008F3010008F3010008F3010008C0
:10005000F3010008F3010008F3010008F3010008B0
:10006000F3010008F3010008F3010008F3010008A0
:10007000F3010008F3010008F3010008F301000890
:10008000F3010008F3010008F3010008F301000880
:10009000F3010008F3010008F3010008F301000870
:1000A000F3010008F3010008F3010008F301000860
:1000B000414A0008F3010008F3010008F3010008B9
:1000C000F3010008F3010008F301000811460008DD
:1000D000F3010008F3010008F3010008F301000830
:1000E000F3010008F3010008F3010008F301000820
:1000F000F3010008F3010008F30100086909000892
:10010000F3010008F3010008F3010008F3010008FF
:10011000F3010008F14C0008F3010008F3010008A6
:10012000F3010008F3010008F30100087909000851
:10013000F30100080000000000000000F3010008C7
:10014000F3010008F3010008F3010008F3010008BF
:10015000F3010008F3010008F3010008F3010008AF
:10016000F3010008F3010008F3010008F30100089F
:10017000F3010008F3010008F3010008000000008B
:1001800000000000F3010008000000000000000073
:10019000F30100080000000000000000F301000867
:1001A000000000000000000000000000F301000853
:1001B000F3010008F3010008F3010008F30100084F
:1001C000F3010008DFF80CD000F0C8FA004800473F
:1001D000BD6B0008081D0020064880470648004700
:1001E000FEE7FEE7FEE7FEE7FEE7FEE7FEE7FEE7E7
:1001F000FEE7FEE72D4A0008C50100082DE9F05F83
:100200000546002092469B46884606468146402485
:100210001BE0284641464746224600F00FF9534668
:100220005A46C01A914110D311461846224600F092
:10023000F6F82D1A67EB01084F46224601200021EF
:1002400000F0EDF817EB00094E41201EA4F1010467
:10025000DFDC484631462A464346BDE8F09FD2B22D
:1002600001E000F8012B491EFBD270470022F6E79F
:1002700010B513460A4604461946FFF7F0FF20461C
:1002800010BD2DE9FE4F804681EA0300C00F0C46E9
:10029000009021F0004123F00045B8EB0200A94195
:1002A00005D24046214690461C460B46024623F0A6
:1002B0000040104347D0270DC7F30A00C3F30A518B
:1002C0000290401A019040286BDAC3F3130040F407
:1002D000801B0098924620B10023D2EB030A63EB07
:1002E0000B0B01985946C0F14002504600F097F8B8
:1002F00006460D4650465946019A00F0AFF810EBFD
:1003000008006141002487EA115284EAE7731A4326
:1003100040D0009A62B3019A012A4FEA075215DCD5
:10032000001B61EB02014FF0004202EA0752CDE9E7
:100330000042001C41F5801132462B4600F0AFF818
:1003400003B0BDE8F08F40462146F9E7001B61EBA2
:100350000201001C41F5801300185B412018A2F532
:10036000001747EB030140EAD570B6196D4111E063
:100370006D084FEA360645EAC0754FEA0752001B82
:1003800061EB0201001C41F5801149084FEA300081
:100390000019514132462B4603B0BDE8F04F00F042
:1003A0006FB80098012240000023D0EB020263EBFB
:1003B000E073009821464FEAE074B8EB000061EB6F
:1003C0000401E9E783F000435BE781F0004158E76F
:1003D0000EB5C10F80EAE0700844CA07002140F260
:1003E00033438DE80E000A460B4600F058F803B080
:1003F00000BD30B50B46014600202022012409E053
:1004000021FA02F59D4205D303FA02F5491B04FACD
:1004100002F52844151EA2F10102F1DC30BD202AAC
:1004200004DB203A00FA02F1002070479140C2F14B
:10043000200320FA03F3194390407047202A04DB7D
:10044000203A21FA02F00021704721FA02F3D0404D
:10045000C2F120029140084319467047202A06DB6A
:10046000CB17203A41FA02F043EAE07306E041FA82
:1004700002F3D040C2F12002914008431946704770
:1004800010B5141E73F1000408DA401C41F100019C
:1004900092185B411A4301D120F0010010BD2DE9F3
:1004A000F04D92469B4611B1B1FA81F202E0B0FAEA
:1004B00080F220329046FFF7B2FF04460F4640EA32
:1004C0000A0041EA0B0153465A46084313D011462D
:1004D00053EA010019D0C8F140025046FFF7AEFFC1
:1004E00005460E46504659464246FFF798FF0843D8
:1004F00005D0012004E020463946BDE8F08D0020FB
:10050000054346EAE0762C4337430A986305E40A3C
:10051000A0EB08000022FD0A44EA47540A3002D545
:1005200000200146E9E7010510196941DDE90845A8
:1005300000196941BDE8F04DA2E72DE9FE4F81EABF
:10054000030404F0004421F0004100944FF0000B3C
:1005500023F0004350EA01045ED052EA03045BD06A
:10056000C3F30A54C1F30A552C44A4F2F3340194A2
:10057000A0FB0254C1F3130141F48011C3F3130330
:1005800043F4801301FB024400FB034E840A970AE4
:1005900044EA815447EA8357A4FB076802958D0A11
:1005A00005FB07854FEA932C04FB0C542705029D9D
:1005B0004FEA065847EA1637B5EB08056EEB070C0D
:1005C000870E920E47EA811742EA8312A7FB0201C7
:1005D000B6EB0B0164EB00042B0D43EA0C335E1801
:1005E00044EB1C50DA465146E7FB0201C5F3130405
:1005F0004FEA0B3343EA14534FEA0432019C43EAB7
:100600000603A4F10C040294009CCDE900B4FFF7AA
:1006100046FF03B0BDE8F08F00200146F9E72DE961
:10062000F04D81EA030404F0004B21F0004514462C
:100630004FF0000A23F0004150EA050220D054EAAE
:1006400001021DD0C5F30A570246C5F31303C1F3D7
:100650001300C1F30A5640F4801543F48013A7EB4E
:100660000608101BD64608F2FD3873EB050002D3CE
:1006700008F1010801E092185B41B8F1000F03DABC
:1006800000200146BDE8F08D00204FF480110646A1
:1006900084460EE0171B73EB050705D3121B63EBB3
:1006A000050306434CEA010C49084FEA3000921852
:1006B0005B4150EA0107EDD152EA030012D082EA11
:1006C000040083EA0501084305D0101BAB4106D2A4
:1006D0000122002306E000224FF0004302E06FF009
:1006E000010253101AEB06004CEB085110EB0A0004
:1006F00041EB0B01BDE8F04DFFF7C2BEC1F30A525A
:10070000C1F3130140F2FF3341F480119A4202DA3F
:1007100000200146704740F233439A42A2F233422E
:1007200002DC5242FFF78ABEFFF779BE30B5041EE5
:1007300071F1000404DB4FF00044404264EB01011E
:10074000141E73F1000405DB1C464FF000435242B7
:1007500063EB0403994208BF904230BD064C074D3D
:1007600006E0E06840F0010394E807009847103481
:10077000AC42F6D3FFF72AFD789800089898000855
:1007800070B58C1810F8015B15F0070301D110F853
:10079000013B2A1106D110F8012B03E010F8016B80
:1007A00001F8016B5B1EF9D12B0705D40023521E03
:1007B0000DD401F8013BFAE710F8013BCB1A921C6B
:1007C00003E013F8015B01F8015B521EF9D5A14269
:1007D000D8D3002070BD000082B0019042F20030FA
:1007E000C4F2010000900099486820F4403048604D
:1007F0000198426800994868104348600198016870
:10080000486820F48070486001980168026948686F
:1008100040EA0220486001980168486820F0407072
:1008200048600198016882684868104348600198F0
:100830000168886820F40060886001980168C268D7
:100840008868104388600198806A0121C0F60071B1
:10085000884219D0FFE701980168886820F070602D
:10086000886001980168826A8868104388600198EE
:100870000168886820F04050886001980168C26A69
:100880008868104388600CE001980168886820F04F
:100890007060886001980168886820F04050886026
:1008A000FFE701980168886820F0020088600198DD
:1008B000027E0168886840EA42008860019890F8EA
:1008C0002000C8B1FFE701980168486840F4006063
:1008D000486001980168486820F4604048600198C9
:1008E0000168426A4EF20000CFF6FF7000EB423220
:1008F00048681043486006E001980168486820F4A1
:1009000000604860FFE701980168C86A20F4700041
:10091000C86201980168C2690020CFF6F07000EB50
:100920000252C86A1043C86201980168886820F4BE
:1009300000708860019890F830200168886840EA6B
:100940004220886001980168886820F4806088608F
:10095000019801684269886840EA8220886002B094
:1009600070470000FFE7FEE780B540F21050C2F28A
:10097000000000F01BFC80BD80B540F2B040C2F228
:10098000000000F013FC80BD82B001900198007857
:1009900010384AF6AB21CAF6AA21A0FB01100009C3
:1009A0000090009947F28C70C0F60000405C0199FD
:1009B000C8650098042807D3FFE701990868042256
:1009C00062F30900886506E00199086840F2FF3289
:1009D00090438865FFE70198806D02B07047000082
:1009E00086B0059000208DF813000598806A03906A
:1009F0000598806910BBFFE70398029003281BD875
:100A00000299DFE801F0020D0218059890F82F0016
:100A1000C00720B1FFE701208DF81300FFE70CE0CD
:100A20000598C06AB0F1C07F04D1FFE701208DF8BE
:100A30001300FFE701E000E0FFE745E0059880696B
:100A4000B0F5005F25D1FFE70398019003281ED879
:100A50000199DFE801F00206021101208DF8130070
:100A600016E0059890F82F00C00720B1FFE701209D
:100A70008DF81300FFE70BE00598C06AB0F1C07F66
:100A800004D1FFE701208DF81300FFE700E0FFE746
:100A900019E003980090032804D3FFE70098032887
:100AA00004D00EE001208DF813000BE0059890F8BB
:100AB0002F00C00720B1FFE701208DF81300FFE7EA
:100AC00000E0FFE7FFE7FFE79DF8130006B070477F
:100AD00084B0039002910192009303980168086822
:100AE00020F4802008600098039909684860039802
:100AF0008068402809D1FFE7019803990968886058
:100B0000029803990968C86008E002980399096887
:100B10008860019803990968C860FFE704B07047CE
:100B20007047000081B0EFF3108072B60090FFE7CD
:100B3000FEE7000085B00390029100200190FFE7DE
:100B4000039890F83C00012804D1FFE702208DF8BB
:100B5000130007E10399012081F83C00FFE7FFE75C
:100B6000029800680A281CD3FFE70298008800EB6F
:100B70004000A0F11E01072000FA01F2039801686D
:100B8000C8689043C86002998868098801EB4101F0
:100B90001E3900FA01F203980168C8681043C86062
:100BA00018E00298008800EB4001072000FA01F2EB
:100BB0000398016808699043086102998868098868
:100BC00001EB410100FA01F2039801680869104342
:100BD0000861FFE70298406806281BD8FFE70298E3
:100BE000406800EB8000411F1F2000FA01F20398CB
:100BF0000168486B9043486302990888496801EB93
:100C00008101053900FA01F203980168486B10432D
:100C100048633DE0029840680C281CD8FFE7029822
:100C2000406800EB8000A0F123011F2000FA01F2D0
:100C300003980168086B9043086302990888496823
:100C400001EB8101233900FA01F203980168086B76
:100C5000104308631BE00298406800EB8000A0F19D
:100C600041011F2000FA01F203980168C86A90430D
:100C7000C86202990888496801EB8101413900FA8C
:100C800001F203980168C86A1043C862FFE7FFE7F2
:100C900042F20030C4F2010000900398006842F272
:100CA0000001C4F20101884210D1FFE702980068F8
:100CB00012280BD1FFE70099486820F40000486033
:100CC0000099486840F480004860FFE70398006896
:100CD00042F20001C4F20101884239D1FFE70298D3
:100CE00000681221C1F20001884205D0FFE7029896
:100CF000006811282CD1FFE70099486820F4800093
:100D000048600099486840F4000048600298006814
:100D10001221C1F20001884219D1FFE740F20C0014
:100D2000C2F2000000684DF68361C4F21B31A0FBE3
:100D30000110800C00EB800040000190FFE701985B
:100D400020B1FFE7019801380190F8E7FFE7FFE7DE
:100D5000FFE70399002081F83C00FFE700208DF8B1
:100D60001300FFE79DF8130005B0704780B584B00D
:100D7000029000208DF80700029820B9FFE70120BB
:100D80008DF80F0042E00298806A0121C0F60071E0
:100D9000884201D0FFE7FFE70298006C50B9FFE7F7
:100DA000029800F037F8029900204864029981F80F
:100DB0003C00FFE70298006CC006002817D4FFE74C
:100DC0000298006C40F0020020F4885002990864F8
:100DD0000298FFF701FD0299002048640298006C18
:100DE00040F0010020F002000299086403E00120B5
:100DF0008DF80700FFE7FFE70299002081F83C002B
:100E0000FFE79DF807008DF80F00FFE79DF80F0042
:100E100004B080BD80B588B0079000200690059092
:100E20000490039002900798006842F20001C4F217
:100E30000101884230D1FFE7FFE70020019043F62F
:100E40004400C4F20200016841F48071016000684E
:100E500000F4807001900198FFE7FFE70020009008
:100E600043F63000C4F20200016841F00201016063
:100E7000006800F0020000900098FFE70220029056
:100E8000032003900020049040F20040C4F20200CE
:100E900002A900F057FCFFE708B080BD84B00290C3
:100EA00000200190FFE7029890F83C00012804D14F
:100EB000FFE702208DF80F00D4E00299012081F8AD
:100EC0003C00FFE7FFE7029800688068C007F0B9C0
:100ED000FFE702980168886840F00100886040F2EE
:100EE0000C00C2F2000000684DF68361C4F21B31B1
:100EF000A0FB0110800C00EB40000190FFE701987F
:100F000020B1FFE7019801380190F8E7FFE7029868
:100F100000688068C007002800F09580FFE702980D
:100F2000006C40F4807040F20161884302990864CB
:100F30000298006840684005002809D5FFE702983C
:100F4000006C40F4805020F4005002990864FFE7E0
:100F50000298006CC004002806D5FFE70299486C8F
:100F600020F00600486403E0029900204864FFE78F
:100F7000FFE70299002081F83C00FFE742F20030D1
:100F8000C4F201000090029801686FF0220008602E
:100F900000984068C006E8BBFFE70298006842F28C
:100FA0000001C4F20101884224D0FFE702980068E2
:100FB00042F20011C4F20101884208D1FFE742F277
:100FC0000430C4F201000068C00698B1FFE702983F
:100FD000006842F20021C4F20101884219D1FFE702
:100FE00042F20430C4F20100006800F01F000F2834
:100FF0000FD8FFE702980068806810F0405F07D1C3
:10100000FFE702980168886840F080408860FFE749
:10101000FFE717E00298006842F20001C4F2010104
:1010200088420ED1FFE702980068806810F0405FA8
:1010300007D1FFE702980168886840F08040886027
:10104000FFE7FFE70AE00299086C40F0100008642F
:101050000299486C40F001004864FFE700208DF8D9
:101060000F00FFE79DF80F0004B0704780B584B013
:1010700002900298806D019000F04AFD0090029865
:1010800090F8350002280DD0FFE7029980204865CE
:10109000FFE70299002081F83400FFE701208DF876
:1010A0000F0055E002980168086820F016000860FB
:1010B00002980168486920F0800048610298006C3D
:1010C00020B9FFE70298806C38B1FFE70298016809
:1010D000086820F008000860FFE7029801680868C7
:1010E00020F001000860FFE7029800680068C00770
:1010F000C8B1FFE700F00CFD0099401A062811D393
:10110000FFE70299202048650299032081F8350005
:10111000FFE70299002081F83400FFE703208DF8F3
:101120000F0015E0E0E70298C16D3F20884001996B
:1011300088600299012081F83500FFE702990020BC
:1011400081F83400FFE7FFE700208DF80F00FFE78C
:101150009DF80F0004B080BD82B00090009890F818
:101160003500022807D0FFE700998020486501205C
:101170008DF807000EE00099052081F835000098F1
:101180000168086820F001000860FFE700208DF882
:101190000700FFE79DF8070002B0704781B000909C
:1011A000009890F8350001B07047000080B586B017
:1011B00005900020039040F20C00C2F2000000688D
:1011C00048F2B511C1F64E31A0FB0110800A029021
:1011D0000598806D01900198006804900498059925
:1011E000C96DC840000700281AD5FFE705980068B8
:1011F00000684007002812D5FFE7059801680868D5
:1012000020F0040008600598C16D0820884001990D
:1012100088600599486D40F001004865FFE7FFE7E9
:1012200004980599C96DC840C007A0B1FFE70598AB
:1012300000684069000600280CD5FFE70598C16DDD
:1012400001208840019988600599486D40F00200AE
:101250004865FFE7FFE704980599C96DC840400756
:10126000002814D5FFE7059800680068800700286B
:101270000CD5FFE70598C16D04208840019988606E
:101280000599486D40F004004865FFE7FFE70498C2
:101290000599C96DC840C006002847D5FFE70598E5
:1012A00000680068000700283FD5FFE70598C16D7A
:1012B0001020884001998860059800680068400304
:1012C00000281AD5FFE70598006800680003002889
:1012D00009D4FFE70598006C20B1FFE70598016C81
:1012E0008847FFE708E00598806C20B1FFE7059884
:1012F000816C8847FFE7FFE716E005980068006803
:10130000C005002807D4FFE705980168086820F0A9
:1013100008000860FFE70598006C20B1FFE705981A
:10132000016C8847FFE7FFE7FFE7FFE704980599AF
:10133000C96DC8408006002840F18D80FFE7059800
:1013400000680068C006002840F18480FFE7059827
:10135000C16D2020884001998860059890F835007B
:10136000052834D1FFE705980168086820F01600C9
:10137000086005980168486920F080004861059878
:10138000006C20B9FFE70598806C38B1FFE705983D
:101390000168086820F008000860FFE70598C16D43
:1013A0003F208840019988600599012081F8350027
:1013B000FFE70599002081F83400FFE70598006DEC
:1013C00020B1FFE70598016D8847FFE77BE00598AE
:1013D00000680068400300281AD5FFE705980068F8
:1013E00000680003002809D4FFE70598406C20B18D
:1013F000FFE70598416C8847FFE708E00598C06B58
:1014000020B1FFE70598C16B8847FFE7FFE720E0C1
:10141000059800680068C005002811D4FFE705980A
:101420000168086820F0100008600599012081F823
:101430003500FFE70599002081F83400FFE7FFE75A
:101440000598C06B20B1FFE70598C16B8847FFE79F
:10145000FFE7FFE7FFE70598406DA0B3FFE70598BA
:10146000406DC00730B3FFE70599052081F83500CE
:1014700005980168086820F001000860FFE70398FC
:10148000013003900299884201D9FFE707E0FFE7A6
:10149000059800680068C0070028F0D1FFE70599AB
:1014A000012081F83500FFE70599002081F834001C
:1014B000FFE7FFE70598C06C20B1FFE70598C16C16
:1014C0008847FFE7FFE706B080BD000080B586B023
:1014D00004900020039000F01BFB0290049820B9B8
:1014E000FFE701208DF81700A3E00498406A08B1D7
:1014F000FFE7FFE70499022081F83500FFE7049930
:10150000002081F83400FFE704980168086820F0A3
:1015100001000860FFE7049800680068C00790B108
:10152000FFE700F0F5FA0299401A06280AD3FFE710
:101530000499202048650499032081F835008DF82E
:10154000170076E0E7E704980068006803900398C6
:1015500048F23F01CFF21001084003900499009136
:101560004868D1F808C0CB680A6940EA0C00184303
:1015700010434A6910438A691043CA691043096AD3
:1015800001430398084303900498406A042808D153
:10159000FFE70499C86A096B014303980843039065
:1015A000FFE7039804990968086004980068406997
:1015B0000390039820F0070003900498416A039871
:1015C000084303900498406A04281AD1FFE704985E
:1015D000816A0398084303900498C06A80B1FFE7CA
:1015E0000498FFF7FDF950B1FFE7049940204865E2
:1015F0000499012081F835008DF8170019E0FFE704
:10160000FFE703980499096848610498FFF7BCF95B
:1016100001900498C16D3F20884001998860049929
:1016200000204865049A012182F835108DF81700D2
:10163000FFE79DF8170006B080BD000080B588B0B8
:10164000069005910492039300208DF80B000698F4
:10165000806D0190FFE7069890F83400012804D1CE
:10166000FFE702208DF81F0045E00699012081F870
:101670003400FFE7FFE7069890F8350001282BD1EA
:10168000FFE70699022081F8350006990020486599
:1016900006980599049A039BFFF71AFA0698C16DFC
:1016A0003F2088400199886006980168086840F0EA
:1016B000160008600698006C38B1FFE706980168CC
:1016C000086840F008000860FFE7069801680868AD
:1016D00040F00100086009E0FFE70699002081F86A
:1016E0003400FFE702208DF80B00FFE79DF80B00A8
:1016F0008DF81F00FFE79DF81F0008B080BD0000B7
:1017000080B584B0039000F003FA02900398019032
:101710000198013048B1FFE740F20640C2F20000F4
:101720000178019808440190FFE7FFE700F0F0F925
:101730000299401A0199884201D2FFE7F6E704B006
:1017400080BD00008DB00C900B9100200990089096
:1017500007900A90FFE70A980F2800F2BE81FFE782
:101760000A990120884009900B980068099908405F
:10177000089008980999884240F0AA81FFE70B98E1
:10178000406800F00300012807D0FFE70B9840688D
:1017900000F0030002282FD1FFE70C988068079023
:1017A0000A984100032000FA01F107988843079046
:1017B0000B98C0680A99490000FA01F1079808439C
:1017C000079007980C9988600C98406807900A99D0
:1017D000012000FA01F10798884307900B984068B0
:1017E000C0F300100A9900FA01F107980843079026
:1017F00007980C994860FFE70B98406800F00300D9
:10180000032818D0FFE70C98C06807900A98410099
:10181000032000FA01F10798884307900B9880682D
:101820000A99490000FA01F10798084307900798C0
:101830000C99C860FFE70B98406800F0030002288D
:1018400026D1FFE70C980A996FF0030202EA5101D2
:101850000844006A07900A9800F0070081000F20F2
:1018600000FA01F10798884307900B9800690A99DC
:1018700001F00701890000FA01F107980843079079
:1018800007980C990A9B02EA530211440862FFE789
:101890000C98006807900A984100032000FA01F1B3
:1018A0000798884307900B98406800F003000A9956
:1018B000490000FA01F107980843079007980C992E
:1018C00008600B9880798007002800F00081FFE70E
:1018D000FFE70020069043F64400C4F202000168CE
:1018E00041F480410160006800F480400690069851
:1018F000FFE70A9820F0030043F60801C4F2010153
:10190000405807900A9800F0030081000F2000FA69
:1019100001F10798884307900C980021C4F2020156
:10192000884203D1FFE70020059050E00C9840F278
:101930000041C4F20201884203D1FFE70120049074
:1019400042E00C9840F60001C4F20201884203D143
:10195000FFE70220039034E00C9840F60041C4F207
:101960000201884203D1FFE70320029026E00C9891
:1019700041F20001C4F20201884203D1FFE70420D2
:10198000019018E00C9841F20041C4F20201884233
:1019900003D1FFE7052000900AE00C9941F6000210
:1019A000C4F202020720914208BF06200090FFE720
:1019B00000980190FFE701980290FFE702980390DA
:1019C000FFE703980490FFE704980590FFE7059868
:1019D000C0B20A9901F00301890000FA01F10798E9
:1019E0000843079007980A9921F0030143F608027B
:1019F000C4F20102885043F60840C4F201000068B6
:101A0000079008990798884307900B988079C0063B
:101A1000002805D5FFE70899079808430790FFE7D6
:101A2000079843F60841C4F20101086043F60C40F0
:101A3000C4F201000068079008990798884307904E
:101A40000B9880798006002805D5FFE7089907984C
:101A500008430790FFE7079843F60C41C4F20101E1
:101A6000086043F60440C4F201000068079008993A
:101A70000798884307900B9880798007002805D540
:101A8000FFE70899079808430790FFE7079843F690
:101A90000441C4F20101086043F60040C4F20100B1
:101AA0000068079008990798884307900B988079F9
:101AB000C00728B1FFE70899079808430790FFE798
:101AC000079843F60041C4F201010860FFE7FFE711
:101AD000FFE70A9801300A903DE60DB0704700001C
:101AE00082B00190ADF802108DF801209DF8010040
:101AF00028B1FFE7BDF802000199886105E0BDF853
:101B00000200000401998861FFE702B070470000FD
:101B100040F63470C2F200000068704740F20640A0
:101B2000C2F20000027840F63471C2F20001086887
:101B3000104408607047000080B582B043F6004151
:101B4000C4F20201086840F400700860086840F4BC
:101B500080600860086840F480700860032000F02E
:101B60008FF80020019000F005F800F03BF8019894
:101B700002B080BD80B582B0009040F20C00C2F28D
:101B80000000006840F20641C2F200010A784FF4FA
:101B90007A71B1FBF2F1B0FBF1F001F067FA20B11C
:101BA000FFE701208DF8070018E000980F280DD8F6
:101BB000FFE700994FF0FF30002200F047F800984F
:101BC00040F20841C2F20001086003E001208DF8F4
:101BD000070003E000208DF80700FFE79DF80700ED
:101BE00002B080BD80B582B0FFE70020019043F6CF
:101BF0004400C4F20200016841F4804101600068C1
:101C000000F4804001900198FFE7FFE7002000907A
:101C100043F64000C4F20200016841F080510160C7
:101C2000006800F0805000900098FFE7072000F067
:101C300027F802B080BD000080B582B08DF80700A3
:101C40009DF9070003F0ACFB02B080BD80B586B003
:101C50008DF81700049103920020029003F0B8FB66
:101C600002909DF91700019002980499039A02F0DE
:101C700097FC0146019803F0B3FB06B080BD00005D
:101C800080B582B00190019803F0CCFB02B080BD1A
:101C900080B584B002900191029820B9FFE701203D
:101CA0008DF80F0021E1019843F60041C4F20201D2
:101CB000096801F00F01884212D9FFE7019943F644
:101CC0000040C4F202000170006800F00F000199AA
:101CD000884204D0FFE701208DF80F0005E1FFE7FF
:101CE00002980078800700282AD5FFE7029800783C
:101CF0004007002809D5FFE743F60801C4F20201B6
:101D0000086840F4E0500860FFE702980078000798
:101D1000002809D5FFE743F60801C4F2020108686C
:101D200040F460400860FFE743F60801C4F2020196
:101D3000086820F0F000029A926810430860FFE7FC
:101D400002980078C00700286ED0FFE7029840682C
:101D5000012811D1FFE743F60000C4F20200006839
:101D600000F400310020B0EB514F04D1FFE7012017
:101D70008DF80F00B9E02CE002984068022805D0E9
:101D8000FFE702984068032811D1FFE743F60000FF
:101D9000C4F20200006800F000710020B0EB516F47
:101DA00004D1FFE701208DF80F009EE010E043F61C
:101DB0000000C4F20200006800F002010020B0EB55
:101DC000510F04D1FFE701208DF80F008DE0FFE7F0
:101DD000FFE743F60801C4F20201086820F003009F
:101DE000029A526810430860FFF792FE0090FFE7E6
:101DF00043F60800C4F20200006800F00C000299EB
:101E00004968B0EB810F0ED0FFE7FFF781FE009924
:101E1000401A41F28931884204D3FFE703208DF84C
:101E20000F0062E0E4E7FFE7019843F60041C4F2E7
:101E30000201096801F00F01884212D2FFE70199FF
:101E400043F60040C4F202000170006800F00F0089
:101E50000199884204D0FFE701208DF80F0044E08B
:101E6000FFE702980078400700280CD5FFE743F60B
:101E70000801C4F20201086820F4E050029AD26816
:101E800010430860FFE702980078000700280DD58E
:101E9000FFE743F60801C4F20201086820F460403D
:101EA000029A126940EAC2000860FFE700F04CF8AD
:101EB00043F60801C4F202010968C9B20A0947F2EF
:101EC0007471C0F60001895CC84040F20C01C2F296
:101ED0000001086040F20840C2F200000068FFF70D
:101EE00049FE00208DF80F00FFE79DF80F0004B0B9
:101EF00080BD000040F20C00C2F200000068704794
:101F000080B5FFF7F7FF43F60801C4F20201096844
:101F1000C1F3822247F28471C0F60001895CC84097
:101F200080BD000080B5FFF7E5FF43F60801C4F26D
:101F30000201096889B24A0B47F28471C0F60001B8
:101F4000895CC84080BD000080B586B00020059047
:101F5000049003900290019043F60800C4F202003E
:101F6000006800F00C00014600910C2800F29B80F4
:101F70000099DFE801F0079898980D9898981398C1
:101F80009898570042F20040C0F2F400019090E0AF
:101F900041F20020C0F27A0001908AE043F604008A
:101FA000C4F20200016801F03F010591006840029F
:101FB000002813D5FFE743F60400C4F202000068CE
:101FC000C0F3881041F20021C0F27A01A0FB0101A8
:101FD000059A0023FEF712F9049012E043F604007C
:101FE000C4F202000068C0F3881042F20041C0F25F
:101FF000F401A0FB0101059A0023FEF7FFF804900D
:10200000FFE743F60400C4F20200006800F4403128
:10201000022000EBD130039004980399B0FBF1F05B
:10202000019046E043F60400C4F20200016801F0AA
:102030003F01059100684002002813D5FFE743F6F1
:102040000400C4F202000068C0F3881041F20021CD
:10205000C0F27A01A0FB0101059A0023FEF7CEF839
:10206000049012E043F60400C4F202000068C0F3DA
:10207000881042F20041C0F2F401A0FB0101059A70
:102080000023FEF7BBF80490FFE743F60400C4F218
:1020900002000068C0F30270029004980299B0FB3D
:1020A000F1F0019005E042F20040C0F2F40001902E
:1020B000FFE7019806B080BD80B586B00490049813
:1020C00020B9FFE701208DF8170084E30498007819
:1020D000C007002800F0BA80FFE743F60800C4F20A
:1020E0000200006800F00C00042828D0FFE743F647
:1020F0000800C4F20200006800F00C0008280BD1B0
:10210000FFE743F60400C4F20200006800F4800018
:10211000B0F5800F13D0FFE743F60800C4F20200C9
:10212000006800F00C000C281ED1FFE743F6040005
:10213000C4F2020000684002002815D5FFE743F60C
:102140000000C4F20200006800F400310020B0EB8F
:10215000514F08D0FFE70498406820B9FFE70120FD
:102160008DF8170037E370E0FFE704984068B0F59A
:10217000803F09D1FFE743F60001C4F2020108687D
:1021800040F48030086020E004984068B0F5A02F4B
:102190000DD1FFE743F60001C4F20201086840F4E4
:1021A00080200860086840F4803008600CE043F646
:1021B0000001C4F20201086820F480300860086859
:1021C00020F480200860FFE7FFE7FFE704984068FD
:1021D000E8B1FFE7FFF79CFC0390FFE743F6000040
:1021E000C4F20200006800F400310020B0EB514F4F
:1021F0000CD1FFE7FFF78CFC0399401A652804D344
:10220000FFE703208DF81700E5E2E7E71CE0FFF7A2
:102210007FFC0390FFE743F60000C4F20200006871
:1022200000F400310020B0EB514F0CD0FFE7FFF776
:102230006FFC0399401A652804D3FFE703208DF84B
:102240001700C8E2E7E7FFE7FFE7FFE70498007839
:102250008007002840F1A980FFE743F60800C4F298
:102260000200006810F00C0F26D0FFE743F60800CC
:10227000C4F20200006800F00C00082809D1FFE752
:1022800043F60400C4F2020000684002002813D59F
:10229000FFE743F60800C4F20200006800F00C00FB
:1022A0000C282CD1FFE743F60400C4F202000068BA
:1022B0004002002823D4FFE743F60000C4F20200E6
:1022C000006800F002010020B0EB510F09D0FFE7D9
:1022D0000498C068012804D0FFE701208DF817009A
:1022E00079E243F60001C4F20201086820F0F80028
:1022F000049A126940EAC2000860FFE754E00498BB
:10230000C06870B3FFE70021C4F2472101200860D4
:10231000FFF7FEFB0390FFE743F60000C4F2020064
:10232000006800F002010020B0EB510F0CD1FFE774
:10233000FFF7EEFB0399401A032804D3FFE70320BD
:102340008DF8170047E2E7E743F60001C4F2020107
:10235000086820F0F800049A126940EAC200086098
:1023600021E00021C4F2472100200860FFF7D0FBE4
:102370000390FFE743F60000C4F20200006800F09B
:1023800002010020B0EB510F0CD0FFE7FFF7C0FBBC
:102390000399401A032804D3FFE703208DF81700A0
:1023A00019E2E7E7FFE7FFE7FFE704980078000797
:1023B00000284BD5FFE70498406918B3FFE740F6C3
:1023C0008061C4F2472101200860FFF7A1FB039060
:1023D000FFE743F67400C4F20200006800F0020157
:1023E0000020B0EB510F0CD1FFE7FFF791FB0399F1
:1023F000401A032804D3FFE703208DF81700EAE111
:10240000E7E722E040F68061C4F24721002008603F
:10241000FFF77EFB0390FFE743F67400C4F202006F
:10242000006800F002010020B0EB510F0CD0FFE774
:10243000FFF76EFB0399401A032804D3FFE703203C
:102440008DF81700C7E1E7E7FFE7FFE7049800789A
:102450004007002840F1CE80FFE700208DF80700FC
:1024600043F64000C4F202000068C000002815D402
:10247000FFE7FFE70020009043F64000C4F20200AF
:10248000016841F080510160006800F080500090C8
:102490000098FFE701208DF80700FFE747F20000F2
:1024A000C4F200000068C005002822D4FFE747F20C
:1024B0000001C4F20001086840F480700860FFF772
:1024C00027FB0390FFE747F20000C4F2000000681A
:1024D000C00500280CD4FFE7FFF71AFB0399401A48
:1024E000032804D3FFE703208DF8170073E1EAE720
:1024F000FFE7FFE704988068012809D1FFE743F66A
:102500007001C4F20201086840F0010008601FE099
:102510000498806805280DD1FFE743F67001C4F2E6
:102520000201086840F004000860086840F00100FB
:1025300008600CE043F67001C4F20201086820F064
:1025400001000860086820F004000860FFE7FFE76A
:10255000FFE704988068F8B1FFE7FFF7D9FA039026
:10256000FFE743F67000C4F20200006800F00201C9
:102570000020B0EB510F0ED1FFE7FFF7C9FA039926
:10258000401A41F28931884204D3FFE703208DF8D5
:10259000170020E1E5E71EE0FFF7BAFA0390FFE736
:1025A00043F67000C4F20200006800F0020100204F
:1025B000B0EB510F0ED0FFE7FFF7AAFA0399401ACC
:1025C00041F28931884204D3FFE703208DF81700D8
:1025D00001E1E5E7FFE79DF80700012809D1FFE7E2
:1025E00043F64001C4F20201086820F08050086000
:1025F000FFE7FFE704988069002800F0E880FFE724
:1026000043F60800C4F20200006800F00C0008283D
:1026100000F08880FFE70498806902285FD1FFE717
:102620006021C4F2472100200860FFF771FA03908F
:10263000FFE743F60000C4F20200006800F00071FA
:102640000020B0EB516F0CD0FFE7FFF761FA039960
:10265000401A032804D3FFE703208DF81700BAE0DF
:10266000E7E70499C869D1F820C04B6A8A6A40EA52
:102670000C0040EA8310D2034FF6FF739A43A2F591
:1026800080321043CA6A40EA0260096B40EA017076
:1026900043F60401C4F2020108606021C4F247213C
:1026A00001200860FFF734FA0390FFE743F60000CB
:1026B000C4F20200006800F000710020B0EB516F1E
:1026C0000CD1FFE7FFF724FA0399401A032804D33B
:1026D000FFE703208DF817007DE0E7E721E06021A8
:1026E000C4F2472100200860FFF712FA0390FFE7C9
:1026F00043F60000C4F20200006800F00071002000
:10270000B0EB516F0CD0FFE7FFF702FA0399401AC4
:10271000032804D3FFE703208DF817005BE0E7E709
:10272000FFE753E004988069012804D1FFE7012006
:102730008DF817004FE043F60400C4F20200006871
:1027400002900498806901283AD0FFE7029800F4CB
:1027500080000499C969884232D1FFE7029800F0ED
:102760003F000499096A88422AD1FFE7029847F698
:10277000C07108400499496AB0EB811F20D1FFE77E
:10278000029800F440300499896AC9034FF6FF7239
:102790009143A1F58031884212D1FFE7029800F001
:1027A00070600499C96AB0EB016F09D1FFE7029824
:1027B00000F0E0400499096BB0EB017F04D0FFE723
:1027C00001208DF8170006E0FFE7FFE7FFE7002094
:1027D0008DF81700FFE79DF8170006B080BD0000D8
:1027E00081B0009001B0704780B588B0079007981D
:1027F00000684068069007980068806805909DF81A
:10280000140000F040010020B0EB911F11D1FFE750
:102810000598C00768B1FFE79DF8180000F0400177
:102820000020B0EB911F04D0FFE70798016C8847A8
:10283000F0E09DF8140000F002010020B0EB510F11
:102840000BD0FFE79DF818100020B0EBD11F04D08B
:10285000FFE70798416C8847DCE09DF8140000F022
:1028600020010020B0EB511F10D1FFE79DF81400AC
:1028700000F040010020B0EB911F07D1FFE79DF869
:102880001500C007002800F0C580FFE79DF818007C
:1028900000F020010020B0EB511F00F0BB80FFE7EB
:1028A0009DF8140000F040010020B0EB911F28D0EB
:1028B000FFE7079890F85100032813D0FFE7079926
:1028C000486D40F004004865FFE700200490079839
:1028D0000068C068049007980068806804900498B5
:1028E000FFE70DE0FFE70020039007980068C0684D
:1028F000039007980068806803900398FFE789E0D9
:10290000FFE79DF8140000F020010020B0EB511FFC
:1029100015D0FFE70799486D40F001004865FFE7D3
:10292000002002900798006880680290079801686C
:10293000086820F0400008600298FFE7FFE79DF874
:102940001500C00778B1FFE70799486D40F008000F
:102950004865FFE7002001900798006880680190B3
:102960000198FFE7FFE70798406D002851D0FFE787
:1029700007980168486820F0E00048600799012046
:1029800081F85100069800F00200022805D0FFE708
:102990009DF81800C007B8B3FFE7079801684868BA
:1029A00020F0030048600798C06CA0B1FFE70798CB
:1029B000C16C44F22160C0F6000008650798C06C45
:1029C000FEF7CAFB30B1FFE70799486D40F04000C1
:1029D0004865FFE7FFE70798806CA0B1FFE707981D
:1029E000816C44F22160C0F6000008650798806C95
:1029F000FEF7B2FB30B1FFE70799486D40F04000A9
:102A00004865FFE7FFE703E00798FFF7E9FEFFE708
:102A1000FFE7FFE708B080BD80B584B00290029860
:102A200020B9FFE701208DF80F0071E00298406A9D
:102A300060B9FFE702984068B0F5827F01D1FFE7F7
:102A400003E002990020C861FFE705E00299002039
:102A5000086102994861FFE70299002088620298A4
:102A600090F8510040B9FFE70299002081F850002A
:102A7000029800F051F8FFE70299022081F8510016
:102A800002980168086820F040000860029A0192EC
:102A900011685068D2F808C0D36800F482700CF452
:102AA000044C604403F400631844136903F0020308
:102AB0001844536903F001031844936903F4007345
:102AC0001844D36903F038031844136A03F08003F1
:102AD0001843926A02F4005210430860029A508B25
:102AE00000F004001168526A02F0100210444860BD
:102AF00002980168C86920F40060C861029900204A
:102B00004865029A012182F851108DF80F00FFE705
:102B10009DF80F0004B080BD80B58CB00B900020F4
:102B20000A9009900890079006900B98006843F26D
:102B30000001C4F20101884267D1FFE7FFE70020EE
:102B4000059043F64400C4F20200016841F480514C
:102B50000160006800F4805005900598FFE7FFE7EA
:102B60000020049043F63000C4F20200016841F0F6
:102B700001010160006800F0010004900498FFE783
:102B8000E020069002200790002002900890032089
:102B9000099005200A900020C4F2020006A9FEF761
:102BA000D1FD029940F2B040C2F20000039046F21B
:102BB0005842C4F2020202604FF0C06242604022FA
:102BC0008260C1604FF48062026141618161C161D4
:102BD00001624162FEF77AFC18B1FFE7FDF7A2FF40
:102BE000FFE7FFE70B9840F2B041C2F200018164B9
:102BF0000B988863FFE72320019000221146FFF71E
:102C000025F80198FFF718F8FFE70CB080BD000029
:102C100080B588B006900591ADF81220039300208E
:102C20008DF80700FFE7069890F85000012804D1BE
:102C3000FFE702208DF81F0028E10699012081F8A6
:102C40005000FFE7FFE7FEF763FF0290BDF81200B8
:102C5000ADF80400069890F85100012804D0FFE771
:102C600002208DF8070002E1059820B1FFE7BDF8CA
:102C7000120020B9FFE701208DF80700F7E0069960
:102C8000032081F851000699002048650599069AAD
:102C90001163BDF81210069A9186BDF81210069ABB
:102CA000D18606998863069988870699C887069908
:102CB00048640699086406988068B0F5004F0DD105
:102CC000FFE706980168086820F040000860069851
:102CD0000168086840F480400860FFE706980068D3
:102CE000006800F04000402807D0FFE70698016820
:102CF000086840F040000860FFE70698C068B0F53B
:102D0000006F47D1FFE70698406828B1FFE7BDF89C
:102D1000040001280ED1FFE706980168006B0088C7
:102D2000C8600699086B023008630699C88E01389E
:102D3000C886FFE7FFE70698C08E50B3FFE7069806
:102D400000688068800700280ED5FFE706980168B4
:102D5000006B0088C8600699086B0230086306990A
:102D6000C88E0138C88613E0FEF7D2FE0299401AD9
:102D70000399884204D3FFE70398013018B9FFE7AD
:102D8000039820B9FFE703208DF807006FE0FFE705
:102D9000D1E746E00698406828B1FFE7BDF8040097
:102DA00001280ED1FFE706980168006B00780873D0
:102DB0000699086B013008630699C88E0138C886E9
:102DC000FFE7FFE70698C08E50B3FFE7069800685C
:102DD0008068800700280ED5FFE706980168006B21
:102DE000007808730699086B013008630699C88E4D
:102DF0000138C88613E0FEF78BFE0299401A03994A
:102E0000884204D3FFE70398013018B9FFE703981D
:102E100020B9FFE703208DF8070028E0FFE7D1E79E
:102E2000FFE706980399029A01F084FC20B1FFE7BE
:102E3000069920204865FFE70698806870B9FFE78B
:102E4000FFE70020009006980068C0680090069890
:102E50000068806800900098FFE7FFE70698406DE3
:102E600020B1FFE701208DF80700FFE7FFE7069993
:102E7000012081F85100FFE70699002081F85000F9
:102E8000FFE79DF807008DF81F00FFE79DF81F0082
:102E900008B080BD80B584B002900191ADF80220E9
:102EA00000208DF80100FFE7029890F850000128FB
:102EB00004D1FFE702208DF80F009FE00299012066
:102EC00081F85000FFE7FFE7029890F851000128D1
:102ED00004D0FFE702208DF8010084E0019820B1C2
:102EE000FFE7BDF8020020B9FFE701208DF80100DF
:102EF00079E00299032081F8510002990020486589
:102F00000199029A1163BDF80210029A9186BDF8E8
:102F10000210029AD1860299886302994864029944
:102F20000864029988870299C88702988068B0F57A
:102F3000004F0DD1FFE702980168086820F04000BB
:102F4000086002980168086840F480400860FFE764
:102F50000298816C44F27560C0F600000864029823
:102F6000816C44F28D60C0F60000C8630298816CE9
:102F700044F24160C0F60000C8640298816C0020F1
:102F80000865029B1A68196B986C0C32DB8EFEF791
:102F900055FB60B1FFE70299486D40F010004865AD
:102FA00001208DF80100029981F851001BE0029880
:102FB0000068006800F04000402807D0FFE7029852
:102FC0000168086840F040000860FFE70298016867
:102FD000486840F02000486002980168486840F066
:102FE00002004860FFE7FFE70299002081F85000E7
:102FF000FFE79DF801008DF80F00FFE79DF80F0037
:1030000004B080BD81B0009001B0704781B00090E5
:1030100001B0704740F25841C2F200010868013027
:10302000086040F63070C2F20000016801310160B2
:1030300090ED000AB8EEC00A40F2F830C2F200008B
:1030400090ED001AB4EE410AF1EE10FA0DDBFFE745
:1030500040F2FC31C2F200010120086040F63071FC
:10306000C2F2000100200860FFE7704780B582B01F
:103070000190019801F048FC02B080BD80B5FFF7D7
:10308000C9FF80BD81B0009001B0704781B0009051
:1030900001B0704785B003900291FFE7039890F864
:1030A0003C00012804D1FFE702208DF813007EE0E8
:1030B0000399012081F83C00FFE7FFE70399022014
:1030C00081F83D000398006840680190039800680B
:1030D00080680090019820F07000019002980168CB
:1030E0000198084301900198039909684860039882
:1030F00000680021C4F2010188423CD0FFE7039838
:103100000068B0F1804F36D0FFE70398006840F2C6
:103110000041C4F2000188422DD0FFE70398006807
:1031200040F60001C4F20001884224D0FFE7039872
:10313000006840F60041C4F2000188421BD0FFE75E
:103140000398006840F20041C4F20101884212D0A5
:10315000FFE70398006844F20001C4F201018842CD
:1031600009D0FFE70398006841F60001C4F20001AE
:1031700088420ED1FFE7009820F08000009002986E
:103180004168009808430090009803990968886096
:10319000FFE70399012081F83D00FFE70399002034
:1031A00081F83C00FFE700208DF81300FFE79DF851
:1031B000130005B07047000080B582B00090009801
:1031C00020B9FFE701208DF807003FE0009890F854
:1031D0003D0040B9FFE70099002081F83C000098CD
:1031E00000F038F8FFE70099022081F83D000099CF
:1031F00051F8040B01F02CFC0099012081F84600E5
:10320000FFE70099012081F83E00009981F83F0016
:10321000009981F84000009981F84100FFE7FFE73D
:103220000099012081F84200009981F8430000993B
:1032300081F84400009981F84500FFE700990120DA
:1032400081F83D0000208DF80700FFE79DF807009A
:1032500002B080BD80B586B0059005980068002159
:10326000C4F20101884212D1FFE7FFE70020049079
:1032700043F64400C4F20200016841F0010101601C
:10328000006800F0010004900498FFE73DE0059815
:103290000068B0F1804F1BD1FFE7FFE700200390EB
:1032A00043F64000C4F20200016841F001010160F0
:1032B000006800F0010003900398FFE71C200190D4
:1032C00000221146FEF7C2FC0198FEF7B5FC1BE098
:1032D0000598006841F60001C4F20001884212D14D
:1032E000FFE7FFE70020029043F64000C4F202002F
:1032F000016841F040010160006800F04000029068
:103300000298FFE7FFE7FFE7FFE706B080BD000098
:1033100080B586B00490039100208DF80B00FFE784
:10332000049890F83C00012804D1FFE702208DF8B2
:103330001700ABE00499012081F83C00FFE7FFE7AC
:103340000499022081F83D0004980068806801908B
:10335000019820F077000190019820F47F400190BF
:103360000198049909688860039800680090002813
:1033700072D0FFE7009810286ED0FFE70098202851
:103380006AD0FFE70098302866D0FFE70098402811
:1033900055D0FFE70098502837D0FFE70098602805
:1033A00040D0FFE7009870280BD0FFE70098B0F5F9
:1033B000805F05D0FFE70098B0F5005F16D052E0BF
:1033C00055E004980068039B5A689968DB6801F02F
:1033D0000DFC0498006880680190019840F0770027
:1033E0000190019804990968886040E00498006899
:1033F000039B5A689968DB6801F0F8FB0498016840
:10340000886840F48040886031E004980068039A3E
:103410005168D26801F01AFC04980068502101F04C
:10342000FFFB24E004980068039A5168D26801F019
:1034300035FC04980068602101F0F2FB17E0049865
:103440000068039A5168D26801F000FC0498006893
:10345000402101F0E5FB0AE004980068039909683F
:1034600001F0DEFB03E001208DF80B00FFE704997B
:10347000012081F83D00FFE70499002081F83C001D
:10348000FFE79DF80B008DF81700FFE79DF8170088
:1034900006B080BD81B0009001B0704780B582B0A9
:1034A000019001980068006900F002010020B0EB73
:1034B000510F28D0FFE701980068C06800F00201B2
:1034C0000020B0EB510F1DD0FFE7019801686FF0AD
:1034D000020008610199012008770198006880695D
:1034E000800720B1FFE70198FFF7D4FF06E00198BD
:1034F00000F012F9019800F013F9FFE7019900209C
:103500000877FFE7FFE701980068006900F0040111
:103510000020B0EB910F29D0FFE701980068C06848
:1035200000F004010020B0EB910F1ED0FFE70198DE
:1035300001686FF004000861019902200877019882
:103540000068806910F4407F04D0FFE70198FFF71E
:10355000A1FF06E0019800F0DFF8019800F0E0F824
:10356000FFE7019900200877FFE7FFE7019800686F
:10357000006900F008010020B0EBD10F28D0FFE770
:1035800001980068C06800F008010020B0EBD10F7E
:103590001DD0FFE7019801686FF0080008610199EC
:1035A0000420087701980068C069800720B1FFE710
:1035B0000198FFF76FFF06E0019800F0ADF8019861
:1035C00000F0AEF8FFE7019900200877FFE7FFE77A
:1035D00001980068006900F010010020B0EB111F95
:1035E00029D0FFE701980068C06800F010010020B2
:1035F000B0EB111F1ED0FFE7019801686FF01000BB
:10360000086101990820087701980068C06910F4E2
:10361000407F04D0FFE70198FFF73CFF06E00198E8
:1036200000F07AF8019800F07BF8FFE7019900209C
:103630000877FFE7FFE7019800680069C00780B1DD
:10364000FFE701980068C068C00748B1FFE701982C
:1036500001686FF001000861019800F065F8FFE76C
:10366000FFE7019800680069C1B20020B0EBD11FEC
:1036700013D0FFE701980068C068C1B20020B0EB2A
:10368000D11F09D0FFE7019801686FF08000086141
:103690000198FFF7F7FCFFE7FFE701980068006972
:1036A00000F040010020B0EB911F14D0FFE701981B
:1036B0000068C06800F040010020B0EB911F09D005
:1036C000FFE7019801686FF040000861019800F081
:1036D0002FF8FFE7FFE701980068006900F020017C
:1036E0000020B0EB511F14D0FFE701980068C068BC
:1036F00000F020010020B0EB511F09D0FFE7019836
:1037000001686FF0200008610198FFF7BFFCFFE738
:10371000FFE702B080BD000081B0009001B07047AB
:1037200081B0009001B0704781B0009001B0704747
:1037300081B0009001B0704782B00190ADF80210E6
:1037400002B0704781B0009001B0704780B592B070
:103750001190119800680068109011980068C06876
:103760000F901198006840690E9000200D900C9009
:10377000109800F00F000D900D9888B9FFE79DF8A4
:103780004000800600280AD5FFE79DF83C0080062F
:10379000002804D5FFE7119801F0C4FBE3E1FFE73F
:1037A0000D98002800F0C280FFE79DF83800C007A0
:1037B00038B9FFE7BDF83C0010F4907F00F0B68008
:1037C000FFE79DF84000C00758B1FFE79DF83D00B6
:1037D000C00730B1FFE71199086C40F001000864A0
:1037E000FFE79DF84000400700280BD5FFE79DF854
:1037F0003800C00730B1FFE71199086C40F00200B3
:103800000864FFE79DF84000800700280BD5FFE71C
:103810009DF83800C00730B1FFE71199086C40F0FF
:1038200004000864FFE79DF840000007002811D558
:10383000FFE79DF83C008006002805D4FFE79DF8CF
:103840003800C00730B1FFE71199086C40F008005C
:103850000864FFE71198006C002866D0FFE79DF828
:103860004000800600280AD5FFE79DF83C0080064E
:10387000002804D5FFE7119801F054FBFFE71198E9
:1038800000684069C0F380100C901198006C00072C
:10389000002804D4FFE70C9800283ED0FFE71198D9
:1038A00001F0C6FA119800684069400600282FD53B
:1038B000FFE7FFE7FFE71198006850E8050F20F0E9
:1038C00040000B90FFE70B991198026842E8051041
:1038D0000028F0D1FFE7FFE71198806B98B1FFE770
:1038E0001198816B44F60150C0F6000008651198EC
:1038F000806BFDF731FC28B1FFE71198806B016DFB
:103900008847FFE703E01198FFF71CFFFFE703E09C
:103910001198FFF717FFFFE706E01198FFF712FF76
:10392000119900200864FFE7FFE71CE11198006B84
:10393000012840F0F880FFE79DF84000C00600280D
:1039400040F1F180FFE79DF83C00C006002840F1FF
:10395000EA80FFE7FFE700200A90119800680068FE
:103960000A901198006840680A900A98FFE7119839
:1039700000684069400600287ED5FFE71198806BFB
:1039800000684068ADF82600BDF82600002872D017
:10399000FFE7BDF826001199898D88426BDAFFE7B1
:1039A000BDF826001199C8851198806BC069B0F5E3
:1039B000807F58D0FFE7FFE7FFE71198006850E8E5
:1039C000030F20F480700890FFE7089911980268AF
:1039D00042E803100028F0D1FFE7FFE7FFE7FFE729
:1039E0001198006850E8050F20F001000790FFE7EC
:1039F00007991198026842E805100028F0D1FFE706
:103A0000FFE7FFE7FFE71198006850E8050F20F097
:103A100040000690FFE706991198026842E80510F9
:103A20000028F0D1FFE7FFE71199202081F83E0040
:103A3000119900200863FFE7FFE71198006850E83C
:103A4000030F20F010000590FFE705991198026818
:103A500042E803100028F0D1FFE7FFE71198806BE0
:103A6000FDF704FBFFE71198818DC28D891A89B299
:103A7000FFF762FEFFE776E01199888DC98D401A45
:103A8000ADF812001198C08D00284BD0FFE7BDF8AB
:103A90001200002846D0FFE7FFE7FFE71198006813
:103AA00050E8030F20F490700390FFE703991198FA
:103AB000026842E803100028F0D1FFE7FFE7FFE7C4
:103AC000FFE71198006850E8050F20F00100029010
:103AD000FFE702991198026842E805100028F0D12A
:103AE000FFE7FFE71199202081F83E00119900209F
:103AF0000863FFE7FFE71198006850E8030F20F024
:103B000010000190FFE701991198026842E8031044
:103B10000028F0D1FFE7FFE71198BDF81210FFF77A
:103B20000BFEFFE71FE09DF84000000600280AD5C5
:103B3000FFE79DF83C000006002804D5FFE7119838
:103B400001F078FB0FE09DF84000400600280AD500
:103B5000FFE79DF83C004006002804D5FFE71198D8
:103B600001F0B0F9FFE712B080BD000080B582B06F
:103B70000090009820B9FFE701208DF807003EE093
:103B80000098806908B1FFE700E0FFE7009890F82F
:103B90003D0040B9FFE70099002081F83C00009803
:103BA00000F032F8FFE70099242081F83D000098EA
:103BB0000168C86820F40050C860009801F064FAF9
:103BC00000980168086920F4904008610098016835
:103BD000486920F02A00486100980168C86840F4EC
:103BE0000050C860009900200864009A202182F8E3
:103BF0003D10009A82F83E108DF80700FFE79DF80F
:103C0000070002B080BD000080B592B01190002086
:103C100010900F900E900D900C901198006845F246
:103C20000001C4F20001884240F09480FFE7FFE702
:103C300000200B9043F64000C4F20200016841F4FA
:103C400080110160006800F480100B900B98FFE772
:103C5000FFE700200A9043F63000C4F2020001683A
:103C600041F004010160006800F004000A900A9825
:103C7000FFE7FFE70020099043F63000C4F202009E
:103C8000016841F008010160006800F00800099037
:103C90000998FFE74FF480500C90022001900D909E
:103CA000002005900E90032002900F9008200390B2
:103CB000109040F60000C4F202000CA90491FDF738
:103CC00041FDDDF804C0029A03980499059B4FF06A
:103CD000040ECDF830E0CDF834C00E930F92109062
:103CE00040F60040C4F20200FDF72CFD059940F2B9
:103CF0001050C2F20000069046F2B802C4F202026E
:103D000002604FF00062426040228260C1604FF466
:103D10008062026141618161C16101624162FDF7BE
:103D2000D5FB18B1FFE7FCF7FDFEFFE7FFE71198B1
:103D300040F21051C2F20001416311988863FFE71D
:103D40003520009000221146FDF780FF0098FDF716
:103D500073FF3CE01198006844F20041C4F2000196
:103D6000884233D1FFE7FFE70020089043F6400088
:103D7000C4F20200016841F400310160006800F4FF
:103D8000003008900898FFE7FFE70020079043F60F
:103D90003000C4F20200016841F0010101600068D6
:103DA00000F0010007900798FFE70C200C9002201C
:103DB0000D9000200E9003200F90072010900020FF
:103DC000C4F202000CA9FDF7BDFCFFE7FFE712B04B
:103DD00080BD000080B584B002900191ADF8022052
:103DE000029890F83E00202828D1FFE7019820B1E2
:103DF000FFE7BDF8020020B9FFE701208DF80F00B2
:103E000020E0FFE7029890F83C00012804D1FFE78A
:103E100002208DF80F0015E00299012081F83C0086
:103E2000FFE7FFE702990020086302980199BDF8B7
:103E3000022001F0C7F98DF80F0003E002208DF891
:103E40000F00FFE79DF80F0004B080BD81B0009027
:103E500001B0704780B58AB008900791ADF81A207C
:103E6000059300200290089890F83D00202840F02B
:103E70009080FFE7079820B1FFE7BDF81A0020B94E
:103E8000FFE701208DF8270087E0FFE7089890F80A
:103E90003C00012804D1FFE702208DF827007CE0D8
:103EA0000899012081F83C00FFE7FFE7089900200E
:103EB00008640899212081F83D00FDF729FE029051
:103EC000BDF81A0008998884BDF81A000899C884BA
:103ED00008988068B0F5805F09D1FFE7089800690D
:103EE00028B9FFE7002004900798039004E00798A2
:103EF000049000200390FFE7FFE70899002081F875
:103F00003C00FFE7FFE70898C08C58B3FFE708982C
:103F1000029B05996A4611608021002201F0D4F9C4
:103F200020B1FFE703208DF8270036E0049858B948
:103F3000FFE7039800886FF35F20089909684860DD
:103F400003980230039008E0049800780899096803
:103F50004860049801300490FFE70899C88C013844
:103F6000C884D0E70898029B05996A4611604021F1
:103F7000002201F0A9F920B1FFE703208DF8270006
:103F80000BE00899202081F83D0000208DF82700E3
:103F900003E002208DF82700FFE79DF827000AB014
:103FA00080BD000080B586B004900391ADF80A2072
:103FB000049890F83D00202874D1FFE7039820B1C1
:103FC000FFE7BDF80A0020B9FFE701208DF81700D0
:103FD0006CE0FFE7049890F83C00012804D1FFE76B
:103FE00002208DF8170061E00499012081F83C005F
:103FF000FFE7FFE7039804990862BDF80A000499F7
:104000008884BDF80A000499C884049900200864D3
:10401000049A212182F83D1004994A6B44F69D517F
:10402000C0F60001D16304994A6B44F61961C0F6E9
:104030000001116404994A6B44F62151C0F6000155
:10404000D1640499496B086503A80190049802683B
:10405000406B019909680432BDF80A30FDF7EEFAA9
:10406000049801686FF040000860FFE704990020A1
:1040700081F83C00FFE7FFE7FFE70498006850E89D
:10408000050F40F080000090FFE700990498026857
:1040900042E805100028F0D1FFE7FFE700208DF887
:1040A000170003E002208DF81700FFE79DF81700C6
:1040B00006B080BD81B0009001B0704781B0009023
:1040C00001B07047FFE7FEE780B586B0002200929E
:1040D000059204920392029240F26840C2F20000FC
:1040E000019042F20001C4F2010101604FF48031FD
:1040F000416082600261027680F82020C262012164
:10410000C0F600718162C2600121C16180F8302077
:104110004161FCF72BFE18B1FFE7FCF703FDFFE759
:1041200009200290012003900020049040F2684092
:10413000C2F2000002A9FCF7FDFC18B1FFE7FCF792
:10414000F1FCFFE706B080BD80B586B0FFE7002038
:10415000059043F63000C4F20200016841F480018A
:104160000160006800F4800005900598FFE7FFE714
:104170000020049043F63000C4F20200016841F4CC
:1041800000110160006800F4001004900498FFE73B
:104190002F200190002202921146FDF757FD019851
:1041A000FDF74AFD029A3B2003901146FDF74EFDB4
:1041B0000398FDF741FD06B080BD000080B594B0C6
:1041C000002013901290119010900F90FFE70020A4
:1041D0000E9043F63000C4F20200016841F0040181
:1041E0000160006800F004000E900E98FFE7FFE702
:1041F00000200D9043F63000C4F20200016841F047
:1042000080010160006800F080000D900D98FFE7CC
:10421000FFE700200C9043F63000C4F20200016872
:1042200041F001010160006800F001000C900C9861
:10423000FFE7FFE700200B9043F63000C4F20200D6
:10424000016841F002010160006800F002000B907B
:104250000B98FFE7FFE700200A9043F63000C4F216
:104260000200016841F008010160006800F00800E8
:104270000A900A98FFE740F60000C4F2020004909A
:10428000E021019100220792FDF72AFC079A40F2F3
:104290000040C4F2020003904FF488610291FDF7E0
:1042A0001FFC079A0020C4F2020008904FF48051CE
:1042B0000591FDF715FC049807994FF400520F92F1
:1042C0004FF40412109211910FA90991FDF73AFAD7
:1042D000019B0498079A09990F9301230693109361
:1042E00011921292FDF72EFADDF808C00398069B92
:1042F000079A0999CDF83CC0109311921292FDF7DC
:1043000021FA0398069A079B09994FF4104CCDF8AF
:104310003CC010931192FDF715FA0498079A099979
:104320004FF480730F9310921192FDF70BFA069AD7
:10433000079B089809994FF4006CCDF83CC0109386
:104340001192FDF7FFF9DDF814C0069B079A089853
:104350000999CDF83CC0109311921292FDF7F2F931
:1043600014B080BD80B582B040F27050C2F200003F
:10437000009043F20001C4F2010101604FF4827128
:104380004160002101918160C160016141614FF490
:1043900000728261C1610162416281620A21C1626F
:1043A000FEF73AFB18B1FFE7FCF7BCFBFFE702B0F2
:1043B00080BD000080B586B0002101910591049177
:1043C0000391029140F21060C2F2000041F6000237
:1043D000C4F200020260416081604FF6FF72C26069
:1043E00001618161FEF7E8FE18B1FFE7FCF79AFB77
:1043F000FFE74FF48050029040F21060C2F20000DC
:1044000002A9FEF785FF18B1FFE7FCF78BFBFFE77A
:1044100006B080BD80B588B000210091079106915B
:10442000059104910391029140F2C850C2F200003C
:1044300001900022C4F201020260416081604FF6E7
:10444000FF72C260016141618161FEF7B5FE18B182
:10445000FFE7FCF767FBFFE74FF48050049040F262
:10446000C850C2F2000004A9FEF752FF18B1FFE7DE
:10447000FCF758FBFFE700200290039040F2C85081
:10448000C2F2000002A9FEF705FE18B1FFE7FCF733
:1044900049FBFFE708B080BD80B588B000210191DD
:1044A00007910691059104910391029140F25860A1
:1044B000C2F200004FF080420260532242608160ED
:1044C00042F20F72C26001618161FEF775FE18B1A0
:1044D000FFE7FCF727FBFFE74FF48050049040F222
:1044E0005860C2F2000004A9FEF712FF18B1FFE7FE
:1044F000FCF718FBFFE700200290039040F25860A1
:10450000C2F2000002A9FEF7C5FD18B1FFE7FCF7F3
:1045100009FBFFE708B080BD80B582B040F2E460DF
:10452000C2F20000019045F20001C4F200010160F6
:104530004FF41661416000218160C16001610C226D
:1045400042618161C161FFF711FB18B1FFE7FCF720
:10455000E9FAFFE702B080BD80B582B040F2A0600A
:10456000C2F20000019044F20041C4F20001016077
:104570004FF4E131416000218160C16001610C2292
:1045800042618161C161FFF7F1FA18B1FFE7FCF701
:10459000C9FAFFE702B080BDFFE7FEE7FFE7FEE7ED
:1045A00088B0079006910592079800F007000490E4
:1045B0000498C0F10700052803D3FFE70420019009
:1045C00004E00498C0F107000190FFE70198039010
:1045D00004980430062803D8FFE70020009003E089
:1045E000049803380090FFE700980290069803991A
:1045F000012202FA01F101390840029B9840059915
:104600009A40013A1140084308B0704770470000D3
:1046100080B540F27050C2F20000FEF7E5F880BDB0
:1046200080B582B001900198806B009000990020C5
:10463000C8870099C8860098FEF7D2F802B080BDFE
:1046400080B582B001900198806B0090009801685D
:10465000486820F0030048600099486D40F0100061
:1046600048650099012081F851000098FEF7B8F8DC
:1046700002B080BD80B582B001900198806B00903F
:104680000098FEF7C3FC02B080BD000080B584B086
:1046900003900398806B0290FDF73AFA019003981B
:1046A0000068006800F48070B0F5807F3BD0FFE7C1
:1046B00002980168486820F020004860029801686C
:1046C000486820F0020048600298019A642100F0D6
:1046D00031F830B1FFE70299486D40F0200048659D
:1046E000FFE70298806870B9FFE7FFE700200090BD
:1046F00002980068C0680090029800688068009086
:104700000098FFE7FFE702990020C8860299012080
:1047100081F851000298406D20B1FFE70298FEF742
:104720005FF804E0FFE70298FEF76CFCFFE704B0D7
:1047300080BD000080B586B004900391029240F2E3
:104740000C00C2F2000000684AF6AB21CAF6AA21AA
:10475000A0FB011000094DF68361C4F21B31A0FBE0
:104760000110800C4FF47A7148430190049840681E
:10477000B0F5827F15D1FFE70498039B02996A4642
:1047800011608021002200F027F848B1FFE704996A
:10479000486D40F02000486503208DF8170017E0B1
:1047A00012E0FFE7019808B9FFE70CE00198013833
:1047B0000190FFE7049800688068C1B20020B0EB68
:1047C000D11FEFD1FFE7FFE700208DF81700FFE7CB
:1047D0009DF8170006B080BD80B58AB0DDF830C006
:1047E000089007918DF81B20059305980190FDF71F
:1047F0008FF9024601980C99891A08440390FDF735
:1048000087F90290039840F20C01C2F20001096896
:10481000C1F3CB3148430490FFE7089800688068F3
:1048200007990840401AB0FA80F040099DF81B1023
:1048300088425ED0FFE705980130002858D0FFE796
:10484000FDF766F90299401A0399884204D2FFE7FE
:104850000398002842D1FFE708980168486820F0D3
:10486000E000486008984068B0F5827F13D1FFE708
:1048700008988068B0F5004F06D0FFE70898806878
:10488000B0F5806F07D1FFE708980168086820F04D
:1048900040000860FFE70898806AB0F5005F0FD11C
:1048A000FFE7FFE708980168086820F400500860F7
:1048B00008980168086840F400500860FFE7FFE7C7
:1048C0000899012081F85100FFE70899002081F83C
:1048D0005000FFE703208DF827000EE0049818B978
:1048E000FFE700200390FFE7049801380490FFE7FA
:1048F00093E700208DF82700FFE79DF827000AB016
:1049000080BD00007047000080B582B00090009824
:104910000138B0F1807F03D3FFE70120019019E057
:10492000009801384EF21401CEF2000108604FF0F9
:10493000FF300F2100F054FD4EF21801CEF20001BD
:10494000002008604EF21002CEF200020721116032
:104950000190FFE7019802B080BD000080B5FDF72F
:10496000DDF8FEF78BFB40F2E460C2F20000FEF7D8
:10497000EDFE80BD80B594B007A83421FBF776FC2E
:10498000002006900590049003900290FFE700201D
:10499000019043F64000C4F20200016841F08051EA
:1049A0000160006800F0805001900198FFE7FFE788
:1049B0000020009047F20000C4F2000001680122CC
:1049C00062F38F310160006800F44040009000986D
:1049D000FFE70220079001210A9110210B910D9011
:1049E00000220E920F914FF4A871109104211191A1
:1049F0001290139007A8FDF75FFB18B1FFE7FCF7D3
:104A000091F8FFE70F20029002210391002004900B
:104A10004FF480520592069002A8FDF739F918B1BB
:104A2000FFE7FCF77FF8FFE714B080BD4EF6885132
:104A3000CEF20001086840F4700008607047000082
:104A400080B540F25860C2F20000FEF727FD80BD3D
:104A500083B00290019102980068009002980021B2
:104A6000C4F20101884225D0FFE70298B0F1804FDF
:104A700020D0FFE7029840F20041C4F200018842D2
:104A800018D0FFE7029840F60001C4F20001884206
:104A900010D0FFE7029840F60041C4F200018842BE
:104AA00008D0FFE7029840F20041C4F201018842B9
:104AB0000AD1FFE7009820F070000090019841684B
:104AC000009808430090FFE702980021C4F201011A
:104AD000884255D0FFE70298B0F1804F50D0FFE7F1
:104AE000029840F20041C4F20001884248D0FFE73A
:104AF000029840F60001C4F20001884240D0FFE76E
:104B0000029840F60041C4F20001884238D0FFE725
:104B1000029840F20041C4F20101884230D0FFE720
:104B2000029844F20001C4F20101884228D0FFE754
:104B3000029844F20041C4F20101884220D0FFE70C
:104B4000029844F60001C4F20101884218D0FFE740
:104B5000029841F60001C4F20001884210D0FFE73C
:104B6000029841F60041C4F20001884208D0FFE7F4
:104B7000029842F20001C4F2000188420AD1FFE724
:104B8000009820F4407000900198C1680098084394
:104B90000090FFE7009820F08000019949690843E0
:104BA0000090009802990860019880680299C86294
:104BB000019800680299886202980021C4F20101FC
:104BC000884208D0FFE7029840F20041C4F2010198
:104BD000884205D1FFE70198006902990863FFE761
:104BE00002990120486103B07047000085B004902D
:104BF000039102920193049880680090009820F439
:104C00007F40009003980299019A41EA02210143F2
:104C100000980843009000980499886005B0704798
:104C200083B002900191029880680090009820F073
:104C30007000009001980099084340F00700009030
:104C400000980299886003B07047000085B0049016
:104C5000039102920498006A00900499086A20F077
:104C600001000862049880690190019820F0F0002A
:104C700001900299019840EA01100190009820F0FB
:104C80000A00009003990098084300900198049945
:104C9000886100980499086205B0704785B0049057
:104CA000039102920499086A20F0100008620498A7
:104CB000806901900498006A0090019820F4704087
:104CC00001900299019840EA01300190009820F08B
:104CD000A00000900399009840EA0110009001980C
:104CE0000499886100980499086205B07047000033
:104CF00080B540F2E460C2F20000FEF727FD80BDFF
:104D000080B582B001900198806B009000990020DE
:104D1000C8850099C8840098FEF714FD02B080BDD4
:104D200080B584B00390002002900398806B0190BE
:104D3000019800684069C0B2C0090290019890F8DB
:104D40003D0021280AD1FFE7029838B1FFE7019919
:104D50000020C884019800F0C9F8FFE701980068B6
:104D60004069C0F380100290019890F83E0022281C
:104D70000AD1FFE7029838B1FFE701990020C88502
:104D8000019800F055F8FFE70199086C40F0100019
:104D900008640198FEF7D6FC04B080BD80B584B0ED
:104DA00003900398806B0290039800680068C00528
:104DB00000282AD4FFE702990020C884FFE7FFE714
:104DC0000298006850E8050F20F080000190FFE78E
:104DD00001990298026842E805100028F0D1FFE727
:104DE000FFE7FFE7FFE70298006850E8030F40F095
:104DF00040000090FFE700990298026842E8031023
:104E00000028F0D1FFE7FFE703E00298FFF752F92F
:104E1000FFE704B080BD000080B582B0019001982A
:104E2000806B00900098FFF749F902B080BD000048
:104E300084B00390FFE7FFE70398006850E8030F92
:104E400020F490700290FFE702990398026842E80C
:104E500003100028F0D1FFE7FFE7FFE7FFE7039823
:104E6000006850E8050F20F001000190FFE701996C
:104E70000398026842E805100028F0D1FFE7FFE739
:104E80000398006B012814D1FFE7FFE7FFE70398C1
:104E9000006850E8030F20F010000090FFE7009931
:104EA0000398026842E803100028F0D1FFE7FFE70B
:104EB000FFE70399202081F83E0003990020086352
:104EC00004B0704780B582B0019001980168C8684D
:104ED00020F04000C8600199202081F83D00019831
:104EE000FFF7E8F8002002B080BD000082B001901A
:104EF000FFE7FFE70198006850E8030F20F0C000CB
:104F00000090FFE700990198026842E8031000282A
:104F1000F0D1FFE7FFE70199202081F83D0002B0C2
:104F20007047000080B586B00490049890F83E0069
:104F3000222840F0A180FFE704988068B0F5805FE8
:104F400015D1FFE70498006988B9FFE700200390B6
:104F50000498806A02900498006840686FF35F20AC
:104F6000029908800499886A0230886225E00498D2
:104F7000806A03900020029004988068B0F5805FFA
:104F800008D0FFE70498806850B9FFE704980069EB
:104F900030B9FFE70498006840680399087007E09B
:104FA00004980068406800F07F0003990870FFE7EC
:104FB0000499886A01308862FFE70499C88D013836
:104FC000C8850004002853D1FFE704980168C86829
:104FD00020F02000C86004980168C86820F4807040
:104FE000C86004980168486920F00100486104998C
:104FF000202081F83E000498006B012830D1FFE7A3
:10500000049900200863FFE7FFE70498006850E870
:10501000030F20F010000190FFE701990498026847
:1050200042E803100028F0D1FFE7FFE7049800688A
:105030000068C00600280ED5FFE7FFE700200090BB
:105040000498006800680090049800684068009028
:105050000098FFE7FFE70498818DFEF76DFB03E002
:105060000498FEF7F3FEFFE700208DF8170007E035
:1050700000208DF8170003E002208DF81700FFE7ED
:105080009DF8170006B080BD80B586B005900598E4
:105090000068006920F44050059A1168D2681043F6
:1050A0000861059988680B694A69C9691843104302
:1050B0000843049005980068C06849F20C61884371
:1050C0000499084305990968C86005980068406913
:1050D00020F44070059A1168926910434861059860
:1050E000006841F20001C4F20101884209D0FFE7E3
:1050F0000598006841F20041C4F20101884204D1E0
:10510000FFE7FCF70FFF039003E0FCF7F9FE0390C5
:10511000FFE70598C069B0F5004F29D1FFE7039874
:105120001921A0FB0101059A1368029353685A00E4
:10513000DB0FFBF763F80299864648F21F53C5F26E
:10514000EB13AEFB0320420910014FF0640C02FB8D
:105150001CEC322202EBCC02A2FB0332F82303EA5E
:10516000521300EB4300C2F342121044886026E061
:1051700003981921A0FB0101059A13680193536854
:105180009A009B0FFBF73AF80199844648F21F52A8
:10519000C5F2EB12ACFB02304309642003FB10CCD8
:1051A000322000EB0C10A0FB0202F02000EA5210AB
:1051B00000EB0310C2F3431210448860FFE706B00F
:1051C00080BD000083B002900191ADF802200198EB
:1051D00002998862BDF8020002998885BDF8020034
:1051E0000299C8850299002008640299222081F85A
:1051F0003E00FFE70299002081F83C00FFE702989B
:10520000006938B1FFE702980168C86840F480700F
:10521000C860FFE702980168486940F001004861F2
:1052200002980168C86840F02000C860002003B000
:105230007047000083B00190019890F83D0021284C
:105240003AD1FFE701988068B0F5805F13D1FFE79E
:105250000198006978B9FFE70198006A009000980A
:1052600000886FF35F200199096848600199086A16
:105270000230086208E0019A106A411C116200784D
:10528000019909684860FFE70199C88C0138C88412
:10529000000468B9FFE701980168C86820F0800041
:1052A000C86001980168C86840F04000C860FFE726
:1052B00000208DF80B0003E002208DF80B00FFE7C3
:1052C0009DF80B0003B0704780B588B0DDF828C0AA
:1052D000069005918DF813200393FFE70698006868
:1052E000006805990840401AB0FA80F040099DF81E
:1052F0001310884249D1FFE70A980130002843D0B3
:10530000FFE70A9840B1FFE7FCF702FC0399401A57
:105310000A99884237D9FFE7FFE7FFE70698006858
:1053200050E8030F20F4D0700290FFE7029906982E
:10533000026842E803100028F0D1FFE7FFE7FFE72B
:10534000FFE70698006850E8050F20F00100019083
:10535000FFE701990698026842E805100028F0D19D
:10536000FFE7FFE70699202081F83D00069981F8C4
:105370003E00FFE70699002081F83C00FFE703208C
:105380008DF81F0005E0FFE7A8E700208DF81F005B
:10539000FFE79DF81F0008B080BD0000FFE7FEE7B3
:1053A00081B08DF803009DF9030000280ED4FFE7BB
:1053B0009DF9031001F01F02012090404A094EF2AE
:1053C0000011CEF2000141F82200FFE701B0704762
:1053D0004EF60C50CEF200000068C0F30220704779
:1053E00082B08DF8070000919DF9070000280AD4CB
:1053F000FFE7009800019DF907104EF20042CEF23F
:10540000000288540BE0009800019DF8071001F09D
:105410000F014EF61452CEF200028854FFE702B09C
:105420007047000083B00290029800F007000090DF
:105430004EF60C51CEF200010868019001984FF62B
:10544000FF02104001900198009A40EA02200022D9
:10545000C0F2FA52104301900198086003B07047FF
:1054600087B006900591049203930020029001906A
:10547000FFE70198059988422DDAFFE70398019923
:1054800050F8210001380090FFE7009890B1FFE745
:1054900004980199405C0699029A531C029388541F
:1054A0000098013800900298B0F57A7F01D1FFE7AB
:1054B00011E0EAE70699029A501C029000208854F5
:1054C0000298B0F57A7F01D1FFE704E0FFE7019889
:1054D00001300190CDE707B07047000080B584B07F
:1054E0008DED030A40F25C40C2F20000006801301A
:1054F00098B1FFE740F25040C2F20000006840F26D
:105500005C41C2F20001B1F900206B460B21196029
:105510000021C82300F04EFBFFE740F2D660029066
:105520009DED030A9FED271AB4EE410AF1EE10FA41
:105530000ADBFFE740F25C41C2F200010020486054
:105540004FF0FF3008601EE09DED030AB2EE0E1A28
:1055500020EE010A9FED1B1A80EE010AB7EE001A39
:1055600030EE010ABDEEC00A40F25C41C2F2000119
:1055700081ED010A4A6840F21040C2F2000050F882
:1055800022000860FFE740F25C40C2F200000068C1
:105590000130A0B1FFE740F25040C2F200000068C5
:1055A00040F25C41C2F20001B1F900206B460B21D0
:1055B00019604FF6FF71C82300F0FCFAFFE704B052
:1055C00080BD00BF00C0DA4480B588B040F25440CE
:1055D000C2F2000000680790C820069006200590DF
:1055E00000200490FFE704981D2800F38A80FFE75D
:1055F00001200390FFE703980F286FDCFFE740F2DC
:105600005040C2F200000068039A40F21041C2F21A
:10561000000151F822100639BDF91830EC46062277
:10562000CCF804200C22CCF800200AB2002100F0B3
:1056300087FC079940F63870C2F20000405C03997D
:1056400088421FD1FFE740F25040C2F200000068DC
:1056500047F29671C0F600010988039B40F21042A0
:10566000C2F2000252F82320063ABDF91830EE4685
:105670004FF0060CCEF804C0CEF800C012B200F015
:105680005FFCFFE7079941F22030C2F20000405C66
:10569000039988421DD1FFE740F25040C2F200005A
:1056A000006847F29471C0F600010988039B40F23C
:1056B0001042C2F2000232F92320BDF91830EE4642
:1056C0004FF0060CCEF804C0CEF800C000F038FC55
:1056D000FFE7FFE70398013003908CE7079801305C
:1056E00007900798B0F57A7F03DBFFE7002007906B
:1056F000FFE7069806380690FFE70498013004900B
:1057000071E708B080BD000080B540F63870C2F285
:10571000000040F23032C2F2000240F21003C2F246
:1057200000031921FFF79CFE41F22030C2F2000075
:1057300040F29432C2F2000240F2A013C2F200031F
:105740001B21FFF78DFE80BD80B582B001900091D6
:1057500040F2A060C2F2000001A901224FF6FF73DF
:10576000FEF778FB019802B080BD000080B596B0CE
:1057700040F25040C2F20000059000680021039101
:1057800000F078FC039815901490139012901190EB
:1057900049F64801C0F6000111A8029001F032FB61
:1057A000DDF808C00399059848F2FA42C0F60002F5
:1057B0000E9247F29872C0F600021288ADF83C20B3
:1057C000ADF83E104B21ADF840105A21ADF8421013
:1057D00000680E990F9A109BEE46CEF800C000F0BC
:1057E00047FB03980D900C900B900A90099040F2A3
:1057F0005840C2F20000026849F65201C0F60001AA
:1058000009A8049001F0FEFA0399DDF810C005988C
:1058100047F29C72C0F60002069247F29A72C0F6F6
:1058200000021288ADF81C20ADF81E105221ADF810
:1058300020108721ADF8221000680699079A089B6E
:10584000EE46CEF800C000F013FB41F28830FBF7C3
:1058500057FF16B080BD000081B08DF802009DF8A2
:10586000020020280BDBFFE79DF802007E2806DC03
:10587000FFE79DF8020020388DF8030003E00020C8
:105880008DF80300FFE79DF8030001B070470000AA
:1058900086B0DDF818C0049003910292019303983A
:1058A00018B1FFE7029820B9FFE700208DF8170034
:1058B00096E00398B0F900000499898B884208DAD1
:1058C000FFE70298B0F900000499C98B884204DB15
:1058D000FFE700208DF8170082E0019880B1FFE714
:1058E000069868B1FFE70198008820B1FFE70698A5
:1058F000008820B9FFE700208DF8170070E0FFE76F
:105900000398B0F90000B0F1FF3F0EDCFFE701980B
:1059100038B1FFE70398028801990888801A088047
:10592000FFE7039900200880FFE70298B0F9000024
:10593000B0F1FF3F0EDCFFE7069838B1FFE70298B1
:10594000028806990888801A0880FFE702990020DB
:105950000880FFE7019800283ED0FFE70698D8B3FB
:10596000FFE70398B0F9000001990988084401385D
:105970000499898B884208DBFFE70498808B0399A0
:105980000988401A01990880FFE70298B0F90000E1
:1059900006990988084401380499C98B884208DBB4
:1059A000FFE70498C08B02990988401A069908807D
:1059B000FFE7019801880020009039B1FFE70698C1
:1059C0000088002818BF01200090FFE7009800F031
:1059D00001008DF8170003E001208DF81700FFE7A4
:1059E0009DF8170006B0704780B592B09C461346EC
:1059F0000A4601461498CDF844C010930F920E91B8
:105A00008DF83700BDF84400ADF83400BDF846000D
:105A1000ADF832000F980078ADF830000F9840785C
:105A2000ADF82E000E986A460DF12E0111600DA9F9
:105A30000DF132020CABFFF72BFF08B9FFE7B6E020
:105A40000F990878497848430A900A9809909DF878
:105A500040109DF8410040EA0120ADF822009DF879
:105A600042109DF8430040EA0120ADF8200009985B
:105A700007900798B0F5806F04D9FFE74FF4806076
:105A80000790FFE79DF83700FFF7E6FE8DF81B0053
:105A900000200590FFE705980F994978884243D286
:105AA000FFE70F989DF81B104278059B11FB023110
:105AB00000EB41004088049000200390FFE703982A
:105AC0000F99097888422AD2FFE704980399884001
:105AD000000400280FD5FFE7BDF8220005990F9AB2
